:020000040800F2
:10000000F03300209D0100085B1B0008A3150008C9
:10001000591B000871020008291E0008000000009A
:100020000000000000000000000000006D1D00083E
:10003000BD040008000000007D1B00086F1D0008C3
:10004000B7010008B7010008B7010008B7010008B0
:10005000B7010008B7010008B7010008B7010008A0
:10006000B7010008B7010008B7010008B701000890
:10007000B7010008B7010008B7010008B701000880
:10008000B7010008B7010008B7010008B701000870
:10009000B7010008B7010008B7010008B701000860
:1000A000B7010008B7010008B7010008B701000850
:1000B000B7010008B7010008B7010008B701000840
:1000C000B7010008B7010008B7010008B701000830
:1000D000B7010008B7010008B7010008B701000820
:1000E000B7010008B7010008B7010008B701000810
:1000F000B7010008B7010008000000000000000080
:100100000000000000000000B7010008B70100086F
:100110000000000000000000B7010008B70100085F
:10012000B7010008B7010008B7010008B7010008CF
:10013000B7010008B7010008B7010008B7010008BF
:10014000B7010008000000000000000000000000EF
:10015000000000000000000000000000000000009F
:100160000000000000000000B7010008B70100080F
:10017000B701000800000000B701000800000000FF
:1001800000000000B7010008DFF80CD000F048F8CC
:1001900000480047CD230008F03300200648804780
:1001A00006480047FEE7FEE7FEE7FEE7FEE7FEE75C
:1001B000FEE7FEE7FEE7FEE7C11D00088901000833
:1001C00010B50B4604461146184600F015F8C4E970
:1001D000000110BDD2B201E000F8012B491EFBD294
:1001E00070470022F6E710B513460A460446194642
:1001F000FFF7F0FF204610BD70B50024254600280B
:1002000001DA01244042002901DA0125494200F0C7
:1002100019F8AC4200D04042002C00D0494270BDD9
:10022000064C074D06E0E06840F0010394E8070043
:1002300098471034AC42F6D3FFF7AAFFE0670108F5
:100240000068010830B50B46014600202022012439
:1002500009E021FA02F59D4205D303FA02F5491B94
:1002600004FA02F52844151EA2F10102F1DC30BDAA
:10027000FEE7000038B542F6E0652B4600222E214D
:10028000334801F0A1FE324C1923F0225B210020FB
:10029000009401F087F92B4600222F21204601F01F
:1002A00093FE1923F02274210020009401F07AF9C2
:1002B0002B4600223021204601F086FE1923F02231
:1002C0008D210020009401F06DF92B460022312190
:1002D000204601F079FE1923F022A6210020009487
:1002E00001F060F92B4600223221204601F06CFE1D
:1002F0001923F022BF210020009401F053F92B466E
:1003000000223321204601F05FFE1923F022D8217C
:100310000020009401F046F92B46002234212046AB
:1003200001F052FE1923F022FD210020009401F07B
:1003300039F92B4600223521204601F045FE1923CC
:10034000F0224FF48B710020009401F02BF938BD9E
:100350001001002038B542F6E0652B460022362118
:10036000194801F031FE184C1923F02274210020A5
:10037000009401F017F92B4600223721204601F0A6
:1003800023FE1923F0228D210020009401F00AF9A8
:100390002B4600223821204601F016FE1923F022B8
:1003A000A6210020009401F0FDF82B4600223921FF
:1003B000204601F009FE1923F022BF2100200094FD
:1003C00001F0F0F838BD00001001002038B542F609
:1003D000E0652B4600223A21194801F0F5FD184C42
:1003E0001923F02274210020009401F0DBF82B4641
:1003F00000223B21204601F0E7FD1923F0228D2148
:100400000020009401F0CEF82B4600223C2120462B
:1004100001F0DAFD1923F022A6210020009401F05A
:10042000C1F82B4600223D21204601F0CDFD1923C5
:10043000F022BF210020009401F0B4F838BD000084
:100440001001002038B542F6E0652B4600223E211F
:10045000194801F0B9FD184C1923F022742100202D
:10046000009401F09FF82B4600223F21204601F026
:10047000ABFD1923F0228D210020009401F092F8A9
:100480002B4600224021204601F09EFD1923F02238
:10049000A6210020009401F085F82B46002241217E
:1004A000204601F091FD1923F022BF210020009485
:1004B00001F078F838BD00001001002070470000FE
:1004C00070B5044600F0D8F80546601C02D0044818
:1004D0000078044400F0D0F8401BA042FAD370BD6D
:1004E000100000202DE9F84FDFF864B100234FF031
:1004F000010C4FF0030A4FF00F090BF1040EA0E0BE
:100500000CFA03F6324072D04C68022C01D0122C47
:100510000ED1DC0800EB8408D8F820405D07EF0E10
:1005200009FA07F5AC430D69BD402543C8F82050D2
:1005300007685D0091F804800AFA05F408F00308E2
:10054000A74308FA05F848EA0708C0F800804F6892
:10055000012F05D0022F03D0112F01D0122F11D15E
:100560008768D1F80C80A74308FA05F848EA07081D
:10057000C0F808804768B7430E79C6F300169E405E
:100580003E434660C668A6438C68AC403443C460B2
:100590004C68E40054D52F4CA56945F00105A561D0
:1005A000A46923F0030504F0010400942A4C2E19D9
:1005B000B4689D072F0F09FA07F5AC43B0F1904FCF
:1005C00004D0264DA84203D1012512E0002510E0F9
:1005D000234DA84201D102250BE0224DA84201D1B2
:1005E000032506E0204DA84202D1042501E027E0C2
:1005F0000525BD402543B560DBF800405D464E68EB
:100600009443F60300D514432C60DEF80040754691
:100610004E689443B60300D514432C600C4D083546
:100620002C684E689443F60200D514432C60084DA4
:100630000C352C684E689443B60200D514432C60E8
:100640005B1C0A6832FA03F47FF45AAFBDE8F88FF6
:100650000004014000100240000001400004004876
:1006600000080048000C0048001000480AB18161F1
:100670007047816270470000014880687047000041
:1006800010000020024881680278114481607047A0
:1006900010000020074810B5016841F0100101600A
:1006A000032000F05FF8002000F006F800F024F8C6
:1006B000002010BD0020024070B50D4D04464FF4DF
:1006C0007A712878B1FBF0F00A490968B1FBF0F0C3
:1006D00000F053FF48B9102C07D200222146501ECB
:1006E00000F020F800206C6070BD012070BD00009B
:1006F000100000201C000020094808B5816941F065
:1007000001018161816901F001010091C16941F03C
:100710008051C161C06900F08050009008BD0000A8
:1007200000100240F0B40E4B1B680C46C3F30223CA
:10073000C3F10705042D00D90425191D072901D28D
:10074000002300E0DB1E012606FA05F1491E2140C8
:1007500099409E40761E16403143F0BC01F0FEB930
:100760000CED00E0064900F0070208684FF6FF03B1
:10077000184040EA0220034A104308607047000016
:100780000CED00E00000FA052DE9F0470F460500EA
:1007900069D04A4E306800F00700B84209D230688C
:1007A00020F0070038433060306800F00700B8429E
:1007B00059D12878424C800705D56068A96820F097
:1007C000F000084360602878C0073DD069680120C8
:1007D00001290DD0022923D05FF0020393FAA3F27E
:1007E000B2FA82F242F02002520904D0226803E0F9
:1007F0004FF40033F2E7626A93FAA3F3B3FA83F398
:1008000003F01F03984002422DD0606820F00300DF
:1008100008436060FFF730FF804641F288390CE002
:100820004FF00073DAE700BFFFF726FFA0EB0801E7
:10083000494502D90320BDE8F0876068696800F087
:100840000C00B0EB810FEFD1306800F00700B84228
:100850000BD9306820F0070038433060306800F072
:100860000700B84201D00120E5E72878400705D508
:100870006068E96820F4E060084360602878000759
:1008800006D56068296920F4605040EAC1006060C4
:1008900000F01CF86168F02292FAA2F201F0F00177
:1008A000B2FA82F2D140074A515CC840064908605A
:1008B0000020FFF701FF0020BDE7000000200240FC
:1008C00000100240D06701081C000020144B10B536
:1008D0005A68144802F00C0104291DD008291BD1C4
:1008E0004FF4701494FAA4F402F47011B4FA84F47E
:1008F000E1400D4CDB6A615C0F2494FAA4F403F030
:100900000F03B4FA84F4E340074C1034D203E35CE1
:1009100003D5B0FBF3F0484310BD0448484310BD75
:100920000010024000127A00B067010800093D0083
:100930002DE9F84F040071D02078FB4DC0074FF02F
:10094000010625D068687704C0F38100012807D02C
:100950006868C0F3810002281BD16868C00318D5FD
:1009600097FAA7F0B0FA80F040F02000400901D0DB
:10097000286800E0686A97FAA7F1B1FA81F101F0FE
:100980001F0106FA01F1084265D060680028D2D044
:1009900061E06068B0F5803F0BD010B1B0F5A02FDA
:1009A00017D0286820F480302860286820F4802040
:1009B00002E0286840F480302860E86AA16820F0EE
:1009C0000F000843E862606820B3FFF755FE8046D9
:1009D0000AE0286840F480202860EAE7FFF74CFE30
:1009E000A0EB0800642872D897FAA7F0B0FA80F05C
:1009F00040F02000400901D0286800E0686A97FABA
:100A0000A7F1B1FA81F101F01F0106FA01F10842E4
:100A1000E4D020E0FFF730FE804607E0C7E000BFEB
:100A2000FFF72AFEA0EB08006428DCD897FAA7F0AD
:100A3000B0FA80F040F02000400901D0286800E0C2
:100A4000686A97FAA7F1B1FA81F101F01F0106FA7D
:100A500001F10842E4D12078DFF8D08280074FF01E
:100A6000000A4FF0020759D568684FF0F80B10F0F4
:100A70000C0F07D06868C0F3810002281BD168689A
:100A8000C00318D497FAA7F0B0FA80F040F0200025
:100A9000400901D0286800E0686A97FAA7F1B1FA26
:100AA00081F101F01F0106FA01F108422BD0206903
:100AB00001287CD127E0206988B396FAA6F0B0FA25
:100AC00080F048F82060FFF7D7FD814606E055E149
:100AD000FFF7D2FDA0EB0900022884D897FAA7F00F
:100AE000B0FA80F040F02000400901D0286800E012
:100AF000686A97FAA7F1B1FA81F101F01F0106FACD
:100B000001F10842E4D028689BFAABF26169B2FABD
:100B100082F220F0F80091400843286025E0FFE7CA
:100B200096FAA6F1B1FA81F148F821A0FFF7A4FDE9
:100B3000814605E0FFF7A0FDA0EB09000228CCD814
:100B400097FAA7F0B0FA80F040F02000400901D0F9
:100B5000286800E0686A97FAA7F1B1FA81F101F01C
:100B60001F0106FA01F10842E4D1207800076AD596
:100B7000A069A0B396FAA6F0B0FA80F008EB800066
:100B8000C0F88064FFF778FD814605E0FFF774FD4B
:100B9000A0EB09000228A0D897FAA7F0B0FA80F0DD
:100BA00040F06000B6EB501F02D128680CE077E1FE
:100BB00097FAA7F0B0FA80F040F06000B7EB501F52
:100BC00001D1286A00E0686A97FAA7F1B1FA81F1C9
:100BD00001F01F0106FA01F21042D7D033E0FFE71F
:100BE00096FAA6F0B0FA80F008EB8000C0F880A476
:100BF000FFF742FD814605E0FFF73EFDA0EB09004F
:100C000002289CD897FAA7F0B0FA80F040F0600074
:100C1000B6EB501F01D128680BE097FAA7F0B0FAA5
:100C200080F040F06000B7EB501F01D1286A00E06F
:100C3000686A97FAA7F1B1FA81F101F01F0106FA8B
:100C400001F21042D8D12078400774D5E8694FF0FE
:100C50000009C00009D4E86940F08050E861E86903
:100C60004FF0010900F08050009031480168C9053B
:100C700012D4016841F480710160FFF7FDFC8346E6
:100C800006E000BFFFF7F8FCA0EB0B00642875D866
:100C900027480068C005F5D5E06801280AD008B1EA
:100CA000052811D0286A20F001002862286A20F067
:100CB000040002E0286A40F001002862E068C8B33E
:100CC000FFF7DAFC83460DE0286A40F00400286252
:100CD000F0E700BFFFF7D0FCA0EB0B0141F288303A
:100CE00081424BD897FAA7F0B0FA80F040F040006C
:100CF000B6EB501F01D128680BE097FAA7F0B0FAC5
:100D000080F040F04000B7EB501F01D1286A00E0AE
:100D1000686A97FAA7F1B1FA81F101F01F0106FAAA
:100D200001F21042D6D035E00010024000004242ED
:100D30000070004000E034E0FFF79EFC834607E0CF
:100D4000FFF79AFCA0EB0B0141F28830814215D8E5
:100D500097FAA7F0B0FA80F040F04000B6EB501FD1
:100D600001D128680CE097FAA7F0B0FA80F040F0C3
:100D70004000B7EB501F02D1286A01E083E0686AA7
:100D800097FAA7F1B1FA81F101F01F0106FA01F219
:100D90001042D5D1B9F1000F03D0E86920F080509E
:100DA000E861E06980B36968C1F38101022977D005
:100DB0004FF080714F00022809D091FAA1F0B0FAEB
:100DC00080F048F820A0FFF757FC04465EE050464C
:100DD0008A4691FAA1F1B1FA81F1C14648F82100A1
:100DE000FFF74AFC804605E0FFF746FCA0EB080051
:100DF000022848D897FAA7F0B0FA80F040F0200017
:100E0000400902D0286801E056E0686A97FAA7F125
:100E1000B1FA81F101F01F0106FA01F10842E3D1B4
:100E2000D4E908100843696821F474110843686024
:100E30009AFAAAF0B0FA80F049F82060FFF71CFC9B
:100E4000044604E0FFF718FC001B02281BD897FAA1
:100E5000A7F0B0FA80F040F02000400901D02868E7
:100E600000E0686A97FAA7F1B1FA81F101F01F0179
:100E700006FA01F10842E5D01EE000BFFFF7FCFBD7
:100E8000001B022802D90320BDE8F88F97FAA7F0CB
:100E9000B0FA80F040F02000400902D0286801E05C
:100EA0000CE0686A97FAA7F1B1FA81F101F01F012D
:100EB00006FA01F10842E1D10020E5E70120E3E76D
:100EC0002DE9F041040005D00025A56294F85D00ED
:100ED00018B107E00120BDE8F08184F85C5020469D
:100EE00000F04AF8022384F85D302068016821F0A0
:100EF00040010160E0684FF4E066B04201D9002192
:100F000001E04FF48051B0F5706F02D0B04200D0D4
:100F1000A562276B012227B9B04201D9236300E003
:100F20002263D4E901031843D4E904363343184358
:100F3000238B03F400731843E3691843236A1843AF
:100F4000A36A184323681860636B606AA669184334
:100F50000427E36807EA1646334318430843216829
:100F600048602068C16921F40061C161256684F888
:100F70005D200020AFE70000F0B587B004461421E3
:100F80006846FFF72EF92E4A216800252D480224D5
:100F900003260527914236D1816941F48051816150
:100FA000816901F480510591416941F40021416159
:100FB000416901F400210591416941F40031416129
:100FC000416901F400310591416941F480014161B9
:100FD0004069694600F48000059090158DE8F100A5
:100FE0001948FFF77FFAE0028DE8710006200490AF
:100FF00069464FF09040FFF775FA40208DE8F10008
:101000006946124818E0124A914217D1C16941F469
:101010008041C161C16901F480410591416941F498
:10102000802141614069694600F4802005904FF4B9
:1010300044408DE8F1000748FFF754FA07B0F0BDCF
:101040000030014000100240000800480014004831
:1010500000380040000400482DE9F84F044640687D
:101060000026984617460D464FF0040AB0F5827FD9
:1010700001D1A06890B194F85C00012819D04FF01C
:10108000010B84F85CB0FFF7F7FA009094F85D006C
:101090004FF0000901280ED002268EE084F85DA0F2
:1010A00013460A462046CDF8008000F047F9BDE817
:1010B000F88F0220FBE7002D7ED0002F7CD084F833
:1010C0005DA0C4F860902564A4F84470A4F846704C
:1010D000C4F83890A4F83C90A4F83E90C4F84C9022
:1010E000C4F85090E0684FF4E0618842206842689C
:1010F00002D922F4805201E042F480524260A0689A
:10110000B0F5004F04D12068026822F480420260EA
:1011100020680268520603D4026842F0400202606E
:10112000E068884219D939E020688168C90708D089
:10113000007B05F8010BB4F84600401EA4F84600F9
:101140000BE0B8F1000F26D0B8F1FF3F05D0FFF754
:1011500093FA0099411A41451DD2B4F8460000287F
:10116000E2D11FE020688168C90708D0C06825F86F
:10117000020BB4F84600401EA4F846000EE0B8F199
:10118000000F08D0B8F1FF3F08D0FFF775FA0099BB
:10119000411A414502D303260FE00DE0B4F84600A2
:1011A0000028DFD141462046009A00F0E8FC08B153
:1011B00020202066206E00B1012684F85DB084F8FE
:1011C0005C90304673E72DE9F84F044690F85C00D8
:1011D0000026984617460D4601280DD04FF0010A0B
:1011E00084F85CA0FFF748FA834694F85D00B146A6
:1011F000012804D002269BE00220BDE8F88F002DD4
:1012000073D0002F71D0032084F85D00C4F8609083
:10121000A563A787E787C4F84090A4F84490A4F892
:101220004690C4F85090C4F84C90A068B0F5004FB8
:1012300004D12068016841F48041016020680168A0
:10124000490603D4016841F040010160E068B0F54F
:10125000E06F606823D910B1E08F01281BD12168AD
:1012600035F8020BC86006E020688168890706D55A
:1012700035F8021BC160E08F401EE0870BE0B8F13B
:10128000000F3FD0B8F1FF3F05D0FFF7F5F9A0EB15
:101290000B01414536D2E08F0028E5D137E010B18F
:1012A000E08F012830D1E08F012804D9216835F87A
:1012B000020BC86010E0216815F8010B087311E0FB
:1012C000E08721E02068816889070FD5E18F012937
:1012D00005D935F8021BC160E08F801EF0E715F8D4
:1012E000011B0173E08F401EEAE720E0B8F1000F18
:1012F00008D0B8F1FF3F07D0FFF7BEF9A0EB0B0114
:10130000414501D3032613E0E08F0028DAD15A4685
:101310004146204600F06DFC08B120202066A06800
:1013200018B92068C16880680090206E00B101265D
:1013300084F85DA084F85C9030465EE72DE9F05FAC
:10134000044690F85C0000260A9F994692460D4696
:101350004FF0010801280ED0012084F85C00FFF74F
:101360008BF9834694F85D00616801280CD0B1F5D3
:10137000827F07D102E00220BDE8F09FA16809B991
:10138000042801D00226F0E0002D79D0BAF1000F38
:10139000FBD0B9F1000FF8D094F85D00042802D01A
:1013A000052084F85D0000202066C4F840A0A4F861
:1013B0004690A4F84490A563A4F83E90A4F83C900D
:1013C000E0642065E0684FF4E061884203D8B4F837
:1013D0004600012804D92068426822F4805203E0C4
:1013E0002068426842F480524260206802685206D7
:1013F00003D4026842F040020260E06888426068FC
:101400003FD910B1E08F012832D1216835F8020BA5
:10141000C860E08F401EE0872AE000BFB8F1000FEF
:101420000DD0E08F58B120688168890707D535F85D
:10143000021BC160E08F401EE0874FF00008B4F847
:10144000460068B120688168C90709D0C0682AF8D9
:10145000020BB4F84600401EA4F846004FF0010805
:10146000781C05D0FFF708F9A0EB0B00B84268D252
:10147000E08F0028D2D1B4F846000028CED169E030
:1014800072E010B1E08F01285DD1E08F012806D90C
:10149000216835F8020BC860E08F801E05E02068E7
:1014A00015F8011B0173E08F401EE0874BE000BF81
:1014B000B8F1000F16D0E08FA0B1206881688907CD
:1014C00010D5E18F012905D935F8021BC160E08FE5
:1014D000801E04E015F8011B0173E08F401EE087B9
:1014E0004FF00008B4F8460018B320688168C907B7
:1014F0001FD0B4F84610012911D9C0682AF8020B90
:10150000B4F84600801EA4F84600B4F8460001284E
:101510000DD82068416841F48051416007E0017BAB
:101520000AF8011BB4F84600401EA4F846004FF02C
:101530000108781C07D0FFF79FF8A0EB0B00B8421A
:1015400001D3032611E0E08F0028B1D1B4F84600A2
:101550000028ADD15A463946204600F04AFB08B172
:1015600020202066206E00B10126012084F85D0055
:10157000002084F85C003046FEE610B5401EB0F155
:10158000807F01D3012010BD4FF0E02460610F2166
:10159000601700F0E3FA0020A0610720206100201E
:1015A00010BDFEE72DE9F0471F46DDF820A090466C
:1015B0000C460546F02821D24FF4A0718C421DD272
:1015C00005EB0800A0F10109B9F1F00F16DAE619F0
:1015D000761E8E4212DA00F02BF9B3B21FFA89F2AE
:1015E0002146284600F02BF94FEA4801794350463E
:1015F00000F0B2F9BDE8F04700F04DB9BDE8F08762
:101600007FB500F015F9714D4FF4004400222146DA
:101610002846FFF72BF80520FEF752FF012221464E
:101620002846FFF723F8012000F082F94FF47A7082
:10163000FEF746FFCB2000F07BF965A1D1E9000160
:10164000CDE900010521684600F086F9CF2000F0C1
:101650006FF961A0032100680090684600F07CF9F2
:10166000E82000F065F95DA003210068009068465D
:1016700000F072F9EA2000F05BF9002402216846CC
:10168000009400F069F9ED2000F052F954A0042113
:1016900000680090684600F05FF9F72000F048F914
:1016A00050A0012100680090684600F055F9C02064
:1016B00000F03EF94CA0012100680090684600F05F
:1016C0004BF9C12000F034F948A0012100680090D6
:1016D000684600F041F9C52000F02AF944A0022133
:1016E00000680090684600F037F9C72000F020F944
:1016F00040A0012100680090684600F02DF93620D6
:1017000000F016F93CA0012100680090684600F046
:1017100023F93A2000F00CF938A00121006800906C
:10172000684600F019F9B12000F002F934A0022156
:1017300000680090684600F00FF9B62000F0F8F855
:1017400030A0032100680090684600F005F9F220FF
:1017500000F0EEF801216846009400F0FDF8262024
:1017600000F0E6F828A0012100680090684600F02B
:10177000F3F8E02000F0DCF824A00FC88DE80F009B
:101780000F21684600F0E8F8E12000F0D1F823A12D
:101790000FC98DE80F000F21684600F0DDF8112019
:1017A00000F0C6F87820FEF78BFE292000F0C0F884
:1017B000362000F0BDF81DA00121006800906846A9
:1017C00000F0CAF8BDE87F4000F065B8001000489E
:1017D000392C00340200000000C130008500780080
:1017E00064031281200000002300000010000000AC
:1017F0003E28000086000000480000005500000060
:101800000018000008822700010000000F312B0C97
:101810000E084EF1370710030E090000000E1403E6
:10182000110731C148080F0C31360F008800000045
:1018300000224FF400614FF09040FEF717BFF8B55B
:1018400007461C4615460E462A2000F071F8380A55
:101850008DF800008DF80170280A8DF802008DF8CF
:1018600003500421684600F077F82B2000F060F860
:10187000300A8DF800008DF80160200A8DF8020012
:101880008DF803400421684600F066F8BDE8F84092
:101890002C2000F04DB80122D1024FF09040FEF70D
:1018A000E5BE00000FB42DE9FF5FC3F307264A1E13
:1018B000324494B2DFB2DDE913A9421E3A4492B237
:1018C0002346FFF7BCFF00252CE01098203810FBC2
:1018D00006501299002409F0FF0B31F810804FEAEE
:1018E0001A2002900AF0FF0001904FEA19200090A0
:1018F00015E000BF08FA04F0000406D502988DF840
:101900000C0001988DF80D0004E000988DF80C0093
:101910008DF80DB0022103A800F01EF8641CA74248
:10192000E8D86D1CAE42D0D8BDE8FF1F5DF814FBAF
:1019300001B500224FF480410548FEF797FE4FF0B5
:10194000FF33012269460348FFF73DFC08BD000054
:1019500000100048AC0000202DE9F0410C4606467E
:10196000012291030C48FEF781FE4FF400474FF02F
:10197000FF380DE0BC4201D9384600E0204685B270
:1019800043462A4631460548FFF71DFC2E44641B9A
:10199000002CEFD1BDE8F08100100048AC00002021
:1019A0002DE9FE4F9846DDE90DA914460E46054681
:1019B000DDF830B0FFF73CFF08F0FF0719E07819B9
:1019C000F0280AD3C8F3072081198EB200253044CD
:1019D000B0F5A07F10D2202A0AD0CDF800B0CDE912
:1019E00001A9434631462846FFF75CFF781985B2C6
:1019F000641C2278002AE2D1BDE8FE4FFFF74BBFFE
:101A00002DE9F04387B014216846FEF7EAFB2F4822
:101A1000416941F480014161416901F4800105910E
:101A2000416941F400114161416901F400110591DE
:101A3000416941F480214161416901F480210591AE
:101A4000416941F400214161416901F4002105919E
:101A5000416941F40031416140691D4F00F400309B
:101A60004FF440440590002221463846FEF7FEFD23
:101A7000DFF86080002240214046FEF7F7FD4FF47A
:101A800000664FF09049002231464846FEF7EEFDD1
:101A90000125CDE9004500240294694638460394A7
:101AA000FEF720FD40200090CDE9015469464046F4
:101AB0000394FEF717FD0096CDE9015469464846A8
:101AC0000394FEF70FFD07B0BDE8F083001002405D
:101AD00000100048000800480E480D494FF4E0622D
:101AE00001604FF4827141600021C0E902124FF49D
:101AF00000720161C0E905120822C0E9072107232D
:101B00004162C0E90A13C0E90C12FFF7D9B900001D
:101B100000300140480000200E480D494FF4E062BB
:101B200001604FF4827141600021C0E902124FF45C
:101B300000720161C0E90512C161016207224162C0
:101B4000C0E90A12016308214163FFF7B9B9000037
:101B500000380040AC000020FEE770470907090E7E
:101B6000002806DA00F00F0000F1E02080F8141DD4
:101B7000704700F1E02080F80014704770472DE9AD
:101B8000F843044640684FF48276154689464FF480
:101B900000474FF48068B04209D1A068B84201D034
:101BA000404504D12068016821F0400101604B46A6
:101BB000002280212046009500F08EF880B96068F0
:101BC000B04214D1A068B84201D040450FD14B4675
:101BD00000224FF4C0612046009500F02EF830B18D
:101BE000206E40F0200020660320BDE8F88300202E
:101BF000FBE7F8B515460E460B4600920446002258
:101C00004FF4C05100F019F888B933460022802102
:101C10002046009500F060F848B9334600224FF4A2
:101C2000C0612046009500F008F8002804D0206E1E
:101C300040F0200020660320F8BD2DE9F8431D4642
:101C400017460E4604464FF4C068DDF820903CE08D
:101C5000464505D127B9007B8DF800009DF80000AE
:101C6000681C32D02DB1FEF707FDA0EB0900A84299
:101C70002BD32068416821F0E00141606068B0F535
:101C8000827F0BD1A068B0F5004F02D0B0F5806F15
:101C900004D12068016821F040010160A06AB0F51C
:101CA000005F09D12068016821F4005101602068BB
:101CB000016841F400510160012084F85D000020BA
:101CC00084F85C000320BDE8F88320688168314017
:101CD000B942BDD10020F6E72DE9F0411D46174677
:101CE0000E460446DDF8188034E0681C32D02DB171
:101CF000FEF7C2FCA0EB0800A8422BD32068416885
:101D000021F0E00141606068B0F5827F0BD1A068EE
:101D1000B0F5004F02D0B0F5806F04D120680168A3
:101D200021F040010160A06AB0F5005F09D1206890
:101D3000016821F4005101602068016841F40051FC
:101D40000160012084F85D00002084F85C0003201D
:101D5000BDE8F0812068806836EA000004D00020E9
:101D6000B842C2D10020F3E70120F9E77047FEF73F
:101D700089BC30B58FB028216846FEF732FA1421AD
:101D80000AA8FEF72EFA01210804CDE9001000246C
:101D9000029402250491CDE907504FF4E010099018
:101DA0006846FEF7C5FD0F20CDE90A056802CDE9BA
:101DB0000C4002210AA80E94FEF7E6FC0FB030BDDD
:101DC0001448016841F4700101601348016841F052
:101DD000010101604168114A114041600168104AE7
:101DE00011400160016821F480210160416821F403
:101DF000FE014160C16A21F00F01C162016B094A15
:101E000011400163002181600249C00380390860EC
:101E10007047000088ED00E0001002400CC07FF821
:101E2000FFFFF6FECCFC00FFFEE7000003498A69D5
:101E300042434889B2FBF0F07047000020000020C8
:101E400070B504461D4D01E0FEF73AFB95F82700FA
:101E500001284FF00100F7D085F8270000F0CCF9F9
:101E600028696043040100F01FFA154E002240214A
:101E70003046FEF7FBFBD82000F0AEF928780928A1
:101E800002D3200E00F0A8F9C4F3074000F0A4F933
:101E9000C4F3072000F0A0F9E0B200F09DF90122A0
:101EA00040213046FEF7E2FB00F0A6F90120FEF7E4
:101EB00007FB002085F8270070BD000020000020EF
:101EC000000800482DE9F0413D4C012684F82760C8
:101ED00002E00120FEF7F4FAFEF7CEFB6428F8D307
:101EE00000F0A4F8374987B244F2160308600821CD
:101EF000FA1A002548019F4230D00EDCA7F5804732
:101F0000A7F111074FF004024FF00203052F0ED284
:101F1000DFE807F035322F2C2800032A11D0042ADD
:101F20000AD06FF44053D21814D0012A0FD084F88D
:101F300027500020BDE8F0810A2121704FF4806114
:101F400003E0092121704FF40071E16119E0217073
:101F5000E06116E0072121708021F6E7062121705B
:101F60004021F2E7052121702021EEE722701021A7
:101F7000EBE703222270E8E72370E26101E02670BC
:101F8000E36160814FF480512161E1690901616180
:101F90000903B1FBF0F0E0604FF48030A061880AE3
:101FA000206200F0F1F8012000F0B8F8022000F003
:101FB000B5F8032000F0B2F884F827500120B9E703
:101FC00020000020080000202DE9F041164D0746B2
:101FD0001646A869984200D303B90346B04221D9F6
:101FE000F218824201D9841B00E01C460846FFF724
:101FF0001DFF01466889B6FBF0F201EB0208B6FB53
:10200000F0F100FB1166234632464146384600F0A7
:1020100031F8688908F10108811B641A0026074419
:10202000002CF0DCBDE8F081200000202DE9F0411B
:102030000F4E002240213046FEF718FB9F2000F093
:10204000CBF8A52000F0C8F80546A52000F0C4F89C
:102050000446A52000F0C0F8074601224021304682
:10206000FEF704FB280440EA04203843BDE8F08171
:10207000000800482DE9F0411C4616460F468046F0
:10208000234D01E0FEF71CFA95F8270001284FF0D8
:102090000100F7D085F827006889A04200D304B971
:1020A00004463119814200D9841B07FB0066194F91
:1020B000002240213846FEF7D9FA0B2000F08CF8B8
:1020C0002878092802D3300E00F086F8C6F30740BE
:1020D00000F082F8C6F3072000F07EF8F0B200F0BE
:1020E0007BF8002000F078F8A2B2642341460A4849
:1020F000FEF7B2FF012240213846FEF7B7FA012071
:10210000FEF7DEF9002085F82700BDE8F081000029
:1021100020000020000800484800002070B5184E3C
:102120000446002240213046FEF7A0FA154D012C4E
:1021300011D0022C19D0152000F04EF8A52000F087
:102140004BF8044685F82600012240213046FEF770
:102150008DFA204670BD052000F03EF8A52000F065
:102160003BF8044685F82400EEE7352000F034F80B
:10217000A52000F031F8044685F82500E4E70000CA
:10218000000800482000002070B5114D00224021B9
:102190002846FEF76BFA4B2000F01EF80024A5201D
:1021A00000F01AF8641CE4B2042CF8D3094E0024A1
:1021B000A52000F011F83119641CE4B24870082C15
:1021C000F6D32846BDE8704001224021FEF74EBA02
:1021D000000800482000002001B582B00A200090CD
:1021E000012301AA02A90348FFF7A8F89DF80400FB
:1021F0000EBD00004800002070B50120FEF760F918
:102200000E4D002240212846FEF730FA0520FFF748
:10221000E3FF0B4CA520FFF7DFFF84F8240001202B
:10222000FEF74EF994F82400C007F3D12846BDE824
:10223000704001224021FEF719BA00000008004852
:10224000200000202DE9F041164D07461646A869EA
:10225000984200D303B90346B04221D9F218824212
:1022600001D9841B00E01C460846FFF7DFFD01464C
:102270006889B6FBF0F201EB0208B6FBF0F100FB57
:102280001166234632464146384600F023F86889F5
:1022900008F10108811B641A00260744002CF0DCB9
:1022A000BDE8F0812000002010B5094C002240213B
:1022B0002046FEF7DBF90620FFF78EFF01224021C2
:1022C0002046FEF7D3F9BDE810400120FEF7F8B82C
:1022D000000800482DE9F0471D4616460F46814686
:1022E000264C01E0FEF7ECF894F8270001284FF0A7
:1022F0000100F7D084F827006089A919814200D82D
:1023000005B9851B7119814200D9851BFFF774FF40
:10231000FFF7CAFFDFF86880002240214046FEF741
:10232000A5F90220FFF758FF608907FB00662078B7
:10233000092802D3300EFFF74FFFC6F30740FFF71F
:102340004BFFC6F30720FFF747FFF0B2FFF744FF4C
:10235000AAB2642349460B48FEF735FF012240210B
:102360004046FEF783F9FFF747FF0120FEF7A8F884
:10237000002084F82700BDE8F0870000200000203E
:10238000000800484800002002E008C8121F08C1E9
:10239000002AFAD170477047002001E001C1121FE6
:1023A000002AFBD170477CB5054661B10A22684618
:1023B000FDF706FFDDE900142846FFF7F4FF30348F
:1023C0002C54401C7CBD00207CBD0000354886B0EC
:1023D00050210170512141706FF0FD0103A800F000
:1023E00071F8FEF757F9FFF7C4FCFFF709FBFFF799
:1023F00093FBFFF771FBFFF765FDFFF74CFAFFF763
:10240000FFF842F2FF010020CDE90101264827A292
:10241000416800910F2103680846FFF7C1FA24487C
:10242000002100904123F0220846FFF7BBF82C2042
:10243000FFF706FD2D20FFF703FD2E20FFF700FD1F
:102440002F20FFF7FDFC42F6E064234600222C21FA
:102450001848FFF7F7FE234600222D211648FFF704
:10246000F1FE234600222E211448FFF7EBFE2346FF
:1024700000222F211248FFF7E5FEFDF7FBFE4FF487
:102480007A742046FEF71CF8FDF764FF2046FEF73D
:1024900017F8FDF79BFF2046FEF712F8FDF7D2FF75
:1024A000FEE700000C0000200000002062726B00BC
:1024B0005032000830AC000810DB0008F0090108B9
:1024C000D038010870B505460446002906DA4FF0F9
:1024D0002D0004F8010BC1F1000104E003D14FF01D
:1024E000300004F8010B2046FFF75DFF0021215466
:1024F000284670BD00000000000000000000000041
:1025000000000000000000000000000000000000CB
:1025100000000000000000000000000C000C000C97
:10252000000C000C000C000C000C000C000C000C4B
:102530000000000C000C0000000000000000001B68
:10254000001B001B001B001B00000000000000001F
:10255000000000000000000000000000000000007B
:1025600000008019801980198019C07FC07F8019F0
:102570000033C07FC07F00330033003300330000DE
:10258000000000000000001E003F807580650074A0
:10259000003C001E00078005806580658075003F57
:1025A000001E0004000400000000007000D840D8A5
:1025B000C0D880D900730006000C801BC036C066EE
:1025C000C046C00680030000000000000000001E9E
:1025D000003F003300330033001E000CC03CC066D7
:1025E000806380618063C03E801C000000000000AA
:1025F0000000000C000C000C000C000C000000009F
:1026000000000000000000000000000000000000CA
:102610000000000080000001000300060006000426
:10262000000C000C000C000C000C000C0004000658
:102630000006000300018000002000100018000CBC
:10264000000C000400060006000600060006000656
:102650000004000C000C0018001000200000000C0A
:10266000002D003F001E00330000000000000000AD
:10267000000000000000000000000000000000005A
:10268000000000000000000C000C000C000CC0FF5B
:10269000C0FF000C000C000C000C0000000000004B
:1026A000000000000000000000000000000000002A
:1026B0000000000000000000000000000000000C0E
:1026C000000C0004000400080000000000000000EE
:1026D00000000000000000000000001E001E0000BE
:1026E00000000000000000000000000000000000EA
:1026F00000000000000000000000000000000000DA
:10270000000000000000000C000C000000000000B1
:102710000000000300030003000600060006000698
:10272000000C000C000C000C001800180018000031
:10273000000000000000001E003F00338061806147
:102740008061806D806D8061806180610033003FB9
:10275000001E00000000000000000006000E001E29
:1027600000360026000600060006000600060006E9
:102770000006000600060000000000000000001E29
:10278000003F807380618061800100030006000CBF
:10279000001800300060807F807F00000000000093
:1027A0000000001C003E006300630003000E000EEA
:1027B00000038001800180618073003F001E0000E3
:1027C0000000000000000006000E000E001E001EAB
:1027D0000016003600360066807F807F0006000607
:1027E00000060000000000000000007F007F006085
:1027F00000600060006E007F806380018001806166
:102800008073003F001E0000000000000000001E5A
:10281000003F803380610060006E007F80738061C4
:10282000806180618033003F001E000000000000D6
:102830000000807F807F8001000300030006000607
:10284000000C000C000C0008001800180018000014
:10285000000000000000001E003F80638061806176
:102860000021001E003F8061806180618061003F27
:10287000001E0000000000000000001E003F00736A
:102880008061806180618073803F801D80018061F4
:102890000073003F001E0000000000000000000068
:1028A000000000000000000C000C00000000000010
:1028B000000000000000000C000C00000000000000
:1028C000000000000000000000000000000C000CF0
:1028D00000000000000000000000000C000C0004DC
:1028E00000040008000000000000000080008003D9
:1028F000000E003800600038000E800380000000E9
:1029000000000000000000000000000000000000C7
:102910000000807F807F00000000807F807F0000BB
:1029200000000000000000000000000000000000A7
:102930000000000000400070001C0007800100073C
:10294000001C0070004000000000000000000000BB
:102950000000001F803FC071C060C000C001800344
:102960000007000E000C000C0000000C000C000022
:10297000000000000000001E003F80318071806375
:10298000806F806D806D806F806700600032003ED8
:10299000001C0000000000000000000E000E001BE4
:1029A000001B001B001B80318031803F803F803145
:1029B000C060C060C0600000000000000000007C3B
:1029C000007E0063006300630063007E007E00639E
:1029D000806180618063007F007E00000000000055
:1029E0000000001E003F80318061006000600060D8
:1029F00000600060006080618031003F001E0000C8
:102A0000000000000000007C007F006380638061A4
:102A10008061806180618061806100630063007E0D
:102A2000007C0000000000000000807F807F0060CC
:102A3000006000600060007F007F00600060006058
:102A40000060807F807F0000000000000000807F29
:102A5000807F0060006000600060007F007F006099
:102A60000060006000600060006000000000000086
:102A70000000001E003F8031806100600060006047
:102A800080638063806180618031803F001E000030
:102A900000000000000080618061806180618061D1
:102AA0008061807F807F80618061806180618061E2
:102AB00080610000000000000000003F003F000CAB
:102AC000000C000C000C000C000C000C000C000CA6
:102AD000000C003F003F00000000000000008001EB
:102AE00080018001800180018001800180018001DE
:102AF000806180618073003F001E000000000000C4
:102B00000000C0608061006300660066006C0078B1
:102B1000007C00660066006380618061C060000028
:102B200000000000000000600060006000600060C5
:102B30000060006000600060006000600060807FF6
:102B4000807F0000000000000000C071C071C07BE9
:102B5000C07AC06AC06AC06EC064C060C060C06035
:102B6000C060C060C0600000000000000000807114
:102B70008071807980798079806D806D806D8065CD
:102B800080678067806780638063000000000000CA
:102B90000000001E003F0033806180618061806121
:102BA00080618061806180610033003F001E000011
:102BB000000000000000007E007F80638061806173
:102BC00080618063007F007E0060006000600060C4
:102BD00000600000000000000000001E003F003305
:102BE00080618061806180618061806180658067D3
:102BF0000033803F401E0000000000000000007E07
:102C0000007F8063806180618063007F007E00665A
:102C10000063006380618061C0600000000000000C
:102C20000000000E001F8031803100300038001E8F
:102C300000078003806180618031003F001E00003A
:102C4000000000000000C0FFC0FF000C000C000CE2
:102C5000000C000C000C000C000C000C000C000C14
:102C6000000C0000000000000000806180618061B5
:102C7000806180618061806180618061806180614C
:102C80008073003F001E0000000000000000C060D4
:102C9000C060C060803180318031001B001B001B90
:102CA000001B000E000E000E0004000000000000DB
:102CB0000000C0C0C0C0C0C0C0C0C0C0C0CC804C3C
:102CC000804C805E80528052807380618061000001
:102CD000000000000000C0C0806080610033003B45
:102CE000001E000C000C001E001F003B8071806164
:102CF000C0C00000000000000000C0C08061806112
:102D000000330033001E001E000C000C000C000CF1
:102D1000000C000C000C0000000000000000803FD0
:102D2000803F8001000300030006000C000C001827
:102D3000001800300060807F807F000000000000ED
:102D4000000F000F000C000C000C000C000C000C1D
:102D5000000C000C000C000C000C000C000C000C13
:102D6000000F000F0000001800180018000C000CE5
:102D7000000C000C0006000600060006000300031D
:102D80000003000000000000001E001E00060006F8
:102D90000006000600060006000600060006000603
:102DA0000006000600060006001E001E0000000CC3
:102DB000000C001E001200330033806180610000AF
:102DC0000000000000000000000000000000000003
:102DD00000000000000000000000000000000000F3
:102DE00000000000000000000000000000000000E3
:102DF000E0FF0000000000380018000C0000000098
:102E000000000000000000000000000000000000C2
:102E100000000000000000000000000000000000B2
:102E20000000001F803F80618001801F803F806123
:102E30008063807FC0380000000000000000006058
:102E4000006000600060006E007F807380618061C0
:102E5000806180618073007F006E000000000000D0
:102E600000000000000000000000001E003F807312
:102E700080610060006080618073003F001E000080
:102E80000000000000008001800180018001801DA1
:102E9000803F807380618061806180618073803F4A
:102EA000801D000000000000000000000000000085
:102EB0000000001E003F00738061807F807F006003
:102EC0008071003F001E0000000000000000C007ED
:102ED000C00F000C000C807F807F000C000C000CE9
:102EE000000C000C000C000C000C000000000000A6
:102EF0000000000000000000801D803F80738061A2
:102F00008061806180618073803F801D800180636B
:102F1000007F003E00000060006000600060006F05
:102F2000807F80718061806180618061806180616B
:102F300080610000000000000000000600060000A4
:102F40000000003E003E00060006000600060006E7
:102F50000006000600060000000000000006000653
:102F600000000000003E003E0006000600060006CD
:102F7000000600060006000600060046007E003C33
:102F80000000006000600060006080610063006617
:102F9000006C007C0076006300638061C06000000C
:102FA000000000000000003E003E00060006000693
:102FB00000060006000600060006000600060006E1
:102FC00000060000000000000000000000000000FB
:102FD000000080DDC0FFC0CEC0CCC0CCC0CCC0CC17
:102FE000C0CCC0CCC0CC000000000000000000003D
:102FF000000000000000006F807F807180618061B0
:10300000806180618061806180610000000000005B
:1030100000000000000000000000001E003F807360
:1030200080618061806180618073003F001E0000CC
:10303000000000000000000000000000006E007FA3
:10304000807380618061806180618073007F006E29
:1030500000600060006000600000000000000000F0
:10306000801D803F8073806180618061806180739A
:10307000803F801D800180018001800100000000F0
:103080000000000000000067803F00390030003081
:103090000030003000300030003000000000000040
:1030A00000000000000000000000001E803F806162
:1030B0000060007F803F80018061007F001E000073
:1030C0000000000000000000000800180018007F49
:1030D000007F001800180018001800180018801F42
:1030E000800F000000000000000000000000000051
:1030F00000008061806180618061806180618061A9
:103100008063807F803D0000000000000000000020
:10311000000000000000C060803180318031001B61
:10312000001B001B000E000E000600000000000047
:103130000000000000000000000080DD80DD80DD78
:10314000005500550055007700770022002200004E
:10315000000000000000000000000000000080618E
:1031600000330033001E000C000C001E003300333F
:10317000806100000000000000000000000000006E
:1031800080618061803100330033001B001B001B15
:10319000000E000E000E001C007C007000000000FD
:1031A000000000000000C07FC07F80010003000617
:1031B000000C00180030C07FC07F0000000000003D
:1031C0008003800700060006000600060006000EC9
:1031D000001C001C000E000600060006000600068B
:1031E00080078003000600060006000600060006B1
:1031F000000600060006000600060006000600069F
:1032000000060006000600060038003C000C000C1A
:10321000000C000C000C000E00070007000E000C54
:10322000000C000C000C000C003C003800000000FA
:10323000000000000000000000008038807F004790
:10324000000000000000000000000000000000007E
:10325000FFFFFFFFFFFFFFFFFFFFFFFFFFFFFFFF7E
:10326000FFFFFFFFFFFFFFFFFFFFFFFFFFFFFFFF6E
:10327000FFFFFFFFFFFFFFFFFFFFFFFFFFFFFFFF5E
:10491000FFFFFFFFFFFFFFFFFFDFE75DCEBCB63B02
:10492000A5DA9DB99DB9A5DAB63BC6BCDF5EFFDF4F
:10493000FFFFFFFFFFFFFFFFFFFFFFFFFFFFFFFF87
:10494000FFFFFFFFFFFFFFFFFFFFFFFFFFFFFFFF77
:10495000FFFFFFFFFFFFFFFFFFFFFFFFFFFFFFFF67
:10496000FFFFFFFFFFFFFFFFFFFFFFFFFFFFFFFF57
:10497000FFFFFFFFFFFFFFFFFFFFFFFFFFFFFFFF47
:10498000FFFFFFFFFFFFFFFFFFFFFFFFFFFFFFFF37
:10499000FFFFFFFFFFFFFFFFFFFFFFFFFFFFFFFF27
:1049A000FFFFFFFFFFFFFFFFFFFFFFFFFFFFFFFF17
:1049B000FFFFFFFFFFFFFFFFFFFFFFFFFFFFFFFF07
:1049C000FFFFFFFFFFFFFFFFFFFFFFFFFFFFFFFFF7
:1049D000FFFFFFFFFFFFFFFFFFFFFFFFFFFFFFFFE7
:1049E000FFFFFFFFFFFFFFFFFFFFFFFFFFFFFFFFD7
:1049F000FFFFFFFFFFFFFFFFFFFFFFFFFFFFFFFFC7
:104A0000FFFFFFFFFFFFFFFFFFFFFFFFFFFFFFFFB6
:104A1000FFFFFFFFFFFFFFFFFFFFFFFFFFFFFFFFA6
:104A2000FFFFFFFFFFFFFFFFFFFFFFFFFFFFFFFF96
:104A3000FFFFFFFFFFFFFFFFFFFFFFFFFFFFFFFF86
:104A4000FFFFFFFFFFFFFFFFFFFFFFFFFFFFFFFF76
:104A5000FFFFFFFFFFFFFFFFFFFFFFFFFFFFFFFF66
:104A6000FFFFFFFFFFFFFFFFFFFFFFFFFFFFFFFF56
:104A7000FFFFFFFFFFFFFFFFFFFFFFFFFFFFFFFF46
:104A8000FFFFFFFFFFFFFFFFFFFFFFFFFFFFFFFF36
:104A9000FFFFFFFFFFFFFFFFFFFFFFFFFFFFFFFF26
:104AA000FFFFFFFFFFFFFFFFFFFFFFFFFFFFFFFF16
:104AB000FFFFFFFFFFFFFFFFFFFFFFFFFFFFFFFF06
:104AC000FFFFFFFFFFFFFFFFFFFFFFFFFFFFFFFFF6
:104AD000FFFFFFFFFFFFFFFFFFFFFFFFFFFFFFFFE6
:104AE000FFFFFFFFFFFFFFFFFFFFFFFFFFFFFFFFD6
:104AF000FFFFCEDD8D795C152B331292025102310E
:104B0000021002100210021002300A5112912B13EF
:104B100054158D58CEBCFFFFFFFFFFFFFFFFFFFFC7
:104B2000FFFFFFFFFFFFFFFFFFFFFFFFFFFFFFFF95
:104B3000FFFFFFFFFFFFFFFFFFFFFFFFFFFFFFFF85
:104B4000FFFFFFFFFFFFFFFFFFFFFFFFFFFFFFFF75
:104B5000FFFFFFFFFFFFFFFFFFFFFFFFFFFFFFFF65
:104B6000FFFFFFFFFFFFFFFFFFFFFFFFFFFFFFFF55
:104B7000FFFFFFFFFFFFFFFFFFFFFFFFFFFFFFFF45
:104B8000FFFFFFFFFFFFFFFFFFFFFFFFFFFFFFFF35
:104B9000FFFFFFFFFFFFFFFFFFFFFFFFFFFFFFFF25
:104BA000FFFFFFFFFFFFFFFFFFFFFFFFFFFFFFFF15
:104BB000FFFFFFFFFFFFFFFFFFFFFFFFFFFFFFFF05
:104BC000FFFFFFFFFFFFFFFFFFFFFFFFFFFFFFFFF5
:104BD000FFFFFFFFFFFFFFFFFFFFFFFFFFFFFFFFE5
:104BE000FFFFFFFFFFFFFFFFFFFFFFFFFFFFFFFFD5
:104BF000FFFFFFFFFFFFFFFFFFFFFFFFFFFFFFFFC5
:104C0000FFFFFFFFFFFFFFFFFFFFFFFFFFFFFFFFB4
:104C1000FFFFFFFFFFFFFFFFFFFFFFFFFFFFFFFFA4
:104C2000FFFFFFFFFFFFFFFFFFFFFFFFFFFFFFFF94
:104C3000FFFFFFFFFFFFFFFFFFFFFFFFFFFFFFFF84
:104C4000FFFFFFFFFFFFFFFFFFFFFFFFFFFFFFFF74
:104C5000FFFFFFFFFFFFFFFFFFFFFFFFFFFFFFFF64
:104C6000FFFFFFFFFFFFFFFFFFFFFFFFFFFFFFFF54
:104C7000FFFFFFFFFFFFFFFFFFFFFFFFFFFFFFFF44
:104C8000FFFFFFFFFFFFFFFFFFFFFFFFFFFFFFFF34
:104C9000FFFFFFFFFFFFFFFFFFFFFFFFFFFFFFFF24
:104CA000FFFFFFFFFFFFFFFFFFFFFFFFFFFFFFFF14
:104CB000FFFFFFFFFFFFFFFFFFFFFFFFFFFFFFFF04
:104CC000FFFFFFFFFFFFFFFFFFFFFFFFDF3E8D58EE
:104CD0003B731291021002100A511271127112717B
:104CE00012911291129112911271127112710A5154
:104CF000023002100A5133538518D71DFFFFFFFF02
:104D0000FFFFFFFFFFFFFFFFFFFFFFFFFFFFFFFFB3
:104D1000FFFFFFFFFFFFFFFFFFFFFFFFFFFFFFFFA3
:104D2000FFFFFFFFFFFFFFFFFFFFFFFFFFFFFFFF93
:104D3000FFFFFFFFFFFFFFFFFFFFFFFFFFFFFFFF83
:104D4000FFFFFFFFFFFFFFFFFFFFFFFFFFFFFFFF73
:104D5000FFFFFFFFFFFFFFFFFFFFFFFFFFFFFFFF63
:104D6000FFFFFFFFFFFFFFFFFFFFFFFFFFFFFFFF53
:104D7000FFFFFFFFFFFFFFFFFFFFFFFFFFFFFFFF43
:104D8000FFFFFFFFFFFFFFFFFFFFFFFFFFFFFFFF33
:104D9000FFFFFFFFFFFFFFFFFFFFFFFFFFFFFFFF23
:104DA000FFFFFFFFFFFFFFFFFFFFFFFFFFFFFFFF13
:104DB000FFFFFFFFFFFFFFFFFFFFFFFFFFFFFFFF03
:104DC000FFFFFFFFFFFFFFFFFFFFFFFFFFFFFFFFF3
:104DD000FFFFFFFFFFFFFFFFFFFFFFFFFFFFFFFFE3
:104DE000FFFFFFFFFFFFFFFFFFFFFFFFFFFFFFFFD3
:104DF000FFFFFFFFFFFFFFFFFFFFFFFFFFFFFFFFC3
:104E0000FFFFFFFFFFFFFFFFFFFFFFFFFFFFFFFFB2
:104E1000FFFFFFFFFFFFFFFFFFFFFFFFFFFFFFFFA2
:104E2000FFFFFFFFFFFFFFFFFFFFFFFFFFFFFFFF92
:104E3000FFFFFFFFFFFFFFFFFFFFFFFFFFFFFFFF82
:104E4000FFFFFFFFFFFFFFFFFFFFFFFFFFFFFFFF72
:104E5000FFFFFFFFFFFFFFFFFFFFFFFFFFFFFFFF62
:104E6000FFFFFFFFFFFFFFFFFFFFFFFFFFFFFFFF52
:104E7000FFFFFFFFFFFFFFFFFFFFFFFFFFFFFFFF42
:104E8000FFFFFFFFFFFFFFFFFFFFFFFFFFFFFFFF32
:104E9000FFFFFFFFFFFFFFFFFFFFFFFFFFFFFFFF22
:104EA000FFFFFFFFFFFFFFFFDF1D6C961292021056
:104EB00001EFA5DA4BD50230129112711271127105
:104EC00012711271127112711271127112911271AA
:104ED0001291129112710A51021012915C56CEDD9C
:104EE000FFFFFFFFFFFFFFFFFFFFFFFFFFFFFFFFD2
:104EF000FFFFFFFFFFFFFFFFFFFFFFFFFFFFFFFFC2
:104F0000FFFFFFFFFFFFFFFFFFFFFFFFFFFFFFFFB1
:104F1000FFFFFFFFFFFFFFFFFFFFFFFFFFFFFFFFA1
:104F2000FFFFFFFFFFFFFFFFFFFFFFFFFFFFFFFF91
:104F3000FFFFFFFFFFFFFFFFFFFFFFFFFFFFFFFF81
:104F4000FFFFFFFFFFFFFFFFFFFFFFFFFFFFFFFF71
:104F5000FFFFFFFFFFFFFFFFFFFFFFFFFFFFFFFF61
:104F6000FFFFFFFFFFFFFFFFFFFFFFFFFFFFFFFF51
:104F7000FFFFFFFFFFFFFFFFFFFFFFFFFFFFFFFF41
:104F8000FFFFFFFFFFFFFFFFFFFFFFFFFFFFFFFF31
:104F9000FFFFFFFFFFFFFFFFFFFFFFFFFFFFFFFF21
:104FA000FFFFFFFFFFFFFFFFFFFFFFFFFFFFFFFF11
:104FB000FFFFFFFFFFFFFFFFFFFFFFFFFFFFFFFF01
:104FC000FFFFFFFFFFFFFFFFFFFFFFFFFFFFFFFFF1
:104FD000FFFFFFFFFFFFFFFFFFFFFFFFFFFFFFFFE1
:104FE000FFFFFFFFFFFFFFFFFFFFFFFFFFFFFFFFD1
:104FF000FFFFFFFFFFFFFFFFFFFFFFFFFFFFFFFFC1
:10500000FFFFFFFFFFFFFFFFFFFFFFFFFFFFFFFFB0
:10501000FFFFFFFFFFFFFFFFFFFFFFFFFFFFFFFFA0
:10502000FFFFFFFFFFFFFFFFFFFFFFFFFFFFFFFF90
:10503000FFFFFFFFFFFFFFFFFFFFFFFFFFFFFFFF80
:10504000FFFFFFFFFFFFFFFFFFFFFFFFFFFFFFFF70
:10505000FFFFFFFFFFFFFFFFFFFFFFFFFFFFFFFF60
:10506000FFFFFFFFFFFFFFFFFFFFFFFFFFFFFFFF50
:10507000FFFFFFFFFFFFFFFFFFFFFFFFFFFFFFFF40
:10508000FFFFFFFFF7BF7CF7129102100A710A5170
:105090003353FFFF9DDA02101291127112711271D7
:1050A00012711271127112711271127112711271E8
:1050B00012711271127112711271127102100A7151
:1050C0006C96EF7EFFFFFFFFFFFFFFFFFFFFFFFF7D
:1050D000FFFFFFFFFFFFFFFFFFFFFFFFFFFFFFFFE0
:1050E000FFFFFFFFFFFFFFFFFFFFFFFFFFFFFFFFD0
:1050F000FFFFFFFFFFFFFFFFFFFFFFFFFFFFFFFFC0
:10510000FFFFFFFFFFFFFFFFFFFFFFFFFFFFFFFFAF
:10511000FFFFFFFFFFFFFFFFFFFFFFFFFFFFFFFF9F
:10512000FFFFFFFFFFFFFFFFFFFFFFFFFFFFFFFF8F
:10513000FFFFFFFFFFFFFFFFFFFFFFFFFFFFFFFF7F
:10514000FFFFFFFFFFFFFFFFFFFFFFFFFFFFFFFF6F
:10515000FFFFFFFFFFFFFFFFFFFFFFFFFFFFFFFF5F
:10516000FFFFFFFFFFFFFFFFFFFFFFFFFFFFFFFF4F
:10517000FFFFFFFFFFFFFFFFFFFFFFFFFFFFFFFF3F
:10518000FFFFFFFFFFFFFFFFFFFFFFFFFFFFFFFF2F
:10519000FFFFFFFFFFFFFFFFFFFFFFFFFFFFFFFF1F
:1051A000FFFFFFFFFFFFFFFFFFFFFFFFFFFFFFFF0F
:1051B000FFFFFFFFFFFFFFFFFFFFFFFFFFFFFFFFFF
:1051C000FFFFFFFFFFFFFFFFFFFFFFFFFFFFFFFFEF
:1051D000FFFFFFFFFFFFFFFFFFFFFFFFFFFFFFFFDF
:1051E000FFFFFFFFFFFFFFFFFFFFFFFFFFFFFFFFCF
:1051F000FFFFFFFFFFFFFFFFFFFFFFFFFFFFFFFFBF
:10520000FFFFFFFFFFFFFFFFFFFFFFFFFFFFFFFFAE
:10521000FFFFFFFFFFFFFFFFFFFFFFFFFFFFFFFF9E
:10522000FFFFFFFFFFFFFFFFFFFFFFFFFFFFFFFF8E
:10523000FFFFFFFFFFFFFFFFFFFFFFFFFFFFFFFF7E
:10524000FFFFFFFFFFFFFFFFFFFFFFFFFFFFFFFF6E
:10525000FFFFFFFFFFFFFFFFFFFFFFFFFFFFFFFF5E
:10526000FFFFBE7B2B1302100A71129112910210E4
:105270009DDAFFFFF79F22F30A511271127112712A
:105280001271127112711271127112711271127106
:1052900012711271127112711271127112911271D6
:1052A000021022D2AE1BFFFFFFFFFFFFFFFFFFFF39
:1052B000FFFFFFFFFFFFFFFFFFFFFFFFFFFFFFFFFE
:1052C000FFFFFFFFFFFFFFFFFFFFFFFFFFFFFFFFEE
:1052D000FFFFFFFFFFFFFFFFFFFFFFFFFFFFFFFFDE
:1052E000FFFFFFFFFFFFFFFFFFFFFFFFFFFFFFFFCE
:1052F000FFFFFFFFFFFFFFFFFFFFFFFFFFFFFFFFBE
:10530000FFFFFFFFFFFFFFFFFFFFFFFFFFFFFFFFAD
:10531000FFFFFFFFFFFFFFFFFFFFFFFFFFFFFFFF9D
:10532000FFFFFFFFFFFFFFFFFFFFFFFFFFFFFFFF8D
:10533000FFFFFFFFFFFFFFFFFFFFFFFFFFFFFFFF7D
:10534000FFFFFFFFFFFFFFFFFFFFFFFFFFFFFFFF6D
:10535000FFFFFFFFFFFFFFFFFFFFFFFFFFFFFFFF5D
:10536000FFFFFFFFFFFFFFFFFFFFFFFFFFFFFFFF4D
:10537000FFFFFFFFFFFFFFFFFFFFFFFFFFFFFFFF3D
:10538000FFFFFFFFFFFFFFFFFFFFFFFFFFFFFFFF2D
:10539000FFFFFFFFFFFFFFFFFFFFFFFFFFFFFFFF1D
:1053A000FFFFFFFFFFFFFFFFFFFFFFFFFFFFFFFF0D
:1053B000FFFFFFFFFFFFFFFFFFFFFFFFFFFFFFFFFD
:1053C000FFFFFFFFFFFFFFFFFFFFFFFFFFFFFFFFED
:1053D000FFFFFFFFFFFFFFFFFFFFFFFFFFFFFFFFDD
:1053E000FFFFFFFFFFFFFFFFFFFFFFFFFFFFFFFFCD
:1053F000FFFFFFFFFFFFFFFFFFFFFFFFFFFFFFFFBD
:10540000FFFFFFFFFFFFFFFFFFFFFFFFFFFFFFFFAC
:10541000FFFFFFFFFFFFFFFFFFFFFFFFFFFFFFFF9C
:10542000FFFFFFFFFFFFFFFFFFFFFFFFFFFFFFFF8C
:10543000FFFFFFFFFFFFFFFFFFFFFFFFFFFFFFFF7C
:105440008D5802300A311291129112710A512B3388
:10545000F7DFFFFFFFFF8D590210129112711271D9
:105460001271127112711271127112711271127124
:105470001271127112710A7112711271127112711C
:1054800012910A51023074D7FFFFFFFFFFFFFFFFA9
:10549000FFFFFFFFFFFFFFFFFFFFFFFFFFFFFFFF1C
:1054A000FFFFFFFFFFFFFFFFFFFFFFFFFFFFFFFF0C
:1054B000FFFFFFFFFFFFFFFFFFFFFFFFFFFFFFFFFC
:1054C000FFFFFFFFFFFFFFFFFFFFFFFFFFFFFFFFEC
:1054D000FFFFFFFFFFFFFFFFFFFFFFFFFFFFFFFFDC
:1054E000FFFFFFFFFFFFFFFFFFFFFFFFFFFFFFFFCC
:1054F000FFFFFFFFFFFFFFFFFFFFFFFFFFFFFFFFBC
:10550000FFFFFFFFFFFFFFFFFFFFFFFFFFFFFFFFAB
:10551000FFFFFFFFFFFFFFFFFFFFFFFFFFFFFFFF9B
:10552000FFFFFFFFFFFFFFFFFFFFFFFFFFFFFFFF8B
:10553000FFFFFFFFFFFFFFFFFFFFFFFFFFFFFFFF7B
:10554000FFFFFFFFFFFFFFFFFFFFFFFFFFFFFFFF6B
:10555000FFFFFFFFFFFFFFFFFFFFFFFFFFFFFFFF5B
:10556000FFFFFFFFFFFFFFFFFFFFFFFFFFFFFFFF4B
:10557000FFFFFFFFFFFFFFFFFFFFFFFFFFFFFFFF3B
:10558000FFFFFFFFFFFFFFFFFFFFFFFFFFFFFFFF2B
:10559000FFFFFFFFFFFFFFFFFFFFFFFFFFFFFFFF1B
:1055A000FFFFFFFFFFFFFFFFFFFFFFFFFFFFFFFF0B
:1055B000FFFFFFFFFFFFFFFFFFFFFFFFFFFFFFFFFB
:1055C000FFFFFFFFFFFFFFFFFFFFFFFFFFFFFFFFEB
:1055D000FFFFFFFFFFFFFFFFFFFFFFFFFFFFFFFFDB
:1055E000FFFFFFFFFFFFFFFFFFFFFFFFFFFFFFFFCB
:1055F000FFFFFFFFFFFFFFFFFFFFFFFFFFFFFFFFBB
:10560000FFFFFFFFFFFFFFFFFFFFFFFFFFFFFFFFAA
:10561000FFFFFFFFFFFFFFFFFFFFFFFFFFFF6476BE
:1056200002101271129112711271127102109DB951
:10563000FFFFFFDFFFFFEF9E22F20A51127112718E
:105640001271127112711271127112711271127142
:105650001271127112711271127112711271127132
:1056600012711271127102105415F7DFFFFFFFFF64
:10567000FFFFFFFFFFFFFFFFFFFFFFFFFFFFFFFF3A
:10568000FFFFFFFFFFFFFFFFFFFFFFFFFFFFFFFF2A
:10569000FFFFFFFFFFFFFFFFFFFFFFFFFFFFFFFF1A
:1056A000FFFFFFFFFFFFFFFFFFFFFFFFFFFFFFFF0A
:1056B000FFFFFFFFFFFFFFFFFFFFFFFFFFFFFFFFFA
:1056C000FFFFFFFFFFFFFFFFFFFFFFFFFFFFFFFFEA
:1056D000FFFFFFFFFFFFFFFFFFFFFFFFFFFFFFFFDA
:1056E000FFFFFFFFFFFFFFFFFFFFFFFFFFFFFFFFCA
:1056F000FFFFFFFFFFFFFFFFFFFFFFFFFFFFFFFFBA
:10570000FFFFFFFFFFFFFFFFFFFFFFFFFFFFFFFFA9
:10571000FFFFFFFFFFFFFFFFFFFFFFFFFFFFFFFF99
:10572000FFFFFFFFFFFFFFFFFFFFFFFFFFFFFFFF89
:10573000FFFFFFFFFFFFFFFFFFFFFFFFFFFFFFFF79
:10574000FFFFFFFFFFFFFFFFFFFFFFFFFFFFFFFF69
:10575000FFFFFFFFFFFFFFFFFFFFFFFFFFFFFFFF59
:10576000FFFFFFFFFFFFFFFFFFFFFFFFFFFFFFFF49
:10577000FFFFFFFFFFFFFFFFFFFFFFFFFFFFFFFF39
:10578000FFFFFFFFFFFFFFFFFFFFFFFFFFFFFFFF29
:10579000FFFFFFFFFFFFFFFFFFFFFFFFFFFFFFFF19
:1057A000FFFFFFFFFFFFFFFFFFFFFFFFFFFFFFFF09
:1057B000FFFFFFFFFFFFFFFFFFFFFFFFFFFFFFFFF9
:1057C000FFFFFFFFFFFFFFFFFFFFFFFFFFFFFFFFE9
:1057D000FFFFFFFFFFFFFFFFFFFFFFFFFFFFFFFFD9
:1057E000FFFFFFFFFFFFFFFFFFFFFFFFFFFFFFFFC9
:1057F000FFFFFFFFFFFFFFFFFFFFFFFF5C36021011
:1058000012910A7112710A7112710A512B13F7BFAA
:10581000FFFFFFFFFFFFFFFF8D5802101291127173
:105820001271127112711271127112711271127160
:105830001271127112711271127112711271127150
:1058400012710A711271129102104BD5F7DFFFFF2E
:10585000FFFFFFFFFFFFFFFFFFFFFFFFFFFFFFFF58
:10586000FFFFFFFFFFFFFFFFFFFFFFFFFFFFFFFF48
:10587000FFFFFFFFFFFFFFFFFFFFFFFFFFFFFFFF38
:10588000FFFFFFFFFFFFFFFFFFFFFFFFFFFFFFFF28
:10589000FFFFFFFFFFFFFFFFFFFFFFFFFFFFFFFF18
:1058A000FFFFFFFFFFFFFFFFFFFFFFFFFFFFFFFF08
:1058B000FFFFFFFFFFFFFFFFFFFFFFFFFFFFFFFFF8
:1058C000FFFFFFFFFFFFFFFFFFFFFFFFFFFFFFFFE8
:1058D000FFFFFFFFFFFFFFFFFFFFFFFFFFFFFFFFD8
:1058E000FFFFFFFFFFFFFFFFFFFFFFFFFFFFFFFFC8
:1058F000FFFFFFFFFFFFFFFFFFFFFFFFFFFFFFFFB8
:10590000FFFFFFFFFFFFFFFFFFFFFFFFFFFFFFFFA7
:10591000FFFFFFFFFFFFFFFFFFFFFFFFFFFFFFFF97
:10592000FFFFFFFFFFFFFFFFFFFFFFFFFFFFFFFF87
:10593000FFFFFFFFFFFFFFFFFFFFFFFFFFFFFFFF77
:10594000FFFFFFFFFFFFFFFFFFFFFFFFFFFFFFFF67
:10595000FFFFFFFFFFFFFFFFFFFFFFFFFFFFFFFF57
:10596000FFFFFFFFFFFFFFFFFFFFFFFFFFFFFFFF47
:10597000FFFFFFFFFFFFFFFFFFFFFFFFFFFFFFFF37
:10598000FFFFFFFFFFFFFFFFFFFFFFFFFFFFFFFF27
:10599000FFFFFFFFFFFFFFFFFFFFFFFFFFFFFFFF17
:1059A000FFFFFFFFFFFFFFFFFFFFFFFFFFFFFFFF07
:1059B000FFFFFFFFFFFFFFFFFFFFFFFFFFFFFFFFF7
:1059C000FFFFFFFFFFFFFFFFFFFFFFFFFFFFFFFFE7
:1059D000FFFFFFFFFFFFFFFFFFFF6C9701F012913A
:1059E0001271127112711271129102109579FFFFEA
:1059F000FFFFFFFFFFFFFFFFEF9E22D20A51127150
:105A0000127112711271127112711271127112717E
:105A1000127112711271127112711271127112716E
:105A20001271127112710A71129102105415FFFF56
:105A3000FFFFFFFFFFFFFFFFFFFFFFFFFFFFFFFF76
:105A4000FFFFFFFFFFFFFFFFFFFFFFFFFFFFFFFF66
:105A5000FFFFFFFFFFFFFFFFFFFFFFFFFFFFFFFF56
:105A6000FFFFFFFFFFFFFFFFFFFFFFFFFFFFFFFF46
:105A7000FFFFFFFFFFFFFFFFFFFFFFFFFFFFFFFF36
:105A8000FFFFFFFFFFFFFFFFFFFFFFFFFFFFFFFF26
:105A9000FFFFFFFFFFFFFFFFFFFFFFFFFFFFFFFF16
:105AA000FFFFFFFFFFFFFFFFFFFFFFFFFFFFFFFF06
:105AB000FFFFFFFFFFFFFFFFFFFFFFFFFFFFFFFFF6
:105AC000FFFFFFFFFFFFFFFFFFFFFFFFFFFFFFFFE6
:105AD000FFFFFFFFFFFFFFFFFFFFFFFFFFFFFFFFD6
:105AE000FFFFFFFFFFFFFFFFFFFFFFFFFFFFFFFFC6
:105AF000FFFFFFFFFFFFFFFFFFFFFFFFFFFFFFFFB6
:105B0000FFFFFFFFFFFFFFFFFFFFFFFFFFFFFFFFA5
:105B1000FFFFFFFFFFFFFFFFFFFFFFFFFFFFFFFF95
:105B2000FFFFFFFFFFFFFFFFFFFFFFFFFFFFFFFF85
:105B3000FFFFFFFFFFFFFFFFFFFFFFFFFFFFFFFF75
:105B4000FFFFFFFFFFFFFFFFFFFFFFFFFFFFFFFF65
:105B5000FFFFFFFFFFFFFFFFFFFFFFFFFFFFFFFF55
:105B6000FFFFFFFFFFFFFFFFFFFFFFFFFFFFFFFF45
:105B7000FFFFFFFFFFFFFFFFFFFFFFFFFFFFFFFF35
:105B8000FFFFFFFFFFFFFFFFFFFFFFFFFFFFFFFF25
:105B9000FFFFFFFFFFFFFFFFFFFFFFFFFFFFFFFF15
:105BA000FFFFFFFFFFFFFFFFFFFFFFFFFFFFFFFF05
:105BB000FFFFFFFFFFFFFFFF8D59021012911271CF
:105BC00012711271127112710A5122F2F79FFFFFC6
:105BD000FFFFFFFFFFFFFFFFFFFF8D580210129135
:105BE000127112711271127112711271127112719D
:105BF00012710A7112711271127112711271127195
:105C000012711271127112711271129101F07CF8FD
:105C1000FFFFFFFFFFFFFFFFFFFFFFFFFFFFFFFF94
:105C2000FFFFFFFFFFFFFFFFFFFFFFFFFFFFFFFF84
:105C3000FFFFFFFFFFFFFFFFFFFFFFFFFFFFFFFF74
:105C4000FFFFFFFFFFFFFFFFFFFFFFFFFFFFFFFF64
:105C5000FFFFFFFFFFFFFFFFFFFFFFFFFFFFFFFF54
:105C6000FFFFFFFFFFFFFFFFFFFFFFFFFFFFFFFF44
:105C7000FFFFFFFFFFFFFFFFFFFFFFFFFFFFFFFF34
:105C8000FFFFFFFFFFFFFFFFFFFFFFFFFFFFFFFF24
:105C9000FFFFFFFFFFFFFFFFFFFFFFFFFFFFFFFF14
:105CA000FFFFFFFFFFFFFFFFFFFFFFFFFFFFFFFF04
:105CB000FFFFFFFFFFFFFFFFFFFFFFFFFFFFFFFFF4
:105CC000FFFFFFFFFFFFFFFFFFFFFFFFFFFFFFFFE4
:105CD000FFFFFFFFFFFFFFFFFFFFFFFFFFFFFFFFD4
:105CE000FFFFFFFFFFFFFFFFFFFFFFFFFFFFFFFFC4
:105CF000FFFFFFFFFFFFFFFFFFFFFFFFFFFFFFFFB4
:105D0000FFFFFFFFFFFFFFFFFFFFFFFFFFFFFFFFA3
:105D1000FFFFFFFFFFFFFFFFFFFFFFFFFFFFFFFF93
:105D2000FFFFFFFFFFFFFFFFFFFFFFFFFFFFFFFF83
:105D3000FFFFFFFFFFFFFFFFFFFFFFFFFFFFFFFF73
:105D4000FFFFFFFFFFFFFFFFFFFFFFFFFFFFFFFF63
:105D5000FFFFFFFFFFFFFFFFFFFFFFFFFFFFFFFF53
:105D6000FFFFFFFFFFFFFFFFFFFFFFFFFFFFFFFF43
:105D7000FFFFFFFFFFFFFFFFFFFFFFFFFFFFFFFF33
:105D8000FFFFFFFFFFFFFFFFFFFFFFFFFFFFFFFF23
:105D9000FFFFFFFFFFFFC6BC0A51127112711271A3
:105DA000127112711271129102108D58FFFFFFFFD4
:105DB000FFFFFFFFFFFFFFFFFFFFEF9E1AD20A5119
:105DC00012711271127112711271127112711271BB
:105DD00012711271127112711271127112711271AB
:105DE00012711271127112711271127112910230CC
:105DF000B65BFFFFFFFFFFFFFFFFFFFFFFFFFFFFA0
:105E0000FFFFFFFFFFFFFFFFFFFFFFFFFFFFFFFFA2
:105E1000FFFFFFFFFFFFFFFFFFFFFFFFFFFFFFFF92
:105E2000FFFFFFFFFFFFFFFFFFFFFFFFFFFFFFFF82
:105E3000FFFFFFFFFFFFFFFFFFFFFFFFFFFFFFFF72
:105E4000FFFFFFFFFFFFFFFFFFFFFFFFFFFFFFFF62
:105E5000FFFFFFFFFFFFFFFFFFFFFFFFFFFFFFFF52
:105E6000FFFFFFFFFFFFFFFFFFFFFFFFFFFFFFFF42
:105E7000FFFFFFFFFFFFFFFFFFFFFFFFFFFFFFFF32
:105E8000FFFFFFFFFFFFFFFFFFFFFFFFFFFFFFFF22
:105E9000FFFFFFFFFFFFFFFFFFFFFFFFFFFFFFFF12
:105EA000FFFFFFFFFFFFFFFFFFFFFFFFFFFFFFFF02
:105EB000FFFFFFFFFFFFFFFFFFFFFFFFFFFFFFFFF2
:105EC000FFFFFFFFFFFFFFFFFFFFFFFFFFFFFFFFE2
:105ED000FFFFFFFFFFFFFFFFFFFFFFFFFFFFFFFFD2
:105EE000FFFFFFFFFFFFFFFFFFFFFFFFFFFFFFFFC2
:105EF000FFFFFFFFFFFFFFFFFFFFFFFFFFFFFFFFB2
:105F0000FFFFFFFFFFFFFFFFFFFFFFFFFFFFFFFFA1
:105F1000FFFFFFFFFFFFFFFFFFFFFFFFFFFFFFFF91
:105F2000FFFFFFFFFFFFFFFFFFFFFFFFFFFFFFFF81
:105F3000FFFFFFFFFFFFFFFFFFFFFFFFFFFFFFFF71
:105F4000FFFFFFFFFFFFFFFFFFFFFFFFFFFFFFFF61
:105F5000FFFFFFFFFFFFFFFFFFFFFFFFFFFFFFFF51
:105F6000FFFFFFFFFFFFFFFFFFFFFFFFFFFFFFFF41
:105F7000FFFFFFFFFFDF3353023012710A710A7116
:105F800012710A7112710A5122D2EF9EFFFFFFFFB8
:105F9000FFFFFFFFFFFFFFFFFFFFFFFF8D39021035
:105FA00012911271127112711271127112711271B9
:105FB00012711271127112711271127112711271C9
:105FC000127112711271127112710A7112710A50EA
:105FD0002AF2F79FFFFFFFFFFFFFFFFFFFFFFFFF1B
:105FE000FFFFFFFFFFFFFFFFFFFFFFFFFFFFFFFFC1
:105FF000FFFFFFFFFFFFFFFFFFFFFFFFFFFFFFFFB1
:10600000FFFFFFFFFFFFFFFFFFFFFFFFFFFFFFFFA0
:10601000FFFFFFFFFFFFFFFFFFFFFFFFFFFFFFFF90
:10602000FFFFFFFFFFFFFFFFFFFFFFFFFFFFFFFF80
:10603000FFFFFFFFFFFFFFFFFFFFFFFFFFFFFFFF70
:10604000FFFFFFFFFFFFFFFFFFFFFFFFFFFFFFFF60
:10605000FFFFFFFFFFFFFFFFFFFFFFFFFFFFFFFF50
:10606000FFFFFFFFFFFFFFFFFFFFFFFFFFFFFFFF40
:10607000FFFFFFFFFFFFFFFFFFFFFFFFFFFFFFFF30
:10608000FFFFFFFFFFFFFFFFFFFFFFFFFFFFFFFF20
:10609000FFFFFFFFFFFFFFFFFFFFFFFFFFFFFFFF10
:1060A000FFFFFFFFFFFFFFFFFFFFFFFFFFFFFFFF00
:1060B000FFFFFFFFFFFFFFFFFFFFFFFFFFFFFFFFF0
:1060C000FFFFFFFFFFFFFFFFFFFFFFFFFFFFFFFFE0
:1060D000FFFFFFFFFFFFFFFFFFFFFFFFFFFFFFFFD0
:1060E000FFFFFFFFFFFFFFFFFFFFFFFFFFFFFFFFC0
:1060F000FFFFFFFFFFFFFFFFFFFFFFFFFFFFFFFFB0
:10610000FFFFFFFFFFFFFFFFFFFFFFFFFFFFFFFF9F
:10611000FFFFFFFFFFFFFFFFFFFFFFFFFFFFFFFF8F
:10612000FFFFFFFFFFFFFFFFFFFFFFFFFFFFFFFF7F
:10613000FFFFFFFFFFFFFFFFFFFFFFFFFFFFFFFF6F
:10614000FFFFFFFFFFFFFFFFFFFFFFFFFFFFFFFF5F
:10615000FFFFFFFF957902101291127112711271F7
:106160000A710A71129102108518FFFFFFFFFFFFED
:10617000FFFFA5DAF7BFFFFFFFFFFFFFEF9E1AD279
:106180000A5112711271127112711271127112711F
:1061900012711271127112711271127112711271E7
:1061A00012711271127112711271127112711291B7
:1061B00002107D18FFFFFFFFFFFFFFFFFFFFFFFF44
:1061C000FFFFFFFFFFFFFFFFFFFFFFFFFFFFFFFFDF
:1061D000FFFFFFFFFFFFFFFFFFFFFFFFFFFFFFFFCF
:1061E000FFFFFFFFFFFFFFFFFFFFFFFFFFFFFFFFBF
:1061F000FFFFFFFFFFFFFFFFFFFFFFFFFFFFFFFFAF
:10620000FFFFFFFFFFFFFFFFFFFFFFFFFFFFFFFF9E
:10621000FFFFFFFFFFFFFFFFFFFFFFFFFFFFFFFF8E
:10622000FFFFFFFFFFFFFFFFFFFFFFFFFFFFFFFF7E
:10623000FFFFFFFFFFFFFFFFFFFFFFFFFFFFFFFF6E
:10624000FFFFFFFFFFFFFFFFFFFFFFFFFFFFFFFF5E
:10625000FFFFFFFFFFFFFFFFFFFFFFFFFFFFFFFF4E
:10626000FFFFFFFFFFFFFFFFFFFFFFFFFFFFFFFF3E
:10627000FFFFFFFFFFFFFFFFFFFFFFFFFFFFFFFF2E
:10628000FFFFFFFFFFFFFFFFFFFFFFFFFFFFFFFF1E
:10629000FFFFFFFFFFFFFFFFFFFFFFFFFFFFFFFF0E
:1062A000FFFFFFFFFFFFFFFFFFFFFFFFFFFFFFFFFE
:1062B000FFFFFFFFFFFFFFFFFFFFFFFFFFFFFFFFEE
:1062C000FFFFFFFFFFFFFFFFFFFFFFFFFFFFFFFFDE
:1062D000FFFFFFFFFFFFFFFFFFFFFFFFFFFFFFFFCE
:1062E000FFFFFFFFFFFFBE7C74D774B76C979599D3
:1062F000FFFFFFFFFFFFFFFFFFFFFFFFFFFFFFFFAE
:10630000FFFFFFFFFFFFFFFFFFFFFFFFFFFFFFFF9D
:10631000FFFFFFFFFFFFFFFFFFFFFFFFFFFFFFFF8D
:10632000FFFFFFFFFFFFFFFFFFFFFFFFFFFFFFFF7D
:10633000FFFFEF9E22F20A51127112711271127157
:10634000127112710A511AB2EF7EFFFFFFFFFFFFB9
:10635000E77E0A50AE3BFFFFFFFFFFFFFFFF8D38D8
:106360000210129112711271127112711271127166
:106370001271127112711271127112711271127105
:1063800012711271127112710A71127112711271FD
:106390000A711AB2EF7EFFFFFFFFFFFFFFFFFFFF53
:1063A000FFFFFFFFFFFFFFFFFFFFFFFFFFFFFFFFFD
:1063B000FFFFFFFFFFFFFFFFFFFFFFFFFFFFFFFFED
:1063C000FFFFFFFFFFFFFFFFFFFFFFFFFFFFFFFFDD
:1063D000FFFFFFFFFFFFFFFFFFFFFFFFFFFFFFFFCD
:1063E000FFFFFFFFFFFFFFFFFFFFFFFFFFFFFFFFBD
:1063F000FFFFFFFFFFFFFFFFFFFFFFFFFFFFFFFFAD
:10640000FFFFFFFFFFFFFFFFFFFFFFFFFFFFFFFF9C
:10641000FFFFFFFFFFFFFFFFFFFFFFFFFFFFFFFF8C
:10642000FFFFFFFFFFFFFFFFFFFFFFFFFFFFFFFF7C
:10643000FFFFFFFFFFFFFFFFFFFFFFFFFFFFFFFF6C
:10644000FFFFFFFFFFFFFFFFFFFFFFFFFFFFFFFF5C
:10645000FFFFFFFFFFFFFFFFFFFFFFFFFFFFFFFF4C
:10646000FFFFFFFFFFFFFFFFFFFFFFFFFFFFFFFF3C
:10647000FFFFFFFFFFFFFFFFFFFFFFFFFFFFFFFF2C
:10648000FFFFFFFFFFFFFFFFFFFFFFFFFFFFFFFF1C
:10649000FFFFFFFFFFFFFFFFFFFFFFFFFFFFFFFF0C
:1064A000FFFFFFFFFFFFFFFFFFFFFFFFFFFFFFFFFC
:1064B000FFFFFFFFFFFFFFFFFFFFFFFFFFFFFFFFEC
:1064C000FFFFFFFF957943B495799DBABE7B7CF7BA
:1064D0005C15FFDFFFFFFFFFFFFFFFFFFFFFFFFF79
:1064E000FFFFFFFFFFFFFFFFFFFFFFFFFFFFFFFFBC
:1064F000FFFFFFFFFFFFFFFFFFFFFFFFFFFFFFFFAC
:10650000FFFFFFFFFFFFFFFFFFFFFFFFFFFFFFFF9B
:10651000FFFF9D9902101291127112711271127186
:106520001271129102107CD8FFFFFFFFFFFFFFFFE7
:106530007D1801CF43B4FFFFFFFFFFFFFFFFEF9E7A
:106540001AD20A511271127112710A7112711271FA
:106550001271127112711271127112711271127123
:106560001271127112711271127112711271127113
:10657000129102108D58FFFFFFFFFFFFFFFFFFFF8B
:10658000FFFFFFFFFFFFFFFFFFFFFFFFFFFFFFFF1B
:10659000FFFFFFFFFFFFFFFFFFFFFFFFFFFFFFFF0B
:1065A000FFFFFFFFFFFFFFFFFFFFFFFFFFFFFFFFFB
:1065B000FFFFFFFFFFFFFFFFFFFFFFFFFFFFFFFFEB
:1065C000FFFFFFFFFFFFFFFFFFFFFFFFFFFFFFFFDB
:1065D000FFFFFFFFFFFFFFFFFFFFFFFFFFFFFFFFCB
:1065E000FFFFFFFFFFFFFFFFFFFFFFFFFFFFFFFFBB
:1065F000FFFFFFFFFFFFFFFFFFFFFFFFFFFFFFFFAB
:10660000FFFFFFFFFFFFFFFFFFFFFFFFFFFFFFFF9A
:10661000FFFFFFFFFFFFFFFFFFFFFFFFFFFFFFFF8A
:10662000FFFFFFFFFFFFFFFFFFFFFFFFFFFFFFFF7A
:10663000FFFFFFFFFFFFFFFFFFFFFFFFFFFFFFFF6A
:10664000FFFFFFFFFFFFFFFFFFFFFFFFFFFFFFFF5A
:10665000FFFFFFFFFFFFFFFFFFFFFFFFFFFFFFFF4A
:10666000FFFFFFFFFFFFFFFFFFFFFFFFFFFFFFFF3A
:10667000FFFFFFFFFFFFFFFFFFFFFFFFFFFFFFFF2A
:10668000FFFFFFFFFFFFFFFFFFFFFFFFFFFFFFFF1A
:10669000FFFFFFFFFFFFFFFFFFFFFFFFFFFFFFFF0A
:1066A000FFFFD6FD4BD4DF3D2B137CF82B33FFFFD0
:1066B00074D78D59FFFFFFFFFFFFFFFFFFFFFFFFB5
:1066C000FFFFFFFFFFFFFFFFFFFFFFFFFFFFFFFFDA
:1066D000FFFFFFFFFFFFFFFFFFFFFFFFFFFFFFFFCA
:1066E000FFFFFFFFFFFFFFFFFFFFFFFFFFFFFFFFBA
:1066F000FFFF3B94023012911271127112711271EC
:1067000012910A711291E75EFFFFFFFFFFFFEF9EFC
:106710001AD20A710230B63BFFFFFFFFFFFFFFFFF7
:106720008538021012910A7112710A710A71127180
:106730001271127112711271127112711271127141
:106740001271127112710A71127112711271127139
:1067500012710A303B73FFFFFFFFFFFFFFFFFFFFD8
:10676000FFFFFFFFFFFFFFFFFFFFFFFFFFFFFFFF39
:10677000FFFFFFFFFFFFFFFFFFFFFFFFFFFFFFFF29
:10678000FFFFFFFFFFFFFFFFFFFFFFFFFFFFFFFF19
:10679000FFFFFFFFFFFFFFFFFFFFFFFFFFFFFFFF09
:1067A000FFFFFFFFFFFFFFFFFFFFFFFFFFFFFFFFF9
:1067B000FFFFFFFFFFFFFFFFFFFFFFFFFFFFFFFFE9
:1067C000FFFFFFFFFFFFFFFFFFFFFFFFFFFFFFFFD9
:1067D000FFFFFFFFFFFFFFFFFFFFFFFFFFFFFFFFC9
:1067E000FFFFFFFFFFFFFFFFFFFFFFFFFFFFFFFFB9
:1067F000FFFFFFFFFFFFFFFFFFFFFFFFFFFFFFFFA9
:10680000FFFFFFFFFFFFFFFFFFFFFFFFFFFFFFFF98
:10681000FFFFFFFFFFFFFFFFFFFFFFFFFFFFFFFF88
:10682000FFFFFFFFFFFFFFFFFFFFFFFFFFFFFFFF78
:10683000FFFFFFFFFFFFFFFFFFFFFFFFFFFFFFFF68
:10684000FFFFFFFFFFFFFFFFFFFFFFFFFFFFFFFF58
:10685000FFFFFFFFFFFFFFFFFFFFFFFFFFFFFFFF48
:10686000FFFFFFFFFFFFFFFFFFFFFFFFFFFFFFFF38
:10687000FFFFFFFFFFFFFFFFFFFFFFFFFFFFFFFF28
:10688000FFFF95998D38F79F1AD264763B94FFDF0E
:10689000CEBC5C36FFFFFFFFFFFFFFFFFFFFFFFFE8
:1068A000FFFFFFFFFFFFFFFFFFFFFFFFFFFFFFFFF8
:1068B000FFFFFFFFFFFFFFFFFFFFFFFFFFFFFFFFE8
:1068C000FFFFFFFFFFFFFFFFFFFFFFFFFFFFFFFFD8
:1068D000D71D0A710A710A71127112711271127147
:1068E0001291021074D7FFFFFFFFFFFFFFFF8D38EB
:1068F0000210129102303B94FFFFFFDFFFDFFFFF2A
:10690000EF7E1AD20A511271127112711271127144
:10691000127112711271127112711271127112715F
:1069200012711271127112711271127112710A7157
:10693000127112710A51D6FDFFFFFFFFFFFFFFFF2B
:10694000FFFFFFFFFFFFFFFFFFFFFFFFFFFFFFFF57
:10695000FFFFFFFFE77ED6FDCEDCCEDCCEDCCEDC5B
:10696000CEDCCEDCCEDCCEDCCEDCCEDCCEDCCEDCD7
:10697000CEDCCEDCCEDCCEBCEF9EFFFFFFFFFFFF08
:10698000CEDCCEDCCEDCC6BCDF1DFFFFFFFFFFFF91
:10699000FFFFFFFFFFFFFFFFFFFFFFFFFFFFFFFF07
:1069A000FFFFFFFFFFFFFFFFFFDFCEDCCEDCCEDC13
:1069B000C6BCDF3DFFFFFFFFFFDFCEDCCEDCCEDD60
:1069C000CEDCCEDCCEDCCEDCCEDCCEDCCEDCCEDC77
:1069D000CEDCCEDCCEDCCEDCCEDCCEDCCEDCCEDC67
:1069E000CEDCD6FDE75EFFDFFFFFFFFFFFFFFFFF0F
:1069F000FFFFFFFFFFFFFFFFFFFFF7BFCEDCCEDC97
:106A0000CEDCCEDCCEDCCEDCCEDCCEDCCEDCCEDC36
:106A1000CEDCCEDCCEDCCEDCCEDCCEDCCEDCCEDC26
:106A2000CEDCCEDCCEDCCEDCCEDCCEBCDF3EFFFF6F
:106A3000FFFFE75ECEBCCEDCCEDCCEDCCEDCCEDC37
:106A4000CEDCCEDCCEDCCEDCCEDCCEDCCEDCCEDCF6
:106A5000CEDCD71DE77EFFFFFFFFFFFFFFFFFFDF5D
:106A6000FFFFB65B6476F7BF1291AE1A22F2DF3DEC
:106A7000AE1A6C97FFFFFFFFFFFFFFFFFFFFFFFF57
:106A8000FFFFFFFFFFFFFFFFFFFFFFFFFFFFFFFF16
:106A9000FFFFFFFFFFFFFFFFFFFFFFFFFFFFFFFF06
:106AA000FFFFFFFFFFFFFFFFFFFFFFFFFFFFFFFFF6
:106AB0009DBA021012911271127112710A71127143
:106AC0000A711291DF5EFFFFFFFFFFFFF7BF22F2A7
:106AD0000A51127112720230B65BFFFFFFFFFFFF17
:106AE000FFFF9579021012710A7112711271127101
:106AF000127112711271127112711271127112717E
:106B00001271127112711271127112710A71127175
:106B10001271129102109599FFFFFFFFFFFFFFFF17
:106B2000FFFFFFFFFFFFFFFFFFFFFFFFFFFFC69C11
:106B30006CB733531AB20A710A510A510A510A51F9
:106B40000A510A510A510A510A510A510A510A516D
:106B50000A510A510A5101F0ADFAFFFFFFFFEF9E03
:106B600012B202300A5101F04BD5FFFFFFFFFFFFC9
:106B7000FFFFFFFFFFFFFFFFFFFFFFFFFFFFFFFF25
:106B8000FFFFFFFFFFFFFFFFDF5E0A710A510A717F
:106B900001F05415FFFFFFFFEF7E129102300A5102
:106BA0000A510A510A510A510A510A510A510A510D
:106BB0000A510A510A510A510A510A510A510A51FD
:106BC0000A51127112912B336456B63BFFFFFFFF3F
:106BD000FFFFFFFFFFFFFFFFFFFFCEDC02300A5188
:106BE0000A510A510A510A510A510A510A510A51CD
:106BF0000A510A510A510A510A510A510A510A51BD
:106C00000A510A510A510A510A5101F06476FFFFF4
:106C1000FFFF74B701F00A510A510A510A510A5193
:106C20000A510A510A510A510A510A510A510A518C
:106C30000A510A711AB233536C96C69CFFFFFFFFCC
:106C4000FFFFFFFF5C157D18A5FAFFFFC6BC853866
:106C50004394D71DFFFFFFFFFFFFFFFFFFFFFFFF75
:106C6000FFFFFFFFFFFFFFFFFFFFFFFFFFFFFFFF34
:106C7000FFFFFFFFFFFFFFFFFFFFFFFFFFFFFFFF24
:106C8000FFFFFFFFFFFFFFFFFFFFFFFFFFFFFFFF14
:106C900064760210129112711271127112711291B6
:106CA00002106C97FFFFFFFFFFFFFFFF9D9902108F
:106CB0001291127112910A513B94B65BB65BB63BCE
:106CC000B65BA5DA12911271127112711271127102
:106CD000127112711271127112711271127112719C
:106CE000127112711271127112711271127112718C
:106CF0001271129102106476FFFFFFFFFFFFFFFF8A
:106D0000FFFFFFFFFFFFFFFFFFFFE77E541502308D
:106D1000021002510A7112711271129112911291A4
:106D2000129112911291129112911291129112914B
:106D30001271127112910210AE1BFFFFFFFFEF9E46
:106D40001AD20A51129102304BF5FFFFFFFFFFFFED
:106D5000FFFFFFFFFFFFFFFFFFFFFFFFFFFFFFFF43
:106D6000FFFFFFFFFFFFFFFFE75E1291127112911D
:106D700002105C36FFFFFFFFEF7E1AD20A5112911C
:106D8000127112711271129112911291129112914B
:106D900012911291129112911291129112911291DB
:106DA000129112710A710A51021002303B94CEDC2A
:106DB000FFFFFFFFFFFFFFFFFFFFCEDC0A71127135
:106DC000127112711271127112911291129112912B
:106DD000129112911291129112911291129112919B
:106DE0001291129112911291129102306C96FFFF42
:106DF000FFFF7CD802301A911291129112911291D8
:106E0000129112911291129112911291129112916A
:106E1000129112710A710251021002305415E77E6C
:106E2000FFFFFFFFF7BF6C976C7674D76CB75C36CB
:106E3000CEDCFFFFFFFFFFFFFFFFFFFFFFFFFFFFB6
:106E4000FFFFFFFFFFFFFFFFFFFFFFFFFFFFFFFF52
:106E5000FFFFFFFFFFFFFFFFFFFFFFFFFFFFFFFF42
:106E6000FFFFFFFFFFFFFFFFFFFFFFFFFFFFFFFF32
:106E700043B40231129112711271127112711271B6
:106E80000A71DF1DFFFFFFFFFFFFFFDF33330A3112
:106E90001271127102300210021001CF01CF01CF26
:106EA00001CF01CF02300A71127112711271127189
:106EB00012711271127112711271127112711271BA
:106EC00012711271127112711271127112711271AA
:106ED00012711291023043B4FFFFFFFFFFFFFFFF6B
:106EE000FFFFFFFFFFFFFFFFE73D2B1302101271B3
:106EF0001291129112710A510231023002100210E5
:106F000002100210021002100210021002100A51A8
:106F10001271127112910210AE1AFFFFFFFFEF9E65
:106F20001AD20A51129102104BD4FFFFFFFFFFFF4C
:106F3000FFFFFFFFFFFFFFFFFFFFFFFFFFFFFFFF61
:106F4000FFFFFFFFFFFFFFFFE75E12920A71127162
:106F500002105C36FFFFFFFFEF7E1AB20A5112717A
:106F600012910A51021002100210021002100210B7
:106F70000210021002100210021002100210021081
:106F8000021002310A5112911291127102301271E3
:106F9000BE7BFFFFFFFFFFFFFFFFCEDC0A51127138
:106FA000127112710A510210021002100210021026
:106FB0000210021002100210021002100210021041
:106FC00002100210021002100A5101CF6456FFFF96
:106FD000FFFF6CB701AF0A5002100210023002101E
:106FE00002100210021002100210021002100230F1
:106FF000021002300A7112911291129102102B1399
:10700000DF5DFFFFFFFFFFFFE75EC6BCD6FDFFFFB2
:10701000FFFFFFFFFFFFFFFFFFFFFFFFFFFFFFFF80
:10702000FFFFFFFFFFFFFFFFFFFFFFFFFFFFFFFF70
:10703000FFFFFFFFFFFFFFFFFFFFFFFFFFFFFFFF60
:10704000FFFFFFFFFFFFFFFFFFFFFFFFFFFFFFFF50
:1070500033330A51127112711271127112910210AE
:107060006476FFFFFFFFFFFFFFFFA5FA021012711A
:10707000127102316C97A5DAA5DAA5DAA5FAA5DABC
:10708000A5DAA5DA9DB91AD20A51127112711271DC
:1070900012711271127112711271127112711271D8
:1070A00012711271127112711271127112711271C8
:1070B000127112710A513333FFFFFFFFFFFFFFFF11
:1070C000FFFFFFFFFFFFFFFF439402101291129199
:1070D0001271021012712AF33B7443B44BB54BB5D5
:1070E0004BB54BB54BD54BB54BB54BB44BD53333FB
:1070F0000A51127112710210AE1BFFFFFFFFEF9ECB
:107100001AD20A51129102104BD5FFFFFFFFFFFF69
:10711000FFFFFFFFFFFFFFFFFFFFFFFFFFFFFFFF7F
:10712000FFFFFFFFFFFFFFFFE75E12920A71127180
:1071300002105C35FFFFFFFFEF7E1AB20A51127199
:107140000A511AD24BD44BB54BB54BB54BB54BB5D9
:107150004BB54BB443B44BB443B44BB44BB54BB544
:107160004BB5439422D202300A51127112910A5146
