:020000040800F2
:10000000F03300209D0100086F1A0008A3150008B6
:100010006D1A0008710200083D1D00080000000074
:10002000000000000000000000000000811C00082B
:10003000BD04000800000000911A0008831C00089D
:10004000B7010008B7010008B7010008B7010008B0
:10005000B7010008B7010008B7010008B7010008A0
:10006000B7010008B7010008B7010008B701000890
:10007000B7010008B7010008B7010008B701000880
:10008000B7010008B7010008B7010008B701000870
:10009000B7010008B7010008B7010008B701000860
:1000A000B7010008B7010008B7010008B701000850
:1000B000B7010008B7010008B7010008B701000840
:1000C000B7010008B7010008B7010008B701000830
:1000D000B7010008B7010008B7010008B701000820
:1000E000B7010008B7010008B7010008B701000810
:1000F000B7010008B7010008000000000000000080
:100100000000000000000000B7010008B70100086F
:100110000000000000000000B7010008B70100085F
:10012000B7010008B7010008B7010008B7010008CF
:10013000B7010008B7010008B7010008B7010008BF
:10014000B7010008000000000000000000000000EF
:10015000000000000000000000000000000000009F
:100160000000000000000000B7010008B70100080F
:10017000B701000800000000B701000800000000FF
:1001800000000000B7010008DFF80CD000F048F8CC
:10019000004800471D220008F03300200648804731
:1001A00006480047FEE7FEE7FEE7FEE7FEE7FEE75C
:1001B000FEE7FEE7FEE7FEE7D51C00088901000820
:1001C00010B50B4604461146184600F015F8C4E970
:1001D000000110BDD2B201E000F8012B491EFBD294
:1001E00070470022F6E710B513460A460446194642
:1001F000FFF7F0FF204610BD70B50024254600280B
:1002000001DA01244042002901DA0125494200F0C7
:1002100019F8AC4200D04042002C00D0494270BDD9
:10022000064C074D06E0E06840F0010394E8070043
:1002300098471034AC42F6D3FFF7AAFFFC2200081F
:100240001C23000830B50B46014600202022012463
:1002500009E021FA02F59D4205D303FA02F5491B94
:1002600004FA02F52844151EA2F10102F1DC30BDAA
:10027000FEE7000038B542F6E0652B4600222E214D
:10028000334801F055FE324C1923F0225B21002047
:10029000009401F087F92B4600222F21204601F01F
:1002A00047FE1923F02274210020009401F07AF90E
:1002B0002B4600223021204601F03AFE1923F0227D
:1002C0008D210020009401F06DF92B460022312190
:1002D000204601F02DFE1923F022A62100200094D3
:1002E00001F060F92B4600223221204601F020FE69
:1002F0001923F022BF210020009401F053F92B466E
:1003000000223321204601F013FE1923F022D821C8
:100310000020009401F046F92B46002234212046AB
:1003200001F006FE1923F022FD210020009401F0C7
:1003300039F92B4600223521204601F0F9FD192319
:10034000F0224FF48B710020009401F02BF938BD9E
:100350000C01002038B542F6E0652B46002236211C
:10036000194801F0E5FD184C1923F02274210020F2
:10037000009401F017F92B4600223721204601F0A6
:10038000D7FD1923F0228D210020009401F00AF9F5
:100390002B4600223821204601F0CAFD1923F02205
:1003A000A6210020009401F0FDF82B4600223921FF
:1003B000204601F0BDFD1923F022BF21002000944A
:1003C00001F0F0F838BD00000C01002038B542F60D
:1003D000E0652B4600223A21194801F0A9FD184C8E
:1003E0001923F02274210020009401F0DBF82B4641
:1003F00000223B21204601F09BFD1923F0228D2194
:100400000020009401F0CEF82B4600223C2120462B
:1004100001F08EFD1923F022A6210020009401F0A6
:10042000C1F82B4600223D21204601F081FD192311
:10043000F022BF210020009401F0B4F838BD000084
:100440000C01002038B542F6E0652B4600223E2123
:10045000194801F06DFD184C1923F0227421002079
:10046000009401F09FF82B4600223F21204601F026
:100470005FFD1923F0228D210020009401F092F8F5
:100480002B4600224021204601F052FD1923F02284
:10049000A6210020009401F085F82B46002241217E
:1004A000204601F045FD1923F022BF2100200094D1
:1004B00001F078F838BD00000C0100207047000002
:1004C00070B5044600F0D8F80546601C02D0044818
:1004D0000078044400F0D0F8401BA042FAD370BD6D
:1004E0000C0000202DE9F84FDFF864B100234FF035
:1004F000010C4FF0030A4FF00F090BF1040EA0E0BE
:100500000CFA03F6324072D04C68022C01D0122C47
:100510000ED1DC0800EB8408D8F820405D07EF0E10
:1005200009FA07F5AC430D69BD402543C8F82050D2
:1005300007685D0091F804800AFA05F408F00308E2
:10054000A74308FA05F848EA0708C0F800804F6892
:10055000012F05D0022F03D0112F01D0122F11D15E
:100560008768D1F80C80A74308FA05F848EA07081D
:10057000C0F808804768B7430E79C6F300169E405E
:100580003E434660C668A6438C68AC403443C460B2
:100590004C68E40054D52F4CA56945F00105A561D0
:1005A000A46923F0030504F0010400942A4C2E19D9
:1005B000B4689D072F0F09FA07F5AC43B0F1904FCF
:1005C00004D0264DA84203D1012512E0002510E0F9
:1005D000234DA84201D102250BE0224DA84201D1B2
:1005E000032506E0204DA84202D1042501E027E0C2
:1005F0000525BD402543B560DBF800405D464E68EB
:100600009443F60300D514432C60DEF80040754691
:100610004E689443B60300D514432C600C4D083546
:100620002C684E689443F60200D514432C60084DA4
:100630000C352C684E689443B60200D514432C60E8
:100640005B1C0A6832FA03F47FF45AAFBDE8F88FF6
:100650000004014000100240000001400004004876
:1006600000080048000C0048001000480AB18161F1
:100670007047816270470000014880687047000041
:100680000C000020024881680278114481607047A4
:100690000C000020074810B5016841F0100101600E
:1006A000032000F05FF8002000F006F800F024F8C6
:1006B000002010BD0020024070B50D4D04464FF4DF
:1006C0007A712878B1FBF0F00A490968B1FBF0F0C3
:1006D00000F053FF48B9102C07D200222146501ECB
:1006E00000F020F800206C6070BD012070BD00009B
:1006F0000C00002018000020094808B5816941F06D
:1007000001018161816901F001010091C16941F03C
:100710008051C161C06900F08050009008BD0000A8
:1007200000100240F0B40E4B1B680C46C3F30223CA
:10073000C3F10705042D00D90425191D072901D28D
:10074000002300E0DB1E012606FA05F1491E2140C8
:1007500099409E40761E16403143F0BC01F088B9A6
:100760000CED00E0064900F0070208684FF6FF03B1
:10077000184040EA0220034A104308607047000016
:100780000CED00E00000FA052DE9F0470F460500EA
:1007900069D04A4E306800F00700B84209D230688C
:1007A00020F0070038433060306800F00700B8429E
:1007B00059D12878424C800705D56068A96820F097
:1007C000F000084360602878C0073DD069680120C8
:1007D00001290DD0022923D05FF0020393FAA3F27E
:1007E000B2FA82F242F02002520904D0226803E0F9
:1007F0004FF40033F2E7626A93FAA3F3B3FA83F398
:1008000003F01F03984002422DD0606820F00300DF
:1008100008436060FFF730FF804641F288390CE002
:100820004FF00073DAE700BFFFF726FFA0EB0801E7
:10083000494502D90320BDE8F0876068696800F087
:100840000C00B0EB810FEFD1306800F00700B84228
:100850000BD9306820F0070038433060306800F072
:100860000700B84201D00120E5E72878400705D508
:100870006068E96820F4E060084360602878000759
:1008800006D56068296920F4605040EAC1006060C4
:1008900000F01CF86168F02292FAA2F201F0F00177
:1008A000B2FA82F2D140074A515CC840064908605A
:1008B0000020FFF701FF0020BDE7000000200240FC
:1008C00000100240EC22000818000020144B10B564
:1008D0005A68144802F00C0104291DD008291BD1C4
:1008E0004FF4701494FAA4F402F47011B4FA84F47E
:1008F000E1400D4CDB6A615C0F2494FAA4F403F030
:100900000F03B4FA84F4E340074C1034D203E35CE1
:1009100003D5B0FBF3F0484310BD0448484310BD75
:100920000010024000127A00CC22000800093D00AD
:100930002DE9F84F040071D02078FB4DC0074FF02F
:10094000010625D068687704C0F38100012807D02C
:100950006868C0F3810002281BD16868C00318D5FD
:1009600097FAA7F0B0FA80F040F02000400901D0DB
:10097000286800E0686A97FAA7F1B1FA81F101F0FE
:100980001F0106FA01F1084265D060680028D2D044
:1009900061E06068B0F5803F0BD010B1B0F5A02FDA
:1009A00017D0286820F480302860286820F4802040
:1009B00002E0286840F480302860E86AA16820F0EE
:1009C0000F000843E862606820B3FFF755FE8046D9
:1009D0000AE0286840F480202860EAE7FFF74CFE30
:1009E000A0EB0800642872D897FAA7F0B0FA80F05C
:1009F00040F02000400901D0286800E0686A97FABA
:100A0000A7F1B1FA81F101F01F0106FA01F10842E4
:100A1000E4D020E0FFF730FE804607E0C7E000BFEB
:100A2000FFF72AFEA0EB08006428DCD897FAA7F0AD
:100A3000B0FA80F040F02000400901D0286800E0C2
:100A4000686A97FAA7F1B1FA81F101F01F0106FA7D
:100A500001F10842E4D12078DFF8D08280074FF01E
:100A6000000A4FF0020759D568684FF0F80B10F0F4
:100A70000C0F07D06868C0F3810002281BD168689A
:100A8000C00318D497FAA7F0B0FA80F040F0200025
:100A9000400901D0286800E0686A97FAA7F1B1FA26
:100AA00081F101F01F0106FA01F108422BD0206903
:100AB00001287CD127E0206988B396FAA6F0B0FA25
:100AC00080F048F82060FFF7D7FD814606E055E149
:100AD000FFF7D2FDA0EB0900022884D897FAA7F00F
:100AE000B0FA80F040F02000400901D0286800E012
:100AF000686A97FAA7F1B1FA81F101F01F0106FACD
:100B000001F10842E4D028689BFAABF26169B2FABD
:100B100082F220F0F80091400843286025E0FFE7CA
:100B200096FAA6F1B1FA81F148F821A0FFF7A4FDE9
:100B3000814605E0FFF7A0FDA0EB09000228CCD814
:100B400097FAA7F0B0FA80F040F02000400901D0F9
:100B5000286800E0686A97FAA7F1B1FA81F101F01C
:100B60001F0106FA01F10842E4D1207800076AD596
:100B7000A069A0B396FAA6F0B0FA80F008EB800066
:100B8000C0F88064FFF778FD814605E0FFF774FD4B
:100B9000A0EB09000228A0D897FAA7F0B0FA80F0DD
:100BA00040F06000B6EB501F02D128680CE077E1FE
:100BB00097FAA7F0B0FA80F040F06000B7EB501F52
:100BC00001D1286A00E0686A97FAA7F1B1FA81F1C9
:100BD00001F01F0106FA01F21042D7D033E0FFE71F
:100BE00096FAA6F0B0FA80F008EB8000C0F880A476
:100BF000FFF742FD814605E0FFF73EFDA0EB09004F
:100C000002289CD897FAA7F0B0FA80F040F0600074
:100C1000B6EB501F01D128680BE097FAA7F0B0FAA5
:100C200080F040F06000B7EB501F01D1286A00E06F
:100C3000686A97FAA7F1B1FA81F101F01F0106FA8B
:100C400001F21042D8D12078400774D5E8694FF0FE
:100C50000009C00009D4E86940F08050E861E86903
:100C60004FF0010900F08050009031480168C9053B
:100C700012D4016841F480710160FFF7FDFC8346E6
:100C800006E000BFFFF7F8FCA0EB0B00642875D866
:100C900027480068C005F5D5E06801280AD008B1EA
:100CA000052811D0286A20F001002862286A20F067
:100CB000040002E0286A40F001002862E068C8B33E
:100CC000FFF7DAFC83460DE0286A40F00400286252
:100CD000F0E700BFFFF7D0FCA0EB0B0141F288303A
:100CE00081424BD897FAA7F0B0FA80F040F040006C
:100CF000B6EB501F01D128680BE097FAA7F0B0FAC5
:100D000080F040F04000B7EB501F01D1286A00E0AE
:100D1000686A97FAA7F1B1FA81F101F01F0106FAAA
:100D200001F21042D6D035E00010024000004242ED
:100D30000070004000E034E0FFF79EFC834607E0CF
:100D4000FFF79AFCA0EB0B0141F28830814215D8E5
:100D500097FAA7F0B0FA80F040F04000B6EB501FD1
:100D600001D128680CE097FAA7F0B0FA80F040F0C3
:100D70004000B7EB501F02D1286A01E083E0686AA7
:100D800097FAA7F1B1FA81F101F01F0106FA01F219
:100D90001042D5D1B9F1000F03D0E86920F080509E
:100DA000E861E06980B36968C1F38101022977D005
:100DB0004FF080714F00022809D091FAA1F0B0FAEB
:100DC00080F048F820A0FFF757FC04465EE050464C
:100DD0008A4691FAA1F1B1FA81F1C14648F82100A1
:100DE000FFF74AFC804605E0FFF746FCA0EB080051
:100DF000022848D897FAA7F0B0FA80F040F0200017
:100E0000400902D0286801E056E0686A97FAA7F125
:100E1000B1FA81F101F01F0106FA01F10842E3D1B4
:100E2000D4E908100843696821F474110843686024
:100E30009AFAAAF0B0FA80F049F82060FFF71CFC9B
:100E4000044604E0FFF718FC001B02281BD897FAA1
:100E5000A7F0B0FA80F040F02000400901D02868E7
:100E600000E0686A97FAA7F1B1FA81F101F01F0179
:100E700006FA01F10842E5D01EE000BFFFF7FCFBD7
:100E8000001B022802D90320BDE8F88F97FAA7F0CB
:100E9000B0FA80F040F02000400902D0286801E05C
:100EA0000CE0686A97FAA7F1B1FA81F101F01F012D
:100EB00006FA01F10842E1D10020E5E70120E3E76D
:100EC0002DE9F041040005D00025A56294F85D00ED
:100ED00018B107E00120BDE8F08184F85C5020469D
:100EE00000F04AF8022384F85D302068016821F0A0
:100EF00040010160E0684FF4E066B04201D9002192
:100F000001E04FF48051B0F5706F02D0B04200D0D4
:100F1000A562276B012227B9B04201D9236300E003
:100F20002263D4E901031843D4E904363343184358
:100F3000238B03F400731843E3691843236A1843AF
:100F4000A36A184323681860636B606AA669184334
:100F50000427E36807EA1646334318430843216829
:100F600048602068C16921F40061C161256684F888
:100F70005D200020AFE70000F0B587B004461421E3
:100F80006846FFF72EF92E4A216800252D480224D5
:100F900003260527914236D1816941F48051816150
:100FA000816901F480510591416941F40021416159
:100FB000416901F400210591416941F40031416129
:100FC000416901F400310591416941F480014161B9
:100FD0004069694600F48000059090158DE8F100A5
:100FE0001948FFF77FFAE0028DE8710006200490AF
:100FF00069464FF09040FFF775FA40208DE8F10008
:101000006946124818E0124A914217D1C16941F469
:101010008041C161C16901F480410591416941F498
:10102000802141614069694600F4802005904FF4B9
:1010300044408DE8F1000748FFF754FA07B0F0BDCF
:101040000030014000100240000800480014004831
:1010500000380040000400482DE9F84F044640687D
:101060000026984617460D464FF0040AB0F5827FD9
:1010700001D1A06890B194F85C00012819D04FF01C
:10108000010B84F85CB0FFF7F7FA009094F85D006C
:101090004FF0000901280ED002268EE084F85DA0F2
:1010A00013460A462046CDF8008000F047F9BDE817
:1010B000F88F0220FBE7002D7ED0002F7CD084F833
:1010C0005DA0C4F860902564A4F84470A4F846704C
:1010D000C4F83890A4F83C90A4F83E90C4F84C9022
:1010E000C4F85090E0684FF4E0618842206842689C
:1010F00002D922F4805201E042F480524260A0689A
:10110000B0F5004F04D12068026822F480420260EA
:1011100020680268520603D4026842F0400202606E
:10112000E068884219D939E020688168C90708D089
:10113000007B05F8010BB4F84600401EA4F84600F9
:101140000BE0B8F1000F26D0B8F1FF3F05D0FFF754
:1011500093FA0099411A41451DD2B4F8460000287F
:10116000E2D11FE020688168C90708D0C06825F86F
:10117000020BB4F84600401EA4F846000EE0B8F199
:10118000000F08D0B8F1FF3F08D0FFF775FA0099BB
:10119000411A414502D303260FE00DE0B4F84600A2
:1011A0000028DFD141462046009A00F072FC08B1C9
:1011B00020202066206E00B1012684F85DB084F8FE
:1011C0005C90304673E72DE9F84F044690F85C00D8
:1011D0000026984617460D4601280DD04FF0010A0B
:1011E00084F85CA0FFF748FA834694F85D00B146A6
:1011F000012804D002269BE00220BDE8F88F002DD4
:1012000073D0002F71D0032084F85D00C4F8609083
:10121000A563A787E787C4F84090A4F84490A4F892
:101220004690C4F85090C4F84C90A068B0F5004FB8
:1012300004D12068016841F48041016020680168A0
:10124000490603D4016841F040010160E068B0F54F
:10125000E06F606823D910B1E08F01281BD12168AD
:1012600035F8020BC86006E020688168890706D55A
:1012700035F8021BC160E08F401EE0870BE0B8F13B
:10128000000F3FD0B8F1FF3F05D0FFF7F5F9A0EB15
:101290000B01414536D2E08F0028E5D137E010B18F
:1012A000E08F012830D1E08F012804D9216835F87A
:1012B000020BC86010E0216815F8010B087311E0FB
:1012C000E08721E02068816889070FD5E18F012937
:1012D00005D935F8021BC160E08F801EF0E715F8D4
:1012E000011B0173E08F401EEAE720E0B8F1000F18
:1012F00008D0B8F1FF3F07D0FFF7BEF9A0EB0B0114
:10130000414501D3032613E0E08F0028DAD15A4685
:101310004146204600F0F7FB08B120202066A06877
:1013200018B92068C16880680090206E00B101265D
:1013300084F85DA084F85C9030465EE72DE9F05FAC
:10134000044690F85C0000260A9F994692460D4696
:101350004FF0010801280ED0012084F85C00FFF74F
:101360008BF9834694F85D00616801280CD0B1F5D3
:10137000827F07D102E00220BDE8F09FA16809B991
:10138000042801D00226F0E0002D79D0BAF1000F38
:10139000FBD0B9F1000FF8D094F85D00042802D01A
:1013A000052084F85D0000202066C4F840A0A4F861
:1013B0004690A4F84490A563A4F83E90A4F83C900D
:1013C000E0642065E0684FF4E061884203D8B4F837
:1013D0004600012804D92068426822F4805203E0C4
:1013E0002068426842F480524260206802685206D7
:1013F00003D4026842F040020260E06888426068FC
:101400003FD910B1E08F012832D1216835F8020BA5
:10141000C860E08F401EE0872AE000BFB8F1000FEF
:101420000DD0E08F58B120688168890707D535F85D
:10143000021BC160E08F401EE0874FF00008B4F847
:10144000460068B120688168C90709D0C0682AF8D9
:10145000020BB4F84600401EA4F846004FF0010805
:10146000781C05D0FFF708F9A0EB0B00B84268D252
:10147000E08F0028D2D1B4F846000028CED169E030
:1014800072E010B1E08F01285DD1E08F012806D90C
:10149000216835F8020BC860E08F801E05E02068E7
:1014A00015F8011B0173E08F401EE0874BE000BF81
:1014B000B8F1000F16D0E08FA0B1206881688907CD
:1014C00010D5E18F012905D935F8021BC160E08FE5
:1014D000801E04E015F8011B0173E08F401EE087B9
:1014E0004FF00008B4F8460018B320688168C907B7
:1014F0001FD0B4F84610012911D9C0682AF8020B90
:10150000B4F84600801EA4F84600B4F8460001284E
:101510000DD82068416841F48051416007E0017BAB
:101520000AF8011BB4F84600401EA4F846004FF02C
:101530000108781C07D0FFF79FF8A0EB0B00B8421A
:1015400001D3032611E0E08F0028B1D1B4F84600A2
:101550000028ADD15A463946204600F0D4FA08B1E9
:1015600020202066206E00B10126012084F85D0055
:10157000002084F85C003046FEE610B5401EB0F155
:10158000807F01D3012010BD4FF0E02460610F2166
:10159000601700F06DFA0020A06107202061002094
:1015A00010BDFEE72DE9F0471F46DDF820A090466C
:1015B0000C460546F02821D24FF4A0718C421DD272
:1015C00005EB0800A0F10109B9F1F00F16DAE619F0
:1015D000761E8E4212DA00F02BF9B3B21FFA89F2AE
:1015E0002146284600F02BF94FEA4801794350463E
:1015F00000F06CF9BDE8F04700F04DB9BDE8F087A8
:101600007FB500F015F9714D4FF4004400222146DA
:101610002846FFF72BF80520FEF752FF012221464E
:101620002846FFF723F8012000F03CF94FF47A70C8
:10163000FEF746FFCB2000F035F965A1D1E90001A6
:10164000CDE900010521684600F040F9CF2000F007
:1016500029F961A0032100680090684600F036F97E
:10166000E82000F01FF95DA00321006800906846A3
:1016700000F02CF9EA2000F015F900240221684658
:10168000009400F023F9ED2000F00CF954A004219F
:1016900000680090684600F019F9F72000F002F9A0
:1016A00050A0012100680090684600F00FF9C020AA
:1016B00000F0F8F84CA0012100680090684600F0A6
:1016C00005F9C12000F0EEF848A001210068009063
:1016D000684600F0FBF8C52000F0E4F844A00221C1
:1016E00000680090684600F0F1F8C72000F0DAF8D2
:1016F00040A0012100680090684600F0E7F836201D
:1017000000F0D0F83CA0012100680090684600F08D
:10171000DDF83A2000F0C6F838A0012100680090FA
:10172000684600F0D3F8B12000F0BCF834A00221E4
:1017300000680090684600F0C9F8B62000F0B2F8E2
:1017400030A0032100680090684600F0BFF8F22046
:1017500000F0A8F801216846009400F0B7F82620B0
:1017600000F0A0F828A0012100680090684600F071
:10177000ADF8E02000F096F824A00FC88DE80F0027
:101780000F21684600F0A2F8E12000F08BF823A1B9
:101790000FC98DE80F000F21684600F097F811205F
:1017A00000F080F87820FEF78BFE292000F07AF810
:1017B000362000F077F81DA00121006800906846EF
:1017C00000F084F8BDE87F4000F065B800100048E4
:1017D000392C00340200000000C130008500780080
:1017E00064031281200000002300000010000000AC
:1017F0003E28000086000000480000005500000060
:101800000018000008822700010000000F312B0C97
:101810000E084EF1370710030E090000000E1403E6
:10182000110731C148080F0C31360F008800000045
:1018300000224FF400614FF09040FEF717BFF8B55B
:1018400007461C4615460E462A2000F02BF8380A9B
:101850008DF800008DF80170280A8DF802008DF8CF
:1018600003500421684600F031F82B2000F01AF8EC
:10187000300A8DF800008DF80160200A8DF8020012
:101880008DF803400421684600F020F8BDE8F840D8
:101890002C2000F007B80122D1024FF09040FEF753
:1018A000E5BE000001B500224FF480410548FEF777
:1018B000DDFE4FF0FF33012269460348FFF783FC4A
:1018C00008BD000000100048A80000202DE9F041EC
:1018D0000C460646012291030C48FEF7C7FE4FF462
:1018E00000474FF0FF380DE0BC4201D9384600E018
:1018F000204685B243462A4631460548FFF763FC39
:101900002E44641B002CEFD1BDE8F081001000488C
:10191000A80000202DE9F04387B014216846FEF7A7
:1019200060FC2F48416941F480014161416901F443
:1019300080010591416941F400114161416901F45F
:1019400000110591416941F480214161416901F42F
:1019500080210591416941F400214161416901F40F
:1019600000210591416941F40031416140691D4FF9
:1019700000F400304FF440440590002221463846E0
:10198000FEF774FEDFF86080002240214046FEF73B
:101990006DFE4FF400664FF09049002231464846F4
:1019A000FEF764FE0125CDE9004500240294694656
:1019B00038460394FEF796FD40200090CDE901548F
:1019C000694640460394FEF78DFD0096CDE901542B
:1019D000694648460394FEF785FD07B0BDE8F083ED
:1019E0000010024000100048000800480E480D4951
:1019F0004FF4E06201604FF4827141600021C0E960
:101A000002124FF400720161C0E905120822C0E918
:101A1000072107234162C0E90A13C0E90C12FFF74E
:101A20004FBA000000300140440000200E480D492C
:101A30004FF4E06201604FF4827141600021C0E91F
:101A400002124FF400720161C0E90512C161016226
:101A500007224162C0E90A12016308214163FFF7CE
:101A60002FBA000000380040A8000020FEE77047B1
:101A70000907090E002806DA00F00F0000F1E02047
:101A800080F8141D704700F1E02080F800147047C2
:101A900070472DE9F843044640684FF482761546B6
:101AA00089464FF400474FF48068B04209D1A068DE
:101AB000B84201D0404504D12068016821F04001BE
:101AC00001604B46002280212046009500F08EF8F0
:101AD00080B96068B04214D1A068B84201D04045D6
:101AE0000FD14B4600224FF4C0612046009500F014
:101AF0002EF830B1206E40F0200020660320BDE8B3
:101B0000F8830020FBE7F8B515460E460B46009219
:101B1000044600224FF4C05100F019F888B933464A
:101B2000002280212046009500F060F848B9334635
:101B300000224FF4C0612046009500F008F800280C
:101B400004D0206E40F0200020660320F8BD2DE96F
:101B5000F8431D4617460E4604464FF4C068DDF8AC
:101B600020903CE0464505D127B9007B8DF8000068
:101B70009DF80000681C32D02DB1FEF77DFDA0EB72
:101B80000900A8422BD32068416821F0E0014160A0
:101B90006068B0F5827F0BD1A068B0F5004F02D02D
:101BA000B0F5806F04D12068016821F04001016028
:101BB000A06AB0F5005F09D12068016821F40051E6
:101BC00001602068016841F400510160012084F83F
:101BD0005D00002084F85C000320BDE8F8832068E5
:101BE00081683140B942BDD10020F6E72DE9F041CE
:101BF0001D4617460E460446DDF8188034E0681C82
:101C000032D02DB1FEF738FDA0EB0800A8422BD34F
:101C10002068416821F0E00141606068B0F5827F92
:101C20000BD1A068B0F5004F02D0B0F5806F04D1A1
:101C30002068016821F040010160A06AB0F5005FF2
:101C400009D12068016821F4005101602068016811
:101C500041F400510160012084F85D00002084F807
:101C60005C000320BDE8F0812068806836EA00004F
:101C700004D00020B842C2D10020F3E70120F9E7E8
:101C80007047FEF7FFBC30B58FB028216846FEF7DD
:101C9000A8FA14210AA8FEF7A4FA01210804CDE944
:101CA00000100024029402250491CDE907504FF45E
:101CB000E01009906846FEF73BFE0F20CDE90A05CB
:101CC0006802CDE90C4002210AA80E94FEF75CFDE3
:101CD0000FB030BD1448016841F470010160134831
:101CE000016841F0010101604168114A1140416001
:101CF0000168104A11400160016821F480210160EF
:101D0000416821F4FE014160C16A21F00F01C16206
:101D1000016B094A11400163002181600249C0033F
:101D2000803908607047000088ED00E00010024034
:101D30000CC07FF8FFFFF6FECCFC00FFFEE70000C2
:101D400003498A6942434889B2FBF0F070470000BA
:101D50001C00002070B504461D4D01E0FEF7B0FBED
:101D600095F8270001284FF00100F7D085F82700EB
:101D700000F0F6F928696043040100F017FA154EE7
:101D8000002240213046FEF771FCD82000F0D8F93F
:101D90002878092802D3200E00F0D2F9C4F30740B6
:101DA00000F0CEF9C4F3072000F0CAF9E0B200F069
:101DB000C7F9012240213046FEF758FC00F0D0F967
:101DC0000120FEF77DFB002085F8270070BD000094
:101DD0001C0000200008004870B5124C02E000BF53
:101DE000FEF76EFB94F8270001284FF00100F7D0B2
:101DF00004F8270F00F0DAF90B4D002240212846A5
:101E0000FEF734FCC72000F09BF901224021284650
:101E1000FEF72CFC00F0A4F90A20FEF751FB00208D
:101E2000207070BD1C000020000800482DE9F04122
:101E30003D4C012684F8276002E00120FEF740FBBC
:101E4000FEF71AFC6428F8D300F0A4F8374987B2EB
:101E500044F2160308600821FA1A002548019F423F
:101E600030D00EDCA7F58047A7F111074FF0040230
:101E70004FF00203052F0ED2DFE807F035322F2C8A
:101E80002800032A11D0042A0AD06FF44053D21834
:101E900014D0012A0FD084F827500020BDE8F0812B
:101EA0000A2121704FF4806103E0092121704FF471
:101EB0000071E16119E02170E06116E007212170F5
:101EC0008021F6E7062121704021F2E705212170EB
:101ED0002021EEE722701021EBE703222270E8E7D1
:101EE0002370E26101E02670E36160814FF480516C
:101EF0002161E169090161610903B1FBF0F0E06072
:101F00004FF48030A061880A206200F0F1F80120CF
:101F100000F0B8F8022000F0B5F8032000F0B2F8A5
:101F200084F827500120B9E71C0000200800002099
:101F30002DE9F041164D07461646A869984200D390
:101F400003B90346B04221D9F218824201D9841B59
:101F500000E01C460846FFF7F3FE01466889B6FB21
:101F6000F0F201EB0208B6FBF0F100FB116623462C
:101F700032464146384600F031F8688908F10108D8
:101F8000811B641A00260744002CF0DCBDE8F081B8
:101F90001C0000202DE9F0410F4E00224021304668
:101FA000FEF764FB9F2000F0CBF8A52000F0C8F8F6
:101FB0000546A52000F0C4F80446A52000F0C0F8AE
:101FC0000746012240213046FEF750FB280440EA34
:101FD00004203843BDE8F081000800482DE9F041B5
:101FE0001C4616460F468046234D01E0FEF768FA70
:101FF00095F8270001284FF00100F7D085F8270059
:102000006889A04200D304B904463119814200D93D
:10201000841B07FB0066194F002240213846FEF75B
:1020200025FB0B2000F08CF82878092802D3300E0D
:1020300000F086F8C6F3074000F082F8C6F30720E8
:1020400000F07EF8F0B200F07BF8002000F078F8A5
:10205000A2B2642341460A48FEF7FEFF0122402156
:102060003846FEF703FB0120FEF72AFA002085F828
:102070002700BDE8F08100001C0000200008004897
:102080004400002070B5184E04460022402130461E
:10209000FEF7ECFA154D012C11D0022C19D01520A9
:1020A00000F04EF8A52000F04BF8044685F8260015
:1020B000012240213046FEF7D9FA204670BD0520A6
:1020C00000F03EF8A52000F03BF8044685F8240017
:1020D000EEE7352000F034F8A52000F031F8044692
:1020E00085F82500E4E70000000800481C000020F7
:1020F00070B5114D002240212846FEF7B7FA4B205B
:1021000000F01EF80024A52000F01AF8641CE4B2C8
:10211000042CF8D3094E0024A52000F011F8311941
:10212000641CE4B24870082CF6D32846BDE8704021
:1021300001224021FEF79ABA000800481C00002046
:1021400001B582B00A200090012301AA02A9034828
:10215000FFF7F4F89DF804000EBD000044000020D5
:1021600070B50120FEF7ACF90E4D00224021284643
:10217000FEF77CFA0520FFF7E3FF0B4CA520FFF7E5
:10218000DFFF84F824000120FEF79AF994F8240078
:10219000C007F3D12846BDE8704001224021FEF778
:1021A00065BA0000000800481C00002010B5094C6A
:1021B000002240212046FEF759FA0620FFF7C0FF13
:1021C000012240212046FEF751FABDE810400120CF
:1021D000FEF776B90008004802E008C8121F08C1DF
:1021E000002AFAD170477047002001E001C1121F98
:1021F000002AFBD170477CB5054661B10A226846CA
:10220000FDF7DEFFDDE900142846FFF7F4FF303468
:102210002C54401C7CBD00207CBD00000EB51E4827
:1022200050210170512141706FF0FD01684600F0AE
:1022300035F8FEF72FFAFFF726FDFFF76BFBFFF7E8
:10224000F5FBFFF7D3FBFFF7F1FDFFF724FBFFF7EB
:10225000D7F9114C01200502C4F80400FFF77AFDFC
:102260006068401C6060A842F8DDFFF7B5FDFEF72E
:1022700001F84FF47A742046FEF722F9FEF76AF867
:102280002046FEF71DF9FEF7A1F82046FEF718F9E3
:10229000FEF7D8F8FEE700000000002070B5054604
:1022A0000446002906DA4FF02D0004F8010BC1F1B5
:1022B000000104E003D14FF0300004F8010B204688
:1022C000FFF799FF00212154284670BD0203040541
:1022D000060708090A0B0C0D0E0F1010010203046B
:1022E00005060708090A0B0C0D0E0F100000000070
:1022F0000000000001020304060708091C2300086F
:10230000000000201C000000D8210008382300082D
:102310001C000020D4330000E82100080000000069
:10232000000000000000000001000000100000009C
:082330000000000000127A0019
:040000050800018965
:00000001FF
