:020000040800F2
:10000000E84E00209D0100084D5900089F4400085B
:100010008D5800082D0C00084170000800000000F9
:10002000000000000000000000000000475C000825
:1000300059110008000000004F590008B55E000883
:10004000B7010008B7010008B7010008B7010008B0
:10005000B7010008B7010008B7010008B7010008A0
:100060003F140008B7010008B7010008F90F0008A5
:100070000510000811100008B7010008B7010008BA
:100080001D100008B7010008B7010008B7010008FB
:10009000B7010008B7010008B701000845140008BF
:1000A000B7010008B7010008B7010008B701000850
:1000B000B7010008B7010008B7010008B701000840
:1000C000B7010008B7010008B7010008B701000830
:1000D000B7010008B7010008297000083570000852
:1000E00037140008B7010008B7010008B70100087D
:1000F000B7010008B7010008000000000000000080
:100100000000000000000000B7010008B70100086F
:100110000000000000000000B7010008B70100085F
:10012000B7010008B7010008B7010008B7010008CF
:10013000B7010008B7010008B5590008B701000869
:10014000B7010008000000000000000000000000EF
:10015000000000000000000000000000000000009F
:100160000000000000000000B7010008B70100080F
:10017000B701000800000000B701000800000000FF
:1001800000000000B7010008DFF80CD000F044FBCD
:100190000048004725850008E84E002006488047B3
:1001A00006480047FEE7FEE7FEE7FEE7FEE7FEE75C
:1001B000FEE7FEE7FEE7FEE7515F00088901000861
:1001C0002DE9F05F0546002092469B46884606468C
:1001D000814640241BE0284641464746224600F01F
:1001E00020F853465A46C01A914110D3114618467A
:1001F000224600F02BFA2D1A67EB01084F462246E3
:100200000120002100F022FA17EB00094E41201EC8
:10021000A4F10104DFDC484631462A464346BDE8E6
:10022000F09F202A04DB203A21FA02F000217047D7
:1002300021FA02F3D040C2F120029140084319464E
:100240007047D2B201E000F8012B491EFBD2704783
:100250000022F6E710B513460A4604461946FFF792
:10026000F0FF204610BD2DE9FE4F804681EA0300D5
:10027000C00F0C46009021F0004123F00045B8EB80
:100280000200A94105D24046214690461C460B4635
:10029000024623F00040104347D0270DC7F30A0061
:1002A000C3F30A510290401A019040286BDAC3F35D
:1002B000130040F4801B0098924620B10023D2EB3B
:1002C000030A63EB0B0B01985946C0F140025046FC
:1002D00000F0BCF906460D4650465946019A00F01A
:1002E000C4F910EB08006141002487EA115284EA46
:1002F000E7731A4340D0009A62B3019A012A4FEA89
:10030000075215DC001B61EB02014FF0004202EACC
:100310000752CDE90042001C41F5801132462B46C0
:1003200000F0FBF903B0BDE8F08F40462146F9E745
:10033000001B61EB0201001C41F5801300185B41BA
:100340002018A2F5001747EB030140EAD570B61953
:100350006D4111E06D084FEA360645EAC0754FEA77
:100360000752001B61EB0201001C41F58011490896
:100370004FEA30000019514132462B4603B0BDE828
:10038000F04F00F0BBB90098012240000023D0EBF1
:10039000020263EBE073009821464FEAE074B8EB89
:1003A000000061EB0401E9E783F000435BE781F0C3
:1003B000004158E72DE9FE4F81EA030404F00044B0
:1003C00021F0004100944FF0000B23F0004350EA6D
:1003D00001045ED052EA03045BD0C3F30A54C1F3B4
:1003E0000A552C44A4F2F3340194A0FB0254C1F347
:1003F000130141F48011C3F3130343F4801301FB91
:10040000024400FB034E840A970A44EA815447EAF7
:100410008357A4FB076802958D0A05FB07854FEA01
:10042000932C04FB0C542705029D4FEA065847EA1B
:100430001637B5EB08056EEB070C870E920E47EAF0
:10044000811742EA8312A7FB0201B6EB0B0164EBB2
:1004500000042B0D43EA0C335E1844EB1C50DA46C3
:100460005146E7FB0201C5F313044FEA0B3343EA9D
:1004700014534FEA0432019C43EA0603A4F10C042E
:100480000294009CCDE900B400F047F903B0BDE848
:10049000F08F00200146F9E72DE9F04D81EA0304D1
:1004A00004F0004B21F0004514464FF0000A23F001
:1004B000004150EA050220D054EA01021DD0C5F3E4
:1004C0000A570246C5F31303C1F31300C1F30A56DA
:1004D00040F4801543F48013A7EB0608101BD646A2
:1004E00008F2FD3873EB050002D308F1010801E0C2
:1004F00092185B41B8F1000F03DA00200146BDE815
:10050000F08D00204FF48011064684460EE0171B44
:1005100073EB050705D3121B63EB050306434CEA97
:10052000010C49084FEA300092185B4150EA01077C
:10053000EDD152EA030012D082EA040083EA0501F9
:10054000084305D0101BAB4106D20122002306E070
:1005500000224FF0004302E06FF0010253101AEB4B
:1005600006004CEB085110EB0A0041EB0B01BDE813
:10057000F04D00F0C3B80EB540F2334102910021B6
:10058000CDE900110A460B4600F0C7F803B000BDE4
:10059000C1F30A5210B5C1F3130140F2FF3341F425
:1005A00080119A4201DA002010BD40F233439A4292
:1005B000A2F2334203DC5242FFF733FE10BD9040FB
:1005C00010BD00F0004230F000400AD0C10D01F52E
:1005D0006071C0F3160042EA0151C208400711439E
:1005E000704700200146704701F0004330B421F00D
:1005F000004150EA010206D00A0DA2F56072C1F373
:100600001301002A02DC30BC00207047440F44EA8A
:10061000C104C100E01830BC00EBC25000F037B894
:1006200030B50B46014600202022012409E021FAC2
:1006300002F59D4205D303FA02F5491B04FA02F5BF
:100640002844151EA2F10102F1DC30BD202A04DB92
:10065000203A00FA02F1002070479140C2F12003D5
:1006600020FA03F3194390407047202A06DBCB178A
:10067000203A41FA02F043EAE07306E041FA02F35D
:10068000D040C2F12002914008431946704700292A
:10069000A8BF7047401C490008BF20F00100704708
:1006A00010B4B0FA80FC00FA0CF050EA010404BF68
:1006B00010BC704749B1CCF1200421FA04F411FABE
:1006C0000CF118BF012121430843A3EB0C01CB1D02
:1006D0004FEA00614FEA102042BF002010BC704773
:1006E00000EBC35010440029A4BF10BC7047401C4D
:1006F000490008BF20F0010010BC704710B5141E5F
:1007000073F1000408DA401C41F1000192185B41CA
:100710001A4301D120F0010010BD2DE9F04D9246A1
:100720009B4611B1B1FA81F202E0B0FA80F22032B8
:100730009046FFF78BFF04460F4640EA0A0041EA65
:100740000B0153465A46084313D0114653EA0100A1
:1007500019D0C8F140025046FFF763FD05460E462A
:10076000504659464246FFF771FF084305D0012025
:1007700004E020463946BDE8F08D0020054346EAF6
:10078000E0762C4337430A986305E40AA0EB08009F
:100790000022FD0A44EA47540A3002D500200146EF
:1007A000E9E7010510196941DDE9084500196941CA
:1007B000BDE8F04DA2E7C1F30A52C1F3130140F2C4
:1007C000FF3341F480119A4202DA0020014670475B
:1007D00040F233439A42A2F2334202DC5242FFF724
:1007E00020BDFFF733BF000030B5041E71F10004D7
:1007F00004DB4FF00044404264EB0101141E73F12E
:10080000000405DB1C464FF00043524263EB040337
:10081000994208BF904230BD064C074D06E0E068A3
:1008200040F0010394E8070098471034AC42F6D337
:10083000FFF7AEFC443A0108643A010870B58C1821
:1008400010F8015B15F0070301D110F8013B2A11E4
:1008500006D110F8012B03E010F8016B01F8016BD1
:100860005B1EF9D12B0705D40023521E0DD401F8CD
:10087000013BFAE710F8013BCB1A921C03E013F896
:10088000015B01F8015B521EF9D5A142D8D30020CB
:1008900070BD000070B5044600688168C943C9078F
:1008A0001CD1816821F00101816001F0C1FB054686
:1008B0000FE000BF01F0BCFB401B022809D9A06A71
:1008C00040F01000A062E06A40F00100E062012008
:1008D00070BD20688068C043C007EBD0002070BDA9
:1008E000F8B500260446009600688168C943C90728
:1008F00028D0816841F001018160134813490068E4
:10090000B0FBF1F000E0401E00900028FBD101F0A8
:100910008FFB054611E000BF01F08AFB401B022857
:100920000BD9A06A40F01000A062E06A40F001001C
:10093000E06284F824600120F8BD20688068C0432C
:10094000C007E9D10020F8BD0005002040420F009B
:100950007CB52A4C05462069016982208847288099
:10096000002849D0206901AA694643698220984736
:10097000BDF804000B21A0F5B47080B2ADF80400FE
:10098000B0FBF1F020B16188884201D9491E88B2DC
:10099000BDF8001040F6B832ADF80400914202D81C
:1009A000A1F61E7101E0A1F6D8614942ADF8001030
:1009B00089B20F22B1FBF2F121B12288914201D913
:1009C000521E91B2ADF80010A2688BB2934201D9C9
:1009D0008A1A00E0521A93B2E268904201D9821A50
:1009E00000E0121A92B21A44052A01D9C4E9021091
:1009F00020896880A089A8807CBD0000A004002018
:100A000070B50B4D0B4C01262880698061688220EF
:100A10008847A0F50061113908D12C6100262168B2
:100A2000822088472869C16882208847304670BD87
:100A3000A00400206804002030B54FF400742DEDB0
:100A4000068BADF2044D2346002240F2566180A889
:100A500006F0C8FC2346002240F25561684606F0C5
:100A6000C1FC6849684CB1F8F801B1F8FA21B1F855
:100A7000FE311044B1F8FC211A441044800800EE05
:100A8000100ABDF8F801BDF8FA21BDF8FE31104496
:100A9000BDF8FC21B8EE400A1A441044800800EE6C
:100AA000900A5A480022F8EE600A30EE600A84ED9F
:100AB000010A00BF31F8123000EE903A00EB8203D9
:100AC000521CF8EE600AFF2A70EEC00AC3ED000A5D
:100AD000F0DD90ED5E0AD0ED5F0AB1EE0C1A002158
:100AE00030EE200AD0ED600A30EE200AD0ED610A27
:100AF00030EE200AD0ED620A30EE200AD0ED630A13
:100B000030EE200AD0ED640A70EE200A80EE810AF1
:100B100084ED020A00EB8102491CD2ED000AFF2994
:100B200080EE801A82ED001AF4DD374B0021143379
:100B300000EB810203EB810592ED000AD5ED000A7E
:100B4000491CFF2980EE201A82ED001AF0DD07F023
:100B500077FE2F4890ED400AD0ED410A30EE200A92
:100B6000D0ED420A30EE200AD0ED430A30EE200AE2
:100B7000D0ED440A30EE200AD0ED450A30EE200ACE
:100B8000D0ED460A30EE200AD0ED470A30EE200ABA
:100B9000D0ED480A30EE208A84ED038A18EE100A60
:100BA000FFF70FFD9FED1B1B53EC112BFFF702FC12
:100BB00041EC1A0B18EE100AFFF703FD41EC190B7C
:100BC00018EE100AFFF7FDFC9FED141B53EC112BE0
:100BD000FFF7F0FB53EC192BFFF7ECFB53EC1A2B50
:100BE000FFF7E2FB9FED0F1B53EC112BFFF73BFBD5
:100BF000FFF7FAFC0449103108600DF2044DBDEC1A
:100C0000068B30BD1E36002054000020203C002002
:100C100020380020B0726891EDAC344044FAEDEB1E
:100C2000C039FB3F92CB7F48BFB95040FEE770B55B
:100C300000244FF0904501222021284601F0F3F9CD
:100C4000C82000F073FA00222021284601F0EBF9B9
:100C5000C82000F06BFA641C282CECDB70BD00008F
:100C600010B50B4C01224021204601F0DCF9012295
:100C70002021204601F0D7F900220121054801F08A
:100C8000D2F920460022BDE81040082101F0CBB97E
:100C9000000400480010004838B542F2FF00009000
:100CA000FF23F0224221002003F018FE42F6E06507
:100CB0002B4600223021354806F0A2FA334C192386
:100CC000F0225B210020009403F0BAFD2B460022A5
:100CD0003121204606F094FA1923F02274210020D5
:100CE000009403F0ADFD2B4600223221204606F091
:100CF00087FA1923F0228D210020009403F0A0FD33
:100D00002B4600223321204606F07AFA1923F022DE
:100D1000A6210020009403F093FD2B4600223421ED
:100D2000204606F06DFA1923F022BF21002000941E
:100D300003F086FD2B4600223521204606F060FA9E
:100D40001923F022D8210020009403F079FD2B46CE
:100D500000223621204606F053FA1923F022FD2105
:100D60000020009403F06CFD2B4600223721204622
:100D700006F046FA1923F0224FF48B7100200094FC
:100D800003F05EFD02490720087038BD0C05002005
:100D90000000002038B542F6E0652B4600223821DD
:100DA0001A4806F02DFA194C1923F022742100205C
:100DB000009403F045FD2B4600223921204606F021
:100DC0001FFA1923F0228D210020009403F038FD32
:100DD0002B4600223A21204606F012FA1923F0226F
:100DE000A6210020009403F02BFD2B4600223B217E
:100DF000204606F005FA1923F022BF2100200094B6
:100E000003F01EFD02490820087038BD0C050020C3
:100E10000000002038B542F6E0652B4600223C2158
:100E20001A4806F0EDF9194C1923F022742100201C
:100E3000009403F005FD2B4600223D21204606F0DC
:100E4000DFF91923F0228D210020009403F0F8FC33
:100E50002B4600223E21204606F0D2F91923F0222B
:100E6000A6210020009403F0EBFC2B4600223F213A
:100E7000204606F0C5F91923F022BF210020009476
:100E800003F0DEFC02490920087038BD0C05002083
:100E90000000002038B542F6E0652B4600224021D4
:100EA0001A4806F0ADF9194C1923F02274210020DC
:100EB000009403F0C5FC2B4600224121204606F099
:100EC0009FF91923F0228D210020009403F0B8FC33
:100ED0002B4600224221204606F092F91923F022E7
:100EE000A6210020009403F0ABFC2B4600224321F6
:100EF000204606F085F91923F022BF210020009436
:100F000003F09EFC02491020087038BD0C0500203B
:100F1000000000200649B1F90620B1F9021001FBDA
:100F200000204FF47A7190FBF1F080B2704700001E
:100F3000BC0400200649B1F90820B1F9041001FBF6
:100F400000204FF47A7190FBF1F080B270470000FE
:100F5000BC0400202DE9F047254E0421304601F065
:100F60005DF8244C04216068401C6060304601F04C
:100F700055F84FF4FA774FF400780C254FF40049F8
:100F80004FF0904AC0B1002060706068B0F5487FB3
:100F90002BD9A0780B2828D100224146304601F0F9
:100FA00042F8A57000224946504601F03CF8384608
:100FB00000F0E4FD06F002FC6078401CC0B26070F6
:100FC0001E28E2D1A0780B28DFD1FFF730FE38468B
:100FD00000F0D4FDFFF72BFE384600F0CFFDFFF701
:100FE00026FE384600F0CAFDD6E7BDE8F0870000CF
:100FF0000014004894040020014800F00BBD0000DC
:101000001C450020014800F005BD0000A04800205C
:10101000014800F0FFBC00005C480020014800F0DF
:10102000F9BC0000184800200B4B016814229942BB
:1010300007D20A4B1944B1FBF2F189000164084957
:1010400008E0054B5B421944B1FBF2F189000164F1
:1010500001490839C163704708040240F8FFFDBF29
:101060000000024030B590F840500124AC40C56B00
:101070006C60046863604368102B036803D0996058
:101080000068C26030BD9A600068C16030BD000079
:101090000E48016821F080710160016841F08071A3
:1010A00001600B48016821F001010160016841F015
:1010B000010101600021416000BF00BF00BF406826
:1010C00008B100207047012070470000FCED00E0EF
:1010D000001000E031B5084D6C6801F069FC07496B
:1010E000B0FBF1F000994843009068680099001B3C
:1010F0008842FAD338BD0000001000E040420F00E3
:1011000031B5084D6C6801F053FC0749B0FBF1F0B4
:1011100000994843009068680099001B8842FAD300
:1011200038BD0000001000E040420F0031B5084D0E
:101130006C6801F03DFC0749B0FBF1F000994843B1
:10114000009068680099001B8842FAD338BD0000FF
:10115000001000E040420F0070470000F0B585B07D
:1011600042F2FF06F0231A4642210020009603F0C7
:10117000B5FB4FF6FF755949CDE901568888ADF8A2
:1011800000000B68ADF81000039355A2DE210A2081
:1011900003F0CEFD5FF0000404F1E307B9B22A4684
:1011A0009A2003F07BFBB9B22A469B2003F076FB22
:1011B000641C142CF0DB4F4833462A4690ED000A9D
:1011C000DE215A2007F0A2FB42F6E0652B46002202
:1011D0004421494806F014F8474C1923F0224621CF
:1011E0000020009403F02CFB2B46002245212046D2
:1011F00006F006F81923F0225F210020009403F086
:101200001FFB2B4600224621204605F0F9FF19233B
:10121000F02278210020009403F012FB2B460022DC
:101220004721204605F0ECFF1923F02291210020F0
:10123000009403F005FB2B4600224821204605F0D0
:10124000DFFF1923F022AA210020009403F0F8FA0E
:101250004FF4255300224921204605F0D1FF1623E3
:10126000F022C3210020009403F0EAFA2B4600226A
:101270001D21204605F0C4FF1923F022F121002092
:10128000009403F0DDFA0A23F022F12100200096F9
:1012900003F024FB2B4600221E21204605F0B0FF60
:1012A0001923F0224FF485710020009403F0C8FA4E
:1012B0002B4600221F21204605F0A2FF1923F02211
:1012C00040F223110020009403F0BAFA07F054FB17
:1012D0000A491220087005B0F0BD0000300000205F
:1012E00020542E42696C3A202020202020756D6FFA
:1012F0006C2F4C00640000200C0500200000002032
:10130000FEB542F2FF048723F022642100200094FE
:1013100003F0E4FA4FF6FF763C23DC2264210A2036
:10132000009603F0DBFA3623D62267210D200094C5
:1013300003F0D4FA4FF47840144DCDE90104A888A5
:10134000ADF800002B6812A27821142003F0F0FC05
:101350003C23DC22AF210A20009603F0BFFA36239B
:10136000D622B2210D20009403F0B8FACDE9016431
:10137000A888ADF800002B6807A2C321142003F051
:10138000D7FC084911200870FEBD00003000002085
:101390002053494C200000002056415A4745432025
:1013A00000000000000000202DE9F05F0025DDE9CD
:1013B0000ABA871889468046CE1838E0444617E0B6
:1013C000A0B25A46494603F069FA09EB050081B21A
:1013D000A0B25A4603F062FAB1B2A0B25A4603F084
:1013E0005DFA701B81B2A0B25A4603F057FA641C32
:1013F000A742E5DC4C4617E0A1B25A46404603F04E
:101400004DFA08EB0500A1B280B25A4603F046FA45
:10141000A1B2B8B25A4603F041FA781BA1B280B229
:101420005A4603F03BFA641CA642E5DC6D1C5545A8
:10143000C4DBBDE8F09F4FF4806000F01FBD0420C6
:1014400000F01CBD4FF4807000F018BD2DE9F04194
:1014500006468C1B04F6B8350F4604F57A6409E09D
:10146000304605F0FBFD284605F0F8FD204605F066
:10147000F5FD761CBE42F3D3094940F257604FF4A4
:1014800024640880022300222146054806F03CF926
:101490002146BDE8F04102230022014805F0A2BF29
:1014A000400000203EB54FF6E074A023F0225A2100
:1014B0000020009403F012FA4FF47840CDE90104C3
:1014C0000D480EA28188ADF8001003686421052044
:1014D00003F02EFC0020CDE901040B480BA281880B
:1014E000ADF800100368B421052003F021FC0D497C
:1014F000122008703EBD00003800002020484154F2
:10150000413A303320000000300000202052656650
:101510006572616E732044697369206F6C63756DC9
:10152000000000000000002070470000F8B5002413
:10153000009490F824202546012A12D0012280F838
:1015400024204A681F23072A0DD20668776B521E93
:1015500002EB820293409F430B6893401F437763E3
:1015600019E00220F8BD06680D2A0AD2376BD21F97
:1015700002EB820293409F430B6893401F43376303
:1015800009E0F76A0D3A02EB820293409F430B6831
:1015900093401F43F7620A68072306680A2A0AD99C
:1015A000F7680A3A02EB420293409F438B689340EC
:1015B0001F43F76008E0376902EB420293409F4304
:1015C0008B6893401F4337610A68102A04D0112AA0
:1015D00002D0122A16D01AE00268936843F400037E
:1015E00093600968102912D10B490C4A0968B1FBB4
:1015F000F2F101EB8101490000E0491E0091002950
:10160000FBD104E006490A6842F080720A6080F863
:1016100024502046F8BD00000005002040420F0085
:10162000000001400068C06C704700002DE9F041E7
:101630004FF0000704003D467ED0A06A002628B97E
:10164000E66284F82460204600F07EF82046FFF72A
:1016500021F9A16AC90600D420B1A06A40F01000A7
:10166000A06269E0A16A21F4885141F00201A162FF
:101670006268E169237B0A4347EA43010A43A168A0
:101680004FF48077B94209D0012907D05FF00001FB
:1016900094F814C0BCF1010F02D00AE03946F7E714
:1016A000F3B1A36A43F02003A362E36A43F00103AA
:1016B000E3622368D3F804C02CF4694C4CEA010CB3
:1016C000C3F804C021688B68DFF870C003EA0C031C
:1016D00013438B60A168B9420BD0012909D00CE0FB
:1016E000DFF85CC0A3690CEB43330B4343F40061A8
:1016F000DFE7218A0D05A5F580152168CB6A23F463
:1017000070032B43CB62216889680E4B19409142CC
:1017100008D1E662A16A21F0020141F00101A16253
:10172000BDE8F081A06A20F0020040F01000A06245
:10173000E06A40F00100E0620120F1E7FDF7E1FF1F
:1017400000E0FFFFFE0E1FFF70B586B005461421B6
:101750006846FEF77DFD1C492868884231D11B4947
:10176000886940F400708861886900F40070059011
:10177000486940F4003048614869002600F40030B0
:101780000590012000900320CDE9010669464FF045
:10179000904000F07FFB0F4C0D48C4E9000680200C
:1017A000C4E9026040002061800060612020C4E93B
:1017B0000606204600F082F908B1FFF7B5FE2C625C
:1017C000656206B070BD00000024014000100240B8
:1017D000080002401C4500202DE9F047044600683F
:1017E0000D4600268068B046C00508D5A06A40F0C6
:1017F0002000A06284F824800120BDE8F08700F07A
:1018000017FC814620684168C90503D4C16A11F4F8
:10181000700F12D03C494A68496812F4404F11D009
:10182000C90413D4202112E0681C06D0A5B300F02F
:10183000FFFBA0EB0900A8423ED8206800688007A3
:10184000F2D544E08904EDD4022100E0802107694B
:101850002E4A17424FEA62024FEAA2130DD1C7681F
:101860004FEA621C17EA0C0F07D10769174214D11F
:10187000C068184211D1142012E00769174202D142
:10188000C2681A4206D00369214A134207D1C068D0
:10189000104204D1542003E00EE0292000E0FC2097
:1018A00010FB01F711E0681C0ED02DB100F0C0FB59
:1018B000A0EB0900A84207D9A06A40F00400A0628A
:1018C00084F82480032098E7761CBE42EBD321687D
:1018D0006FF012000860A06A40F40070A0622068F7
:1018E0008068C0F3424007280CD1207B50B9A06A21
:1018F00020F48070A062A06AC00403D4A06A40F003
:101900000100A062002078E70010024024499224E0
:101910004992240010B5044690F82400012808D00C
:10192000012084F824002046FEF7DAFF010002D0EF
:101930002CE0022010BDA06A40F20122904340F446
:101940008070A06220684268520505D5A26A22F420
:10195000005242F48052A262A26AD3044FF0000205
:1019600004D5E36A23F00603E36200E0E26284F850
:1019700024206FF00202026020688268C2F34242B3
:10198000072A826804D042F480128260084610BDA3
:1019900042F4A002F9E710B5044690F824000128AB
:1019A00007D0012084F824002046FEF773FF10B111
:1019B00007E0022010BDA16A21F4885141F0010125
:1019C000A162002184F8241010BD10B590F82110F8
:1019D0000024022903D004218163012418E0016856
:1019E0000A6822F00E020A6001680A6822F0010209
:1019F0000A6090F84020C36B012101FA02F25A609C
:101A000080F82110002180F82010416B01B1884737
:101A1000204610BDF0B4C16B0D6801680C68066CFF
:101A2000042202FA06F32B420FD063070DD50B6890
:101A30009B0603D40B6823F004030B6090F840105E
:101A40008A40C16B4A60C16A1BE0022303FA06F7B1
:101A50002F424FF0000C4FF0010216D0A70714D50B
:101A60000C68A40605D40C6824F00A040C6080F805
:101A7000212090F840108B40C16B4B6080F820C053
:101A8000816A002918D0F0BC08470823B3402B42D4
:101A900012D0230710D50B6823F00E030B6090F8CB
:101AA0004010C36B02FA01F15960826380F8212073
:101AB00080F820C0016BE4E7F0BC704770B504000B
:101AC00021D0022084F821002268116843F6F070CA
:101AD0008143D4E901031843D4E903352B43184368
:101AE00063691843A3691843E36918430843106006
:101AF0002046FFF799FA0020A063012184F8211005
:101B000084F8200070BD012070BD70B5044690F8C7
:101B10002000002501280CD0012084F8200094F832
:101B200021600020012E06D084F8200002252846DE
:101B300070BD022070BD022684F82160A063206879
:101B4000066826F0010606602046FFF78BFAE06A79
:101B500000282068016802D041F00E0106E041F043
:101B60000A0101602068016821F004010160206819
:101B7000016841F001010160D9E7000070B5044639
:101B800000F056FA0546601C02D004480078044470
:101B900000F04EFA401BA042FAD370BDF4040020BE
:101BA0002DE9F84F00230126DFF814C10F2780E04C
:101BB00006FA03F414EA01027AD023F0030565441F
:101BC000AA46D5F808909D074FEA157E07FA0EF54C
:101BD00005EA090B0095B0F1904F05D0394DA842A8
:101BE00005D14FF0010816E04FF0000813E0364D24
:101BF000A84202D14FF002080DE0344DA84202D1B4
:101C00004FF0030807E0324DA84202D14FF004081C
:101C100001E04FF0050808FA0EF8D84524D1DFF8A6
:101C2000B480D8F8009029EA0209C8F8009008F1B9
:101C30000408D8F8009029EA0209C8F8009008F1D1
:101C40000408D8F8009029EA0209C8F8009008F1C1
:101C50000408D8F800509543C8F80050009DDAF801
:101C60000820AA43CAF80820D0F800804FEA4309A8
:101C7000032202FA09F228EA0208C0F80080DD080F
:101C800000EB8505AA46D5F820804FEA43794FEA54
:101C9000D96907FA09F528EA0508CAF82080856895
:101CA000954385604568A5434560C4689443C46016
:101CB0005B1C31FA03F27FF47BAFBDE8F88F0000C4
:101CC000000001400004004800080048000C0048E3
:101CD000001000480004014070B504465A48FFF760
:101CE00025FA5A4880780B2872D1B4F5806F13D04A
:101CF000042C6DD1564C00228021204600F093F92F
:101D0000544A0221491C9142FCD32046BDE8704050
:101D10000122802100F087B94F4C504D21780029D5
:101D20000BD00C290AD042F2107602291BD01529BB
:101D300019D008294DD009295ED073E0012208216D
:101D4000284600F070F94FF47A60FFF7EFF906F0DB
:101D500069FE00220821284600F065F9FEF76CFEB6
:101D600007F0CAFA30E03F4C9FED3D0A012284EDB6
:101D7000000A0821284600F056F93046FFF7D6F948
:101D800006F050FE3046FFF7D1F900220821284620
:101D900000F049F9FEF74BFFFEF74EFED4ED000AC6
:101DA0009FED311A314980EE810A10EE100A884207
:101DB00002DA07F009FC07E0FFF774FB40F6C410F5
:101DC000FFF7DCFE06F0F4FB6420FFF7D7FE29E006
:101DD00038E000220821284600F025F93046FFF7B8
:101DE000A5F906F01FFE00220821284600F01BF985
:101DF000FEF71DFF0A2014E001220821284600F00A
:101E000012F93046FFF792F906F00CFE3046FFF764
:101E10008DF900220821284600F005F9FEF707FF9A
:101E20000B2020701248FFF781F900220821284674
:101E300000F0F9F8BDE870404FF400720D490E480B
:101E400002F0FABA70BD0000E09304009404002090
:101E5000000C004880969800000000200004004814
:101E60000000000064000020CDCC88410000A041AB
:101E7000A08601001E36002098470020044910B5B6
:101E80000A68024202D00860FFF726FF10BD00007A
:101E9000140401402DE9F84FDFF864B100234FF03E
:101EA000010C4FF0030A4FF00F090BF1040EA0E0F4
:101EB0000CFA03F6324072D04C68022C01D0122C7E
:101EC0000ED1DC0800EB8408D8F820405D07EF0E47
:101ED00009FA07F5AC430D69BD402543C8F8205009
:101EE00007685D0091F804800AFA05F408F0030819
:101EF000A74308FA05F848EA0708C0F800804F68C9
:101F0000012F05D0022F03D0112F01D0122F11D194
:101F10008768D1F80C80A74308FA05F848EA070853
:101F2000C0F808804768B7430E79C6F300169E4094
:101F30003E434660C668A6438C68AC403443C460E8
:101F40004C68E40054D52F4CA56945F00105A56106
:101F5000A46923F0030504F0010400942A4C2E190F
:101F6000B4689D072F0F09FA07F5AC43B0F1904F05
:101F700004D0264DA84203D1012512E0002510E02F
:101F8000234DA84201D102250BE0224DA84201D1E8
:101F9000032506E0204DA84202D1042501E027E0F8
:101FA0000525BD402543B560DBF800405D464E6821
:101FB0009443F60300D514432C60DEF800407546C8
:101FC0004E689443B60300D514432C600C4D08357D
:101FD0002C684E689443F60200D514432C60084DDB
:101FE0000C352C684E689443B60200D514432C601F
:101FF0005B1C0A6832FA03F47FF45AAFBDE8F88F2D
:1020000000040140001002400000014000040048AC
:1020100000080048000C0048001000480069084013
:1020200000D0012070470AB181617047816270471A
:102030000148806870470000F404002090F84120B7
:10204000202A24D190F84020012A20D0012280F8B3
:102050004020242280F841200268136823F0010305
:1020600013600268136823F48053136002681368D6
:102070000B43136001680A6842F001020A602021E4
:1020800080F84110002180F8401008467047022077
:10209000704790F84120202A22D190F84020012A50
:1020A0001ED0012280F84020242280F841200268BE
:1020B000136823F0010313600268136823F470634C
:1020C00043EA0121116001680A6842F001020A60D6
:1020D000202180F84110002180F840100846704708
:1020E00002207047074908B58A6942F001028A61F7
:1020F000896901F00101009103490A6802430A60FD
:1021000008BD0000001002400000014010B50400AE
:1021100013D0242084F841002068016821F00101D7
:102120000160204600F0C6F90020606484F8410098
:1021300044F8300FA074207410BD012010BD0000C1
:1021400070B5040004D094F84100002510B106E0F9
:10215000012070BD84F84050204600F0BFF92420D3
:1021600084F841002068016821F001010160606885
:10217000216820F0706008612068816821F40041C6
:102180008160E0680128A06807D040F4044021681D
:102190008860E068022803D006E040F40040F6E7DB
:1021A00021684FF40060486020684168114A11437B
:1021B00041602068C16821F40041C160D4E9040194
:1021C0000843A16940EA01202168C860D4E90701F9
:1021D0000843216808602068016841F0010101603E
:1021E0006564202084F84100256384F84250002073
:1021F00070BD0000008000022DE9FF4F83B004464F
:10220000DDE9108790F84100DDF848909A46934642
:10221000202874D15FEA080014D09FB194F84000E0
:1022200001286CD0012084F84000FFF701FF06462A
:10223000012200901923D103204602F0FFF9002863
:1022400071D103E04FF4007060646CE0222084F8E8
:102250004100402084F8420000256564C4F82480D1
:1022600067856563CDE9009653465A462046049932
:1022700002F06AF910B184F8405054E0618D35489D
:10228000FF274FF080784FF0007AFF2904D9278587
:102290003A464346009005E0618D2185009094F810
:1022A000282053462046049902F0B2F94B460022FA
:1022B00004212046009602F0C1F9A0BB2068406AC4
:1022C000616A0870606A401C6062208D401E81B2A5
:1022D0002185608D401E6085608DD8B1D1B94B4697
:1022E000002280212046009602F0A8F9D8B9608D1E
:1022F000FF2805D927853A464346009506E026E0A3
:10230000608D2085009594F8282053462046049936
:1023100002F07EF9608D0028C8D132464946204639
:1023200002F0B8F918B1012007B0BDE8F08F2168BC
:102330002020C86121684A68074B1A404A6084F827
:10234000410084F8425084F840500020ECE702201D
:10235000EAE700000024008000E800FE2DE9FF4FBE
:1023600083B00446DDE9108790F84100DDF848901D
:102370009A469346202871D15FEA080014D09FB195
:1023800094F84000012869D0012084F84000FFF74C
:102390004FFE0646012200901923D103204602F089
:1023A0004DF900286ED103E04FF40070606469E0DD
:1023B000212084F84100402084F842000025656413
:1023C000C4F8248067856563CDE9009653465A4674
:1023D0002046049902F0EAF810B184F8405051E028
:1023E000608DFF274FF080784FF0007AFF2804D9E6
:1023F00027853A464346009505E0608D2085009587
:1024000094F8282053462046049902F001F93246F8
:102410004946204602F064F9A0BB606A2168007852
:102420008862606A401C6062608D401E6085208DFD
:10243000401E80B22085618DD9B1D0B94B460022B3
:1024400080212046009602F0F9F8D8B9608DFF2867
:1024500005D927853A464346009506E026E0608D7B
:102460002085009594F8282053462046049902F0D0
:10247000CFF8608D0028CAD132464946204602F086
:1024800009F918B1012007B0BDE8F08F20682021BC
:10249000C16120684268064B1A40426084F84110CE
:1024A00084F8425084F840500020ECE70220EAE72C
:1024B00000E800FE0068074988420AD10648C16961
:1024C00021F48001C1614FF4C0614FF09040FFF7EB
:1024D00067BB7047005800400010024010B586B03E
:1024E000044614216846FDF7B3FE1349206888426C
:1024F00020D1124C606940F4003060616069694627
:1025000000F4003005904FF4C0600090122001905C
:102510000120029003200390042004904FF090408B
:10252000FFF7B8FCE06940F48000E061E06900F486
:102530008000059006B010BD005800400010024019
:10254000024881680278114481607047F4040020D9
:10255000074810B5016841F010010160032000F048
:102560006DF8002000F006F800F024F8002010BDFF
:102570000020024070B50D4D04464FF47A71287862
:10258000B1FBF0F00A490968B1FBF0F001F0AFFCD3
:1025900048B9102C07D200222146501E00F02EF818
:1025A00000206C6070BD012070BD0000F4040020AC
:1025B00000050020094808B5816941F001018161E9
:1025C000816901F001010091C16941F08051C1614F
:1025D000C06900F08050009008BD0000001002406B
:1025E000002809DB00F01F02012191404009800012
:1025F00000F1E020C0F8001170470000F0B40E4B6D
:102600001B680C46C3F30223C3F10705042D00D950
:102610000425191D072901D2002300E0DB1E012635
:1026200006FA05F1491E214099409E40761E16404B
:102630003143F0BC05F0B2B80CED00E0064900F003
:10264000070208684FF6FF03184040EA0220034AD9
:1026500010430860704700000CED00E00000FA0530
:10266000074908B5CA6942F08052CA61C96901F0D8
:102670008051009103490A6802430A6008BD0000C6
:1026800000100240007000400248016841F480716F
:1026900001607047007000402DE9F84F0546006862
:1026A0006E4CC0036FD5E0690026C00008D4E06915
:1026B00040F08050E061E069012600F08050009019
:1026C00067480168C90512D40168804641F48071E9
:1026D0000160FFF7ADFC074605E000BFFFF7A8FC6F
:1026E000C01B642835D8D8F80000C005F6D5206A8C
:1026F00010F4407053D0A98801F4407181424ED04B
:10270000206A4FF4803191FAA1F2B2FA82F2970076
:10271000544A4FF00108174420F44070C7F8008471
:1027200091FAA1F1B1FA81F102EB81010023C1F824
:1027300000342062C00732D0FFF77AFC074641F22E
:10274000883A4FF0020907E0FFF772FCC11B5145C0
:1027500002D90320BDE8F88F99FAA9F1B1FA81F105
:1027600041F040014846B8EB511F01D121680CE00F
:1027700090FAA0F1B1FA81F141F04001B0EB511FA4
:1027800002D1216A01E015E0616A99FAA9F0B0FA74
:1027900080F000F01F0008FA00F21142D4D0206A45
:1027A000696820F44070084320621EB1E06920F09F
:1027B0008050E0612878C00705D0206BA96820F020
:1027C0000300084320632878800705D5206BE9685B
:1027D00020F44030084320632878400705D5206B5B
:1027E000296920F44020084320632878800605D515
:1027F000206B696920F0100008432063286880037B
:1028000005D56068A96A20F48000084360602878D4
:10281000400605D5206BA96920F0200008432063FD
:102820002878000605D56068E96920F4404008432F
:1028300060602888000505D56068296A20F0784026
:10284000084360602888400505D5206B696A20F040
:1028500040000843206300207CE700000010024095
:1028600000700040000042422DE9F0470F4605008D
:1028700069D04A4E306800F00700B84209D230688B
:1028800020F0070038433060306800F00700B8429D
:1028900059D12878424C800705D56068A96820F096
:1028A000F000084360602878C0073DD069680120C7
:1028B00001290DD0022923D05FF0020393FAA3F27D
:1028C000B2FA82F242F02002520904D0226803E0F8
:1028D0004FF40033F2E7626A93FAA3F3B3FA83F397
:1028E00003F01F03984002422DD0606820F00300DF
:1028F00008436060FFF79CFB804641F288390CE09A
:102900004FF00073DAE700BFFFF792FBA0EB08017E
:10291000494502D90320BDE8F0876068696800F086
:102920000C00B0EB810FEFD1306800F00700B84227
:102930000BD9306820F0070038433060306800F071
:102940000700B84201D00120E5E72878400705D507
:102950006068E96820F4E060084360602878000758
:1029600006D56068296920F4605040EAC1006060C3
:1029700000F054F86168F02292FAA2F201F0F0013E
:10298000B2FA82F2D140074A515CC8400649086059
:1029900006480068FFF7EEFD0020BCE7002002407B
:1029A000001002402C3A010800050020F804002025
:1029B00001480068704700000005002008480949E8
:1029C000006849684FF4E06292FAA2F201F4E06113
:1029D000B2FA82F2D140044A515CC840704700000C
:1029E00000050020001002403C3A0108084809494F
:1029F000006849684FF4605292FAA2F201F4605103
:102A0000B2FA82F2D140044A515CC84070470000DB
:102A100000050020001002403C3A0108164A10B59B
:102A20005168164801F00C03042B20D0082B1ED14E
:102A30004FF4701494FAA4F401F47013B4FA84F40B
:102A4000E3400F4CD26AE45C0F2393FAA3F302F045
:102A50000F02B3FA83F3DA40094B1033C9039A5CCF
:102A600006D500231946FDF7ABFBA0FB040110BD02
:102A70000448A4FB000110BD0010024000127A00BF
:102A80000C3A010800093D002DE9F84F050071D00E
:102A90002878FC4EC0074FF0010425D07068670409
:102AA000C0F38100012807D07068C0F381000228BC
:102AB0001BD17068C00318D597FAA7F0B0FA80F060
:102AC00040F02000400901D0306800E0706A97FAB9
:102AD000A7F1B1FA81F101F01F0104FA01F10842F6
:102AE00065D068680028D2D061E06868B0F5803FA2
:102AF0000BD010B1B0F5A02F17D0306820F4803083
:102B00003060306820F4802002E0306840F480308B
:102B10003060F06AA96820F00F000843F06268682E
:102B200020B3FFF785FA80460AE0306840F4802041
:102B30003060EAE7FFF77CFAA0EB0800642871D860
:102B400097FAA7F0B0FA80F040F02000400901D0D9
:102B5000306800E0706A97FAA7F1B1FA81F101F0EC
:102B60001F0104FA01F10842E4D020E0FFF760FA07
:102B7000804607E0C2E000BFFFF75AFAA0EB08006A
:102B80006428DCD897FAA7F0B0FA80F040F0200073
:102B9000400901D0306800E0706A97FAA7F1B1FAF5
:102BA00081F101F01F0104FA01F10842E4D1287813
:102BB000DFF8D48280074FF0000A4FF0020730D5CB
:102BC00070684FF0F80B10F00C0F07D07068C0F36E
:102BD0008100022827D17068C00324D497FAA7F097
:102BE000B0FA80F040F02000400901D0306800E0E9
:102BF000706A97FAA7F1B1FA81F101F01F0104FAA6
:102C000001F1084202D02869012877D130689BFA87
:102C1000ABF220F0F8016869B2FA82F29040014309
:102C200031605AE064E1286988B394FAA4F0B0FAFC
:102C300080F048F82040FFF7FBF9814606E000BF2E
:102C4000FFF7F6F9A0EB090002289AD897FAA7F047
:102C5000B0FA80F040F02000400901D0306800E078
:102C6000706A97FAA7F1B1FA81F101F01F0104FA35
:102C700001F10842E4D030689BFAABF26969B2FA1C
:102C800082F220F0F80091400843306025E0FFE731
:102C900094FAA4F0B0FA80F048F820A0FFF7C8F941
:102CA000814605E0FFF7C4F9A0EB09000228CCD863
:102CB00097FAA7F0B0FA80F040F02000400901D068
:102CC000306800E0706A97FAA7F1B1FA81F101F07B
:102CD0001F0104FA01F10842E4D1287800076CD5FD
:102CE000A869A8B394FAA4F0B0FA80F008EB8000C9
:102CF000C0F88044FFF79CF9814607E0A4E100BFDB
:102D0000FFF796F9A0EB090002289ED897FAA7F0E2
:102D1000B0FA80F040F06000B4EB501F01D1306891
:102D20000BE097FAA7F0B0FA80F040F06000B7EB44
:102D3000501F01D1306A00E0706A97FAA7F1B1FA2A
:102D400081F101F01F0104FA01F21042D8D034E001
:102D5000FFE794FAA4F1B1FA81F108EB8101C1F81F
:102D600080A4FFF765F9814606E000BFFFF760F930
:102D7000A0EB090002289AD897FAA7F0B0FA80F0E1
:102D800040F06000B4EB501F01D130680BE097FABF
:102D9000A7F0B0FA80F040F06000B7EB501F01D10F
:102DA000306A00E0706A97FAA7F1B1FA81F101F098
:102DB0001F0104FA01F21042D8D12878400768D5E3
:102DC000F0694FF00009C00009D4F06940F080506C
:102DD000F061F0694FF0010900F0805000902B483D
:102DE0000168C90512D4016841F480710160FFF7E0
:102DF0001FF9834606E000BFFFF71AF9A0EB0B00AE
:102E0000642875D821480068C005F5D5E868012810
:102E10000AD008B1052811D0306A20F001003062D4
:102E2000306A20F0040002E0306A40F001003062B5
:102E3000E86868B3FFF7FCF883460DE0306A40F0BD
:102E400004003062F0E700BFFFF7F2F8A0EB0B01DF
:102E500041F2883081424BD897FAA7F0B0FA80F05F
:102E600040F04000B4EB501F01D1306813E097FAF6
:102E7000A7F0B0FA80F040F04000B7EB501F09D146
:102E8000306A08E00010024000004242007000403A
:102E90000CE040E0706A97FAA7F1B1FA81F101F015
:102EA0001F0104FA01F21042CED02DE0FFF7C0F866
:102EB000834607E0FFF7BCF8A0EB0B0141F2883036
:102EC000814215D897FAA7F0B0FA80F040F04000A0
:102ED000B4EB501F01D130680CE097FAA7F0B0FABC
:102EE00080F040F04000B7EB501F02D1306A01E0A3
:102EF00083E0706A97FAA7F1B1FA81F101F01F013E
:102F000004FA01F21042D5D1B9F1000F03D0F069F3
:102F100020F08050F061E86980B37168C1F38101ED
:102F2000022977D04FF080714F000228504609D017
:102F300091FAA1F1B1FA81F148F82100FFF778F890
:102F400005465DE0894691FAA1F1B1FA81F1C246E8
:102F500048F82100FFF76CF8804605E0FFF768F8B5
:102F6000A0EB0800022848D897FAA7F0B0FA80F042
:102F700040F02000400902D0306801E066E0706A4D
:102F800097FAA7F1B1FA81F101F01F0104FA01F1FA
:102F90000842E3D1D5E908100843716821F474119F
:102FA0000843706099FAA9F0B0FA80F04AF820401E
:102FB000FFF73EF8054604E0FFF73AF8401B022809
:102FC0001BD897FAA7F0B0FA80F040F02000400933
:102FD00001D0306800E0706A97FAA7F1B1FA81F188
:102FE00001F01F0104FA01F10842E5D02EE000BF14
:102FF000FFF71EF8401B022802D90320BDE8F88F16
:1030000097FAA7F0B0FA80F040F02000400902D013
:10301000306801E00BE0706A97FAA7F1B1FA81F12C
:1030200001F01F0104FA01F10842E1D10EE001288C
:10303000E4D070682A6A00F48031914204D1696A50
:1030400000F47010884201D00120D7E70020D5E7B6
:1030500010B500680B4641680D480140080CD87057
:10306000C1F304245C7001F03F049C70C1F3423151
:10307000197052B902F06CFCD870587802F068FCF4
:103080005870987802F064FC9870002010BD000021
:103090003FFFFF0010B50B460168896A596001685F
:1030A0000969C1F30E019960006801680E4801408A
:1030B000C1F305401870C1F306245C7001F07F0471
:1030C0009C70402404EA1141D97052B902F040FCCE
:1030D0001870587802F03CFC5870987802F038FC70
:1030E0009870002010BD00007F7F7F0070B5040045
:1030F00002D0607F10B106E0012070BD0020207773
:10310000204600F049F8022060772168CA20486212
:10311000216853204862204602F02EFCFF25042639
:1031200018BB206881681B4A11408160216888684B
:1031300062681043D4E904231A431043886021686D
:10314000E068086120680169228941EA0241016161
:103150002068C16821F08001C16020688068800615
:1031600007D4204600F006F918B12068456266775A
:10317000C2E72068016C21F4802101642068016CA1
:10318000A269114301642068456201206077002034
:1031900070BD0000BFFF8FFF0068074988420AD159
:1031A0000120C10391FAA1F1044AB1FA81F102EBC5
:1031B0008101C1F80004704700280040000042422D
:1031C0002DE9F0470446007F0B4601281FD04FF041
:1031D000010984F81C9002206077DAB19878D978D8
:1031E00040EA014558781978000240EA4130054329
:1031F0002168CA204862216853204862204602F0B4
:10320000BBFB0026FF274FF0040860BB1AE002203A
:10321000BDE8F0875878C10603D500F0EF000A300A
:103220005870D87802F09DFB0204587802F099FBA0
:1032300042EA0022987802F094FB0243187842EAAE
:103240004035D5E70F480540206845602068C168D3
:1032500021F08001C1602068806880060AD4204681
:1032600000F088F830B12068476284F81D80267726
:103270000120CDE72068476284F81D902677002062
:10328000C6E700003FFFFF002DE9F0470446007F3E
:103290000D46012827D04FF0010A84F81CA0022017
:1032A00060772068002680684FEA4060F2B100280D
:1032B00000DBEE70A878297840EA01476878E97861
:1032C000000240EA014007432168CA2048622168A1
:1032D00053204862204602F04FFB4FF0FF084FF0AA
:1032E0000409A0BB16E00220BDE8F087002800DB3F
:1032F000EE70287802F035FB0204687802F031FBAA
:1033000042EA0022A87802F02CFB0243E87842EA65
:103310000047D9E7164807402068076020688168A1
:1033200021F480218160D5E90301084321688A687E
:10333000104388602068C16821F08001C160206866
:10334000806880060BD4204600F014F838B121685C
:10335000C1F8248084F81D9026770120C4E72168F5
:10336000C1F8248084F81DA026770020BCE7000067
:103370007F7F7F0070B504460068C16821F0A0011E
:10338000C160FEF755FE05464FF47A7607E000BFB0
:10339000FEF74EFE401BB04201D9032070BD2068ED
:1033A000C0688006F4D5002070BD00002DE9F04112
:1033B000044690F83C00002516460F46012801D02F
:1033C000012520E0204602F0FBFA20B1FF2084F81E
:1033D0003C00032517E00D4887420FD02068390CC8
:1033E000026C1F2303EA810103238B409A4302648A
:1033F0002068026C8E403243026401E0206846641B
:10340000204602F0F6FA2846BDE8F08100010800E7
:10341000704770B5044690F83C0000250E46012820
:1034200002D00125284670BD204602F0C9FA20B11D
:10343000FF2084F83C000325F4E72068416821F070
:10344000060141602068416831434160204602F036
:10345000D0FA2068416841F010014160022084F8F0
:103460003C00DFE77047704770B50446006881682C
:103470000268120717D50A0715D52046FFF7F2FF95
:10348000A06900280ED1A06A00280BD1206801682D
:1034900021F01801016094F83C00032826D0042094
:1034A00084F83C0070BD0268920721D58A071FD5B9
:1034B000204600F0BDF8606A401E606201D1206ABB
:1034C0006062E0690028EDD1E06A0028EAD1D4E921
:1034D00008018142E6D12068016821F006010160FF
:1034E00094F83C00042801D00320D9E70120D7E755
:1034F00002684FF00105D20710D0CA070ED001684C
:1035000021F0010101602068C16841F00101C16042
:103510002046FFF77DFF84F83C5070BD0268D2065C
:1035200007D5CA0605D5C16841F01001C160256400
:103530000AE002685207F0D54907EED5C16841F0AC
:103540000401C160022020642046FFF78CFF70BD9B
:1035500070B5040044D000200125A061C4E907052E
:10356000C4E909506903C4E90B016063A0632064E6
:10357000204600F085F82068016821F4E0510160E0
:10358000E1686068084321680A68104308602068A1
:10359000416821F08071416020684168A268114350
:1035A000416010480168226901F4407191420AD0DB
:1035B000016821F4407101600168226911430160D2
:1035C0000220FEF7DBFA2068416841F0010141600A
:1035D000206881680904FCD484F83C50002070BD48
:1035E000012070BD0060014030B590F83C300024EF
:1035F000DBB1FF2B19D005688BB26B610368012A20
:103600005D680FD025F020055D60C26100228BB29D
:103610001146DD0700D0521C5B08491C0929F8D36C
:10362000026203E045F02005EEE70124204630BDAC
:1036300010B50649064800F00DF80449091F4880F6
:10364000488800F50040088010BD00004C000020B4
:10365000CC4500200068006EC0F3036280B20A60AF
:10366000704790F83C10012903D0032901D00120B4
:10367000704701680A6842F006020A6002F0BFB9AA
:1036800010B586B0044614216846FCF7E1FD1449E4
:103690002068884222D11348816941F0007181611C
:1036A000816901F000710591416941F400114161A6
:1036B0004069694600F400100590802000900320C6
:1036C0000190002002900848FEF7E4FB002211461A
:1036D0003E20FEF793FF3E20FEF782FF06B010BDAE
:1036E00000640140001002400010004870B504461C
:1036F00090F83C000D46022801D0012070BDFEF775
:1037000097FC064607E0681C05D0FEF791FC801B7D
:10371000A8420ED86DB120688068C007F3D0206839
:10372000C16841F00101C160012084F83C00002023
:1037300070BD032070BD2DE9F041064690F83C00B5
:10374000002514460F46012801D0012518E0304617
:1037500002F036F920B1FF2086F83C0003250FE087
:103760002021306801EB87010144D4E900021043B5
:10377000D4E902231A4310430860304602F039F9B5
:103780002846BDE8F08170B5044690F83C0000255D
:103790000E46012802D00125284670BD204602F0C1
:1037A0000FF920B1FF2084F83C000325F4E72068DE
:1037B000416821F040014160206841683143416027
:1037C000204602F016F9E7E710B50246094C1368E7
:1037D0000020A34201D1012907D092F83C30012BEF
:1037E00005D0022B03D0032B01D0012010BDD162E4
:1037F00010BD0000006001402DE9F041040005D03B
:103800000025A56294F85D0018B107E00120BDE82D
:10381000F08184F85C50204600F04AF8022384F8D6
:103820005D302068016821F040010160E0684FF4DC
:10383000E066B04201D9002101E04FF48051B0F5BB
:10384000706F02D0B04200D0A562276B012227B969
:10385000B04201D9236300E02263D4E90103184395
:10386000D4E9043633431843238B03F4007318431D
:10387000E3691843236A1843A36A1843236818604E
:10388000636B606AA66918430427E36807EA164673
:10389000334318430843216848602068C16921F414
:1038A0000061C161256684F85D200020AFE700005B
:1038B000F0B587B0044614216846FCF7C9FC2E4ACF
:1038C000216800252D48022403260527914236D180
:1038D000816941F480518161816901F480510591D0
:1038E000416941F400214161416901F400210591E0
:1038F000416941F400314161416901F400310591B0
:10390000416941F4800141614069694600F48000E9
:10391000059090158DE8F1001948FEF7BBFAE0021A
:103920008DE871000620049069464FF09040FEF744
:10393000B1FA40208DE8F1006946124818E0124AB9
:10394000914217D1C16941F48041C161C16901F45B
:1039500080410591416941F4802141614069694696
:1039600000F4802005904FF444408DE8F1000748B2
:10397000FEF790FA07B0F0BD0030014000100240A1
:1039800000080048001400480038004000040048C7
:103990002DE9F84F044640680025984616460F4624
:1039A0004FF0040BB0F5827F01D1A06888B194F884
:1039B0005C00012818D0012084F85C00FEF738FB79
:1039C000814694F85D004FF0000A01280ED00225D0
:1039D00094E084F85DB013460A462046CDF8008096
:1039E00000F054F9BDE8F88F0220FBE7002F72D0F9
:1039F000002E70D084F85DB0C4F860A02764A4F8ED
:103A00004460A4F84660C4F838A0A4F83CA0A4F828
:103A10003EA0C4F84CA0C4F850A0E0684FF4E061A8
:103A200088422068426802D922F4805201E042F4C0
:103A300080524260A068B0F5004F04D1206802684F
:103A400022F48042026020680268520603D40268B1
:103A500042F040020260E06888421DD93FE02068E1
:103A60008168C9070BD0007B216C0870206C401C5A
:103A70002064B4F84600401EA4F846000CE0FEF7AF
:103A8000D7FAA0EB0901414503D3B8F1FF3F03D0BA
:103A90003BE0B8F1000F38D0B4F846000028DED182
:103AA00021E020688168C9070BD0C068216C0880BC
:103AB000206C801C2064B4F84600401EA4F8460028
:103AC0000DE0FEF7B5FAA0EB0901414504D3B8F1CA
:103AD000FF3F04D019E010E0B8F1000F15D0B4F8A2
:103AE00046000028DDD14A464146204601F0B8FF95
:103AF00008B120202066206E00B10125012084F845
:103B00005D0084F85CA028466CE70325F6E72DE904
:103B1000F84F044690F85C0000271D46164689467B
:103B200001280DD04FF0010B84F85CB0FEF780FA4D
:103B3000804694F85D00BA46012804D002279FE031
:103B40000220BDE8F88FB9F1000F6FD0002E6DD0C4
:103B5000032084F85D00C4F860A0C4F83890A687FC
:103B6000E687C4F840A0A4F844A0A4F846A0C4F88E
:103B700050A0C4F84CA0A068B0F5004F04D1206854
:103B8000016841F48041016020680168490603D45E
:103B9000016841F040010160E068B0F5E06F6068E5
:103BA00023D908B1012E1CD1A06B21680088C86000
:103BB00006E020688168890709D5A16B0988C16082
:103BC000A06B801CA063E08F401EE08709E0FEF739
:103BD0002FFAA0EB0800A84202D3681C01D046E0EF
:103BE000ADB3E08F0028E4D136E008B1012E30D12A
:103BF000E08F0128A06B03D921680088C8600FE01E
:103C000021680078087314E0E08722E0206881686A
:103C1000890714D5E18F0129A16B08D90988C160F2
:103C2000A06B801CA063E08F801EEDE727E0097881
:103C30000173A06B401CA063E08F401EE4E7FEF719
:103C4000F7F9A0EB0800A84202D3681C01D00EE0EF
:103C50006DB1E08F0028D9D142462946204601F0B7
:103C600039FF08B120202066A06810B105E00327C5
:103C700006E02068C16880680090206E00B10127CE
:103C800084F85DB084F85CA038465AE72DE9F05F0F
:103C9000044690F85C0000270A9E1D4692468B461B
:103CA0004FF0010901280ED0012084F85C00FEF7D6
:103CB000BFF9804694F85D00616801280CD0B1F529
:103CC000827F07D102E00220BDE8F09FA16809B918
:103CD000042801D0022700E1BBF1000F24D0BAF183
:103CE000000F21D005B394F85D00042802D0052010
:103CF00084F85D0000202066C4F840A0A4F8465077
:103D0000A4F84450C4F838B0E587A587E06420657E
:103D1000E0684FF4E061884201D8012D06D920689F
:103D2000426822F4805205E00127D6E0206842680C
:103D300042F48052426020680268520603D402684E
:103D400042F040020260E0688842606845D908B1EC
:103D5000012D3AD1A06B21680088C860A06B801C3F
:103D6000A063E08F401EE0872FE02068816889070C
:103D70000FD5E18F69B1B9F1010F0AD1A16B0988A3
:103D8000C160A06B801CA063E08F401EE0874FF0F5
:103D9000000920688168C9070FD0B4F8461061B1E6
:103DA000C068216C0880206C801C2064B4F8460038
:103DB000401EA4F846004FF00109FEF739F9A0EBC8
:103DC0000800B04201D3701C75D1E08F0028CCD11F
:103DD000B4F846000028C8D176E008B1012D6CD1B6
:103DE000E08F0128A06B08D921680088C860A06B0B
:103DF000801CA063E08F801E07E0216800780873B4
:103E0000A06B401CA063E08F401EE08755E0206857
:103E1000816889071AD5E18FC1B1B9F1010F15D1B8
:103E2000E18F0129A16B07D90988C160A06B801CB3
:103E3000A063E08F801E06E009780173A06B401C30
:103E4000A063E08F401EE0874FF000092068816882
:103E5000C90728D0B4F8461029B3B4F84610012990
:103E600014D9C068216C0880206C801C2064B4F8D0
:103E70004600801EA4F84600B4F84600012810D879
:103E80002068416841F4805141600AE0007B216C68
:103E90000870206C401C2064B4F84600401EA4F852
:103EA00046004FF00109FEF7C3F8A0EB0800B0424E
:103EB00002D3701C01D018E0BEB1E08F0028A6D15B
:103EC000B4F846000028A2D142463146204601F00F
:103ED00001FE10B1012720202066012084F85D003A
:103EE000002084F85C003846EEE60327F5E710B5BD
:103EF000401EB0F1807F01D3012010BD4FF0E024BF
:103F000060610F21601703F049FC0020A0610720C9
:103F10002061002010BD000070B590F83C20012AFF
:103F20002FD0012480F83C40022280F83D20036815
:103F30005A689D6822F070060A6832435A60026827
:103F4000B2F1804F11D0104B9A420ED00F4B9A42D3
:103F50000BD00F4B9A4208D00E4B9A4205D00E4B15
:103F60009A4202D00D4B9A4204D1496825F0800351
:103F70001943916080F83D40002180F83C100846CC
:103F800070BD022070BD0000000400400008004029
:103F9000000C00400018004000400140005C01405F
:103FA00010B5040003D094F83D0010B107E00120E3
:103FB00010BD002084F83C00204600F00DF80220DF
:103FC00084F83D00211D206801F0D0FF012084F815
:103FD0003D00002010BD000008B500680649884279
:103FE00008D10648C16941F01001C161C06900F003
:103FF0001000009008BD00000010004000100240BA
:10400000704770472DE9F04102680446D069116895
:10401000936840F60F0528424FF0000505D186064B
:104020007BD58E0679D5216E88E003F0010601F478
:104030009077374371D0C70707D0CF0505D5012743
:104040001762E26F42F00102E267820708D5DA07E1
:1040500006D0276802223A62E26F42F00402E26769
:10406000420708D5DA0706D0236804221A62E26FF5
:1040700042F00202E26702070AD501F02002324351
:1040800006D0236808221A62E26F42F00802E26753
:10409000020509D54A0107D523684FF400621A6268
:1040A000E26F42F02002E267E26F002A2ED0800623
:1040B00005D5880603D5216E09B120468847E06FF3
:1040C00021688968490602D410F0280F20D02046C4
:1040D00002F038FE20688168490614D5816821F015
:1040E00040018160E06E70B11D494163E06EFDF7F3
:1040F0006CFC00280AD0E06E416B00E02046BDE871
:10410000F041084709E02046FFF77BFFBDE8F0815A
:104110002046FFF776FFE567F8E7C60209D55B02A0
:1041200007D54FF4801010622046BDE8F041FFF73C
:1041300067BF030605D50B0603D5616E0029DDD1E7
:10414000E4E74006E2D54806E0D51168204621F0B4
:104150004001116020216167656600F09FF9D5E795
:10416000A56C000810B5040002D0606F10B107E024
:10417000012010BD002084F87000204600F026F8D1
:10418000242060672068016821F001010160204659
:1041900002F0F0FD0128ECD0606A10B1204602F078
:1041A000F1FC2068416821F49041416020688168F9
:1041B00021F02A0181602068016841F0010101605D
:1041C0002046BDE8104002F041BD00002DE9F04757
:1041D00086B0054614216846FCF73AF8DFF854C16A
:1041E0002B685548022603210727544A00244FF024
:1041F00080094FF0200A634532D1C36943F400338C
:10420000C361C36903F400330593436943F4801326
:1042100043614069CDE9024100F4801005907820A7
:10422000CDE90006049769461046FDF733FE454E7A
:104230004348C6E90004C6E902493461C6E9054AB3
:104240003046F461FDF73AFC08B1FDF76DF9EE6612
:104250000022114626207562FEF7D0F9262064E080
:10426000DFF8E4C0634562D1C36943F48023C361CE
:10427000C36903F480230593436943F480134361C6
:10428000436903F480130593436943F48023436136
:104290004069884600F4802005904FF4C050CDE975
:1042A0000006CDE90248694604971046FDF7F2FD85
:1042B0004FF44070CDE90006CDE902486946049705
:1042C0002248FDF7E7FD1F4E1D4844363C38C6E93D
:1042D0000004C6E902493461C6E9054AC8465746A2
:1042E0003046F461FDF7EAFB08B1FDF71DF9EE6613
:1042F0007562144E12488836503801C61020A6E860
:104300001101104846F810498830C6E90547F461A4
:10431000FDF7D4FB08B1FDF707F9AE6600221146A0
:1043200027207562FEF76AF92720FEF759F906B0D3
:10433000BDE8F0870044004000100240000C004837
:104340006C0002401848002000480040000400486B
:1043500070B50446806F20283FD149B342B394F82A
:104360007000012839D0012084F870006165A4F83C
:1043700058200025E5672220A067E06ED0B11849DB
:104380008162E16E17481346C862E16E1648086301
:10439000E06E4563666D216832462431E06EFDF7BC
:1043A000B4FB38B11020E06784F8705020206067BB
:1043B000012070BD84F870502068016841F480715C
:1043C00001602068816841F0010181602068816896
:1043D00041F040018160002070BD022070BD0000EE
:1043E000016D00083B6D0008B96C00080EB5FCF7C4
:1043F0001EFC04F081FF4FF6FF7142F2FF00CDE991
:1044000001010948094A416800910368D7213C200D
:1044100000F08EFC054A06490020135C0B54401C3A
:104420000D28FADB0EBD00003000002020400020E7
:10443000B440002070470000436F202B28D1B1B159
:10444000AAB190F87030012B22D0012380F870308F
:10445000C164A0F85020A0F8522000214166C16735
:10446000212242678268B2F5805F02D003E001201A
:104470007047026952B1074A426680F870100068BE
:10448000016841F08001016000207047024AF3E7B3
:1044900002207047496F0008096F00087047FEE767
:1044A00001688A69D243920701D400228A620068B7
:1044B0008169C943C90703D0816941F00101816164
:1044C000704700002DE9F0410446006890460E4612
:1044D0008069C043C00633D4002520272068806946
:1044E000C043800615D5701CF8D0FDF7A1FDA0EBE8
:1044F0000800B04201D8002EF0D154F8440F40F02B
:10450000200044F804096770A57025700120BDE8FB
:10451000F08121681020C8612068C7612046FFF73C
:10452000BFFF54F8440B4168064A114041602068BF
:1045300040F0040044F820096777A5772577E5E780
:104540000020E4E700E800FE2DE9F84304461646A3
:10455000DDE9089714489846DAB200900023204617
:1045600000F056F83A464946204600F0B9F8B8B986
:10457000F5B2B8F1010F08D02168300A88623A46D6
:104580004946204600F0ACF850B9206885624B4699
:10459000002240212046009700F050F8002800D06B
:1045A0000120BDE8F8830000002000802DE9F843D9
:1045B0000446164615489846DDE90897DAB2C30264
:1045C0000090204600F024F83A464946204600F084
:1045D00087F8B8B9F5B2B8F1010F08D02168300AF0
:1045E00088623A464946204600F07AF850B9206879
:1045F00085624B46002280212046009700F01EF87D
:10460000002800D00120BDE8F883000000200080D1
:10461000F0B50568059C68684FF48066064FC1F3E5
:10462000090106EA545641EA02413E431943B043A8
:10463000214308436860F0BDFF63FF032DE9F041AB
:104640001D4617460E460446DDF8188008E0681C33
:1046500006D0FDF7EDFCA0EB0800A8420BD855B141
:104660002068806936EA000012D00020B842EED0FF
:104670000020BDE8F08154F8440F40F0200044F8D9
:104680000409202060700020A07020700120F0E755
:104690000120EBE770B516460D4604460DE03246A4
:1046A00029462046FFF70EFF08B1012070BDFDF737
:1046B000BFFC801BA84207D835B120688069C04381
:1046C0008006ECD4002070BD54F8440F40F0200068
:1046D00044F80409202060700020A0702070E4E7F6
:1046E00070B516460D4604460FE032462946204670
:1046F000FFF7E8FE08B1012070BD681C05D0FDF78A
:1047000097FC801BA84207D835B120688069C04358
:104710008007EAD4002070BD54F8440F40F0200018
:1047200044F80409202060700020A0702070E2E7A7
:1047300010B50348FDF7EAFCBDE8104000F002B8F0
:1047400034400020154810B51349016014494160F8
:1047500000210122C0E90212016141618161C16150
:104760000162FDF7EDFC08B1FCF7DEFE00210B480D
:10477000FDF764FC08B1FCF7D7FE00210748FDF700
:1047800088FC08B1FCF7D0FE044800F00BF8BDE847
:1047900010400248FDF7D4BC0058004034400020CF
:1047A0000E09002010B50068234986B0884240D128
:1047B000224C606940F400306061606900F40030B0
:1047C0000590606940F4003060616069694600F4FA
:1047D000003005904FF4C06000901220019001203D
:1047E000029003200390042004904FF09040FDF7C6
:1047F00051FBE06940F48000E061E06900F4800072
:104800000590206940F480002061206920F4800038
:10481000206100220F212120FDF7F0FE2120FDF76D
:10482000DFFE00220F212220FDF7E8FE2220FDF707
:10483000D7FE06B010BD0000005800400010024036
:104840002DE9F0471F46DDF820A090460C460546AE
:10485000F02821D24FF4A0718C421DD205EB080044
:10486000A0F10109B9F1F00F16DAE619761E8E42B1
:1048700012DA00F0A5F9B3B21FFA89F221462846F0
:1048800000F0A5F94FEA48017943504600F02CFAB0
:10489000BDE8F04700F0C7B9BDE8F087F8B51646A7
:1048A0000C460546F02817D2B4F5A07F14D200F0CC
:1048B00087F9601C83B2681C82B22146284600F04A
:1048C00086F9300A8DF800008DF8016002216846F3
:1048D00000F00AFA00F0A7F9F8BD00002DE9F8434E
:1048E0001D46DDF8208014460E460746F0283ED2CD
:1048F0004FF4A0718E423AD23819401EF02802DBE4
:10490000C7F1F00084B27019401E884202DBC6F580
:10491000A07085B200F054F97019401E83B23819A6
:10492000401E82B23146384600F051F94FEA182055
:104930008DF8000001228DF8018091030D48FDF7EC
:1049400072FB2E464FF0FF370DE0254607E03B4651
:10495000022269460848FFF7DAF86D1EADB2002D55
:10496000F5D1761EB6B2002EEFD100F05CF9BDE8AD
:10497000F8830000001000487446002008B50021AC
:1049800000904FF4A073F0220846FFF7A7FF08BD80
:104990007FB500F015F9714D4FF400440022214617
:1049A0002846FDF740FB0520FDF7E8F801222146E7
:1049B0002846FDF738FB012000F082F94FF47A70A9
:1049C000FDF7DCF8CB2000F07BF965A1D1E900010F
:1049D000CDE900010521684600F086F9CF2000F0FE
:1049E0006FF961A0032100680090684600F07CF92F
:1049F000E82000F065F95DA003210068009068469A
:104A000000F072F9EA2000F05BF900240221684608
:104A1000009400F069F9ED2000F052F954A004214F
:104A200000680090684600F05FF9F72000F048F950
:104A300050A0012100680090684600F055F9C020A0
:104A400000F03EF94CA0012100680090684600F09B
:104A50004BF9C12000F034F948A001210068009012
:104A6000684600F041F9C52000F02AF944A002216F
:104A700000680090684600F037F9C72000F020F980
:104A800040A0012100680090684600F02DF9362012
:104A900000F016F93CA0012100680090684600F083
:104AA00023F93A2000F00CF938A0012100680090A9
:104AB000684600F019F9B12000F002F934A0022193
:104AC00000680090684600F00FF9B62000F0F8F892
:104AD00030A0032100680090684600F005F9F2203C
:104AE00000F0EEF801216846009400F0FDF8262061
:104AF00000F0E6F828A0012100680090684600F068
:104B0000F3F8E02000F0DCF824A00FC88DE80F00D7
:104B10000F21684600F0E8F8E12000F0D1F823A169
:104B20000FC98DE80F000F21684600F0DDF8112055
:104B300000F0C6F87820FDF721F8292000F0C0F831
:104B4000362000F0BDF81DA00121006800906846E5
:104B500000F0CAF8BDE87F4000F065B800100048DA
:104B6000392C00340200000000C1300085007800BC
:104B700064031281200000002300000010000000E8
:104B80003E2800008600000048000000550000009C
:104B90000018000008822700010000000F312B0CD4
:104BA0000E084EF1370710030E090000000E140323
:104BB000110731C148080F0C31360F008800000082
:104BC00000224FF400614FF09040FDF72CBAF8B589
:104BD00007461C4615460E462A2000F071F8380A92
:104BE0008DF800008DF80170280A8DF802008DF80C
:104BF00003500421684600F077F82B2000F060F89D
:104C0000300A8DF800008DF80160200A8DF802004E
:104C10008DF803400421684600F066F8BDE8F840CE
:104C20002C2000F04DB80122D1024FF09040FDF74A
:104C3000FAB900000FB42DE9FF5FC3F307264A1E3F
:104C4000324494B2DFB2DDE913A9421E3A4492B273
:104C50002346FFF7BCFF00252CE01098203810FBFE
:104C600006501299002409F0FF0B31F810804FEA2A
:104C70001A2002900AF0FF0001904FEA19200090DC
:104C800015E000BF08FA04F0000406D502988DF87C
:104C90000C0001988DF80D0004E000988DF80C00D0
:104CA0008DF80DB0022103A800F01EF8641CA74285
:104CB000E8D86D1CAE42D0D8BDE8FF1F5DF814FBEC
:104CC00001B500224FF480410548FDF7ACF94FF0E3
:104CD000FF33012269460348FEF719FF08BD0000B3
:104CE00000100048744600202DE9F0410C460646AD
:104CF000012291030C48FDF796F94FF400474FF05D
:104D0000FF380DE0BC4201D9384600E0204685B2AC
:104D100043462A4631460548FEF7F9FE2E44641BF9
:104D2000002CEFD1BDE8F08100100048744600204F
:104D30002DE9FE4F9846DDE90DA914460E460546BD
:104D4000DDF830B0FFF73CFF08F0FF0719E07819F5
:104D5000F0280AD3C8F3072081198EB20025304409
:104D6000B0F5A07F10D2202A0AD0CDF800B0CDE94E
:104D700001A9434631462846FFF75CFF781985B202
:104D8000641C2278002AE2D1BDE8FE4FFFF74BBF3A
:104D9000FCF7F4BE114800B5416987B041F4003119
:104DA00041614069694600F4003005904FF480701D
:104DB00000900120029000200390094801904FF0DC
:104DC0009040FDF767F800220F211720FDF716FC31
:104DD0001720FDF705FC07B000BD000000100240E1
:104DE00000002110FFF7AEBC1FB50A4601460020A7
:104DF000084C8DF80C000123646803A88DE81900A5
:104E00000548FDF7F9F908B1FFF792FC9DF80C0091
:104E100004B010BDA0040020344000203EB514466C
:104E20000A460146074840680094CDE90130012355
:104E30000548FDF7E1F9002802D0FFF779FC0120D1
:104E40003EBD0000A0040020344000201FB51346E2
:104E5000084C0A468DF80C3001466468012303A80B
:104E60008DE819000448FDF779FA002801D0FFF712
:104E70005FFC1FBDA00400203440002001480078E2
:104E800070470000BC0400203EB500241148009487
:104E9000019402940E498460016001250573047534
:104EA00005614FF460214460C161FCF7BFFB08B1AC
:104EB000FCF73AFB07200094CDE90150694605480C
:104EC000FCF734FB002801D0FCF72EFB3EBD0000B0
:104ED00000240140EC440020154808B5416941F028
:104EE000010141614069002200F00100009011467B
:104EF0000B20FDF783FB0B20FDF772FB0022114610
:104F00000C20FDF77BFB0C20FDF76AFB002211460D
:104F10000D20FDF773FB0D20FDF762FB002211460B
:104F20001020FDF76BFBBDE808401020FDF758BBD3
:104F3000001002402DE9F04F87B014216846FBF7BE
:104F400087F99248416941F400114161416901F4D6
:104F500000110591416941F400214161416901F469
:104F600000210591416941F480014161416901F4E9
:104F700080010591416941F400314161416901F4C9
:104F800000310591416941F480214161416901F499
:104F900080210591416941F48011416140694FF4DC
:104FA000007600F480100590002231467848FDF725
:104FB0003AF840F64308002241467648FDF733F8B8
:104FC00048F62009002249464FF09040FDF72BF8A3
:104FD0000022EA217048FDF726F84CF2010A00226F
:104FE00051466E48FDF71FF84FF4C27B0022594628
:104FF0006B48FDF718F843F626700325CDE9000548
:105000000024694602946548FCF744FF5820CDE926
:105010000004694661480294FCF73CFF42F2AC2070
:10502000CDE90005694602945A48FCF733FF009623
:105030000126CDE90164694655480394FCF72AFF2F
:10504000B00200905748CDE9010469465048FCF78A
:1050500021FF554F0420CDE90007694602944C48D2
:10506000FCF718FFCDF80080CDE901646946494896
:105070000394FCF70FFF1020CDE900056946029468
:105080004348FCF707FFCDF80090CDE9016469467D
:105090004FF090400394FCF7FDFE8020CDE9000422
:1050A00069464FF090400294FCF7F4FE41F2104044
:1050B000CDE90004694637480294FCF7EBFE152061
:1050C000CDE90005694602943348FCF7E3FE02206F
:1050D0000090CDE9016469462F480394FCF7DAFE9D
:1050E000CDF800A0CDE9016469462C480394FCF793
:1050F000D1FECDF800B0CDE901646946284803949B
:10510000FCF7C8FE4FF46640CDE9000569460294FD
:105110002348FCF7BFFE3002CDE900076946029440
:105120004FF09040FCF7B6FECDE9005469461C48AC
:105130000294FCF7AFFEE820CDE900066946164868
:10514000CDE90245FCF7A6FE3004FCF7CBFF700466
:10515000FCF7C8FF002211460820FDF74FFA08208F
:10516000FDF73EFA002211461720FDF747FA1720F7
:10517000FDF736FA002201212820FDF73FFA28200A
:10518000FDF72EFA07B0BDE8F08F000000100240D6
:1051900000140048000800480004004800100048BF
:1051A000000C00480000211000001110134810B539
:1051B000114901601249416000210122C0E9021237
:1051C000016141618161C1610162FCF7B9FF08B110
:1051D000FCF7AAF900210948FCF730FF08B1FCF7F9
:1051E000A3F900210548FCF754FF002803D0BDE8CF
:1051F0001040FCF799B910BD0058004060450020F0
:105200000E09002000B585B014216846FBF720F890
:105210000A480021084AC0E900217F228260FF225B
:10522000C0E9032141618161FDF760FF002801D0E1
:10523000FCF77AF905B000BD00280040AC4500201D
:105240007FB50024284800940194029425490394D2
:10525000C0E900148460C4600461C462FEF778F998
:1052600008B1FCF761F900211F48FEF78CFA08B17C
:10527000FCF75AF900211C48FEF7A6FA08B1FCF722
:1052800053F91A4D012229461748FEF7ADF908B126
:10529000FCF74AF94FF04060CDE9000402946A46F9
:1052A000002111480394FEF746FA08B1FCF73CF9D7
:1052B000002229460C48FEF779F808B1FCF734F9CA
:1052C00000210948FEF7A5F808B1FCF72DF94FF0C9
:1052D000FF310548FEF70AFA002801D0FCF724F94F
:1052E0007FBD000000640140CC4500202000050087
:1052F000124810B5104901604FF4827141600021DD
:105300004FF4E062C0E902124FF400720161C0E99B
:1053100005120822C0E9072107234162C0E90A13E8
:10532000C0E90C12FEF768FA002803D0BDE810406F
:10533000FCF7FAB810BD0000003001401046002014
:10534000124810B5104901604FF48271416000218C
:105350004FF4E062C0E902124FF400720161C0E94B
:105360000512C161016207224162C0E90A120163AC
:1053700008214163FEF740FA002803D0BDE8104041
:10538000FCF7D2B810BD0000003800407446002081
:105390001CB500240F4800940D49019401604FF49E
:1053A0006151C0E9011442F210718461C160FEF7DD
:1053B000F7FD08B1FCF7B8F8009469460548019478
:1053C000FEF7AAFD002801D0FCF7AEF81CBD0000D6
:1053D00000100040D84600200D4810B50B49016070
:1053E0004FF496414160002181600C22C160C0E908
:1053F00004128161C16101624162FEF7B3FE0028BF
:1054000003D0BDE81040FCF78FB810BD0044004049
:10541000184700200D4810B50B4901604FF41641A4
:105420004160002181600C22C160C0E904128161E9
:10543000C16101624162FEF795FE002803D0BDE81C
:105440001040FCF771B810BD00480040984700209C
:105450002DE9F04F2DED048B85B04FF6FF784546D2
:10546000D923F0221E210A20CDF80080FFF736FA5A
:105470004FF0000ADFF850B3CDE901A5BBF80400F6
:10548000ADF80000DBF80030ADF8100056465C4681
:105490000393CEA228215C20FFF74AFCCDE90165E9
:1054A000A088ADF800002368ADF810000393C9A2EE
:1054B0004B211420FFF73CFCDFF82093C8A109F131
:1054C0001000B9F8042002F055F9CDE90165A08873
:1054D000ADF800002368ADF81000039309F1100245
:1054E0004B213C20FFF724FC032003F0C7F80746BC
:1054F000032003F0C3F80646032003F0BFF8054677
:10550000B9F80400401E00EBC0046FF07F40011B9F
:10551000304601F0ABFEB348011B701C01F0A6FE43
:10552000B048401E011BB01C01F0A0FEAD48801E1B
:10553000011B384601F09AFEAA48C01E011B781CC8
:1055400001F094FEA748001F011BB81C01F08EFE5D
:10555000A448401F011B284601F088FEA148801F77
:10556000011B681C01F082FE9E48C01F011BA81C85
:1055700001F07CFE28784FF47A7110FB01F000EE08
:10558000100A6878B8EE408AFAF7F5FF9FED961B8F
:1055900053EC112BFAF70EFF41EC190B18EE100A21
:1055A000FBF70FF853EC192BFAF75DFEFBF71CF82D
:1055B00000EE100AA87800EE900AF8EE600A30EECD
:1055C000800ADFED8B0AB9F80410B9F8080080EE04
:1055D000208A81425DD2B87800907B783A7885A1A4
:1055E0008A4802F0C7F8CDE901A8BBF80400ADF87D
:1055F0000000DBF80030ADF81000454657465C4629
:105600000393824A69211420FFF792FBB07800903F
:10561000737832787EA1834802F0ACF8CDE9017549
:10562000A088ADF800002368ADF8100003937D4A10
:1056300087211420FFF77CFBCDE90175A088ADF828
:1056400000002368ADF81000039377A2AF21142067
:10565000FFF76EFB2B460022AF215A20B0EE480A1E
:1056600003F018F9CDE90175A088ADF800002368B2
:10567000ADF81000039371A2CD211420FFF758FB61
:105680002B460022CD215A20B0EE480A03F03EF905
:1056900044E06FA15D4802F06DF8CDE901A8BBF8C8
:1056A0000400ADF80000DBF80030ADF8100045460E
:1056B00056465C460393554A69211420FFF738FB90
:1056C00065A1584802F056F8CDE90165A088ADF80B
:1056D00000002368ADF810000393524A872114207C
:1056E000FFF726FBCDE90165A088ADF8000023682F
:1056F000ADF8100003935AA2AF211420FFF718FB56
:10570000CDE90165A088ADF800002368ADF8100070
:10571000039358A2CD211420FFF70AFB5FF0000489
:1057200004F1D205A9B200229920FFF7B7F8A9B277
:1057300000229A20FFF7B2F8641C0F2CF0DB42F62F
:10574000E0652B4600221D214F4801F059FD4E4CCB
:105750001923F022F12100200094FFF771F80A23A9
:10576000F022F1210020CDF80080FFF7B7F842F2D7
:10577000FF0000900223F022F9210020FFF7AEF88D
:105780002B4600221E21204601F03AFD1923F0226B
:105790004FF4857100200094FFF752F82B46002249
:1057A0001F21204601F02CFD1923F02240F2231185
:1057B00000200094FFF744F8132189F8001005B089
:1057C000BDEC048BBDE8F08F30000020444554410F
:1057D0005920000049443A20000000000000002049
:1057E00025750000FEFFFF000000000000002440BF
:1057F00000007A4454617269683A253032643A256F
:105800003032643A253032640000000094400020B9
:10581000536161743A253032643A253032643A2556
:1058200030326400A4400020542E42696C3A20209B
:10583000202020206D672F644C200000542E4269E8
:105840006C3A202020202020756D6F6C2F644C0056
:1058500054617269683A2000536161743A20000013
:10586000542E42696C3A20202D2020206D672F6431
:105870004C200000542E42696C3A20202D2020201C
:10588000756D6F6C2F644C000C050020FEE7000066
:10589000FEB5294E062042F2FF04307000211E237F
:1058A000F02208460094FFF719F84FF6FF70CDE993
:1058B0000104224822A28188ADF8001003680B2160
:1058C0005720FFF735FA42F6E0673B4600221321E6
:1058D0001D4801F095FC1C4D1923F022EC210020FD
:1058E0000095FEF7ADFF1423F022EC210020009478
:1058F000FEF7F4FF3B4600221421284601F080FC0D
:105900001923F02240F2051100200095FEF798FFC0
:105910003B4600221521284601F072FC1923F02293
:105920004FF48F7100200095FEF78AFFB078BDE834
:10593000FE4002F0FDBE000000000020300000200C
:10594000484146495A4100000C0500207047704705
:10595000010901EB810100F00F0000EB4100C0B232
:105960007047002102E00A38C0B2491C0A28FAD266
:10597000090740EA1160704770B504460068C168C5
:10598000490614D44FF0FF31C160FCF751FB0546C6
:105990004FF47A7607E000BFFCF74AFB401BB042A9
:1059A00001D9032070BD2068C0684006F4D50020EE
:1059B00070BD00000148FDF757BD0000CC45002038
:1059C00070B504460068016841F000410160FCF7D1
:1059D0002FFB054607E000BFFCF72AFB401BC82849
:1059E00001D9032070BD206880680028F4DA002007
:1059F00070BD0068016821F000410160704770B51A
:105A00000446006A6062E06A002540B12046FFF764
:105A1000D7FF50B1FF2084F83C00032517E0206831
:105A2000416841F4004141600AE0E06A01282068D1
:105A30000FD04168226B114341602046FFF7D9FF28
:105A400094F83C00012809D0052084F83C00284641
:105A500070BD016841F480410160EEE70420F4E785
:105A60002DE9F843044640684FF48276154689468E
:105A70004FF400474FF48068B04209D1A068B842A3
:105A800001D0404504D12068016821F04001016047
:105A90004B46002280212046009500F08AF880B90C
:105AA0006068B04214D1A068B84201D040450FD11F
:105AB0004B4600224FF4C0612046009500F02EF8BE
:105AC00030B1206E40F0200020660320BDE8F8834E
:105AD0000020FBE7F8B515460E460B46009204463B
