:020000040800F2
:10000000080500209D01000803160008EB110008F8
:1000100001160008710200085D18000800000000C9
:10002000000000000000000000000000A117000810
:10003000730200080000000025160008A31700083E
:10004000B7010008B7010008B7010008B7010008B0
:10005000B7010008B7010008B7010008B7010008A0
:10006000B7010008B7010008B7010008B701000890
:10007000B7010008B7010008B7010008B701000880
:10008000B7010008B7010008B7010008B701000870
:10009000B7010008B7010008B7010008B701000860
:1000A000B7010008B7010008B7010008B701000850
:1000B000B7010008B7010008B7010008B701000840
:1000C000B7010008B7010008B7010008B701000830
:1000D000B7010008B7010008B7010008B701000820
:1000E000B7010008B7010008B7010008B701000810
:1000F000B7010008B7010008000000000000000080
:100100000000000000000000B7010008B70100086F
:100110000000000000000000B7010008B70100085F
:10012000B7010008B7010008B7010008B7010008CF
:10013000B7010008B7010008B7010008B7010008BF
:10014000B7010008000000000000000000000000EF
:10015000000000000000000000000000000000009F
:100160000000000000000000B7010008B70100080F
:10017000B701000800000000B701000800000000FF
:1001800000000000B7010008DFF80CD000F048F8CC
:1001900000480047991B00080805002006488047D2
:1001A00006480047FEE7FEE7FEE7FEE7FEE7FEE75C
:1001B000FEE7FEE7FEE7FEE7F51700088901000805
:1001C00010B50B4604461146184600F015F8C4E970
:1001D000000110BDD2B201E000F8012B491EFBD294
:1001E00070470022F6E710B513460A460446194642
:1001F000FFF7F0FF204610BD70B50024254600280B
:1002000001DA01244042002901DA0125494200F0C7
:1002100019F8AC4200D04042002C00D0494270BDD9
:10022000064C074D06E0E06840F0010394E8070043
:1002300098471034AC42F6D3FFF7AAFF381C0008E9
:10024000581C000830B50B4601460020202201242E
:1002500009E021FA02F59D4205D303FA02F5491B94
:1002600004FA02F52844151EA2F10102F1DC30BDAA
:10027000FEE7704770B5044600F0D8F80546601CEC
:1002800002D004480078044400F0D0F8401BA0429B
:10029000FAD370BD080000202DE9F84FDFF864B1F3
:1002A00000234FF0010C4FF0030A4FF00F090BF140
:1002B000040EA0E00CFA03F6324072D04C68022C17
:1002C00001D0122C0ED1DC0800EB8408D8F82040B5
:1002D0005D07EF0E09FA07F5AC430D69BD402543F4
:1002E000C8F8205007685D0091F804800AFA05F408
:1002F00008F00308A74308FA05F848EA0708C0F819
:1003000000804F68012F05D0022F03D0112F01D09C
:10031000122F11D18768D1F80C80A74308FA05F88D
:1003200048EA0708C0F808804768B7430E79C6F363
:1003300000169E403E434660C668A6438C68AC40AB
:100340003443C4604C68E40054D52F4CA56945F093
:100350000105A561A46923F0030504F001040094DC
:100360002A4C2E19B4689D072F0F09FA07F5AC43E4
:10037000B0F1904F04D0264DA84203D1012512E0E0
:10038000002510E0234DA84201D102250BE0224DAB
:10039000A84201D1032506E0204DA84202D1042540
:1003A00001E027E00525BD402543B560DBF80040AE
:1003B0005D464E689443F60300D514432C60DEF886
:1003C000004075464E689443B60300D514432C6034
:1003D0000C4D08352C684E689443F60200D5144342
:1003E0002C60084D0C352C684E689443B60200D53D
:1003F00014432C605B1C0A6832FA03F47FF45AAF92
:10040000BDE8F88F000401400010024000000140E8
:100410000004004800080048000C00480010004894
:100420000AB18161704781627047000001488068AD
:1004300070470000080000200248816802781144DB
:100440008160704708000020074810B5016841F03E
:1004500010010160032000F05FF8002000F006F8B2
:1004600000F024F8002010BD0020024070B50D4DB2
:1004700004464FF47A712878B1FBF0F00A49096814
:10048000B1FBF0F000F09DFE48B9102C07D200221D
:100490002146501E00F020F800206C6070BD012045
:1004A00070BD00000800002014000020094808B5B5
:1004B000816941F001018161816901F001010091CF
:1004C000C16941F08051C161C06900F08050009065
:1004D00008BD000000100240F0B40E4B1B680C4633
:1004E000C3F30223C3F10705042D00D90425191D08
:1004F000072901D2002300E0DB1E012606FA05F1E0
:10050000491E214099409E40761E16403143F0BC62
:1005100001F078B80CED00E0064900F00702086829
:100520004FF6FF03184040EA0220034A10430860D8
:10053000704700000CED00E00000FA052DE9F047DF
:100540000F46050069D04A4E306800F00700B842F7
:1005500009D2306820F0070038433060306800F07E
:100560000700B84259D12878424C800705D5606809
:10057000A96820F0F000084360602878C0073DD0EB
:100580006968012001290DD0022923D05FF0020300
:1005900093FAA3F2B2FA82F242F02002520904D096
:1005A000226803E04FF40033F2E7626A93FAA3F3A0
:1005B000B3FA83F303F01F03984002422DD0606822
:1005C00020F0030008436060FFF730FF804641F2EF
:1005D00088390CE04FF00073DAE700BFFFF726FF21
:1005E000A0EB0801494502D90320BDE8F087606807
:1005F000696800F00C00B0EB810FEFD1306800F0BB
:100600000700B8420BD9306820F00700384330604B
:10061000306800F00700B84201D00120E5E72878F3
:10062000400705D56068E96820F4E0600843606031
:100630002878000706D56068296920F4605040EAF0
:10064000C100606000F01CF86168F02292FAA2F22A
:1006500001F0F001B2FA82F2D140074A515CC84081
:10066000064908600020FFF701FF0020BDE70000F9
:100670000020024000100240281C00081400002046
:10068000144B10B55A68144802F00C0104291DD00F
:1006900008291BD14FF4701494FAA4F402F47011D9
:1006A000B4FA84F4E1400D4CDB6A615C0F2494FAE7
:1006B000A4F403F00F03B4FA84F4E340074C1034BD
:1006C000D203E35C03D5B0FBF3F0484310BD04480C
:1006D000484310BD0010024000127A00081C0008B8
:1006E00000093D002DE9F84F040071D02078FB4D42
:1006F000C0074FF0010625D068687704C0F3810079
:10070000012807D06868C0F3810002281BD16868FF
:10071000C00318D597FAA7F0B0FA80F040F0200097
:10072000400901D0286800E0686A97FAA7F1B1FA99
:1007300081F101F01F0106FA01F1084265D06068FD
:100740000028D2D061E06068B0F5803F0BD010B1D6
:10075000B0F5A02F17D0286820F4803028602868D2
:1007600020F4802002E0286840F480302860E86AA5
:10077000A16820F00F000843E862606820B3FFF72B
:1007800055FE80460AE0286840F480202860EAE7A9
:10079000FFF74CFEA0EB0800642872D897FAA7F088
:1007A000B0FA80F040F02000400901D0286800E055
:1007B000686A97FAA7F1B1FA81F101F01F0106FA10
:1007C00001F10842E4D020E0FFF730FE804607E068
:1007D000C7E000BFFFF72AFEA0EB08006428DCD8C2
:1007E00097FAA7F0B0FA80F040F02000400901D05D
:1007F000286800E0686A97FAA7F1B1FA81F101F080
:100800001F0106FA01F10842E4D12078DFF8D08216
:1008100080074FF0000A4FF0020759D568684FF083
:10082000F80B10F00C0F07D06868C0F381000228A5
:100830001BD16868C00318D497FAA7F0B0FA80F00B
:1008400040F02000400901D0286800E0686A97FA6B
:10085000A7F1B1FA81F101F01F0106FA01F1084296
:100860002BD0206901287CD127E0206988B396FA33
:10087000A6F0B0FA80F048F82060FFF7D7FD814677
:1008800006E055E1FFF7D2FDA0EB0900022884D86D
:1008900097FAA7F0B0FA80F040F02000400901D0AC
:1008A000286800E0686A97FAA7F1B1FA81F101F0CF
:1008B0001F0106FA01F10842E4D028689BFAABF266
:1008C0006169B2FA82F220F0F80091400843286092
:1008D00025E0FFE796FAA6F1B1FA81F148F821A0E8
:1008E000FFF7A4FD814605E0FFF7A0FDA0EB09009E
:1008F0000228CCD897FAA7F0B0FA80F040F0200098
:10090000400901D0286800E0686A97FAA7F1B1FAB7
:1009100081F101F01F0106FA01F10842E4D12078CB
:1009200000076AD5A069A0B396FAA6F0B0FA80F0E5
:1009300008EB8000C0F88064FFF778FD814605E091
:10094000FFF774FDA0EB09000228A0D897FAA7F0E2
:10095000B0FA80F040F06000B6EB501F02D128687A
:100960000CE077E197FAA7F0B0FA80F040F0600071
:10097000B7EB501F01D1286A00E0686A97FAA7F127
:10098000B1FA81F101F01F0106FA01F21042D7D04D
:1009900033E0FFE796FAA6F0B0FA80F008EB8000AB
:1009A000C0F880A4FFF742FD814605E0FFF73EFD59
:1009B000A0EB090002289CD897FAA7F0B0FA80F0C3
:1009C00040F06000B6EB501F01D128680BE097FAA9
:1009D000A7F0B0FA80F040F06000B7EB501F01D1F3
:1009E000286A00E0686A97FAA7F1B1FA81F101F08C
:1009F0001F0106FA01F21042D8D12078400774D5C1
:100A0000E8694FF00009C00009D4E86940F080505F
:100A1000E861E8694FF0010900F08050009031482A
:100A20000168C90512D4016841F480710160FFF7C3
:100A3000FDFC834606E000BFFFF7F8FCA0EB0B00CF
:100A4000642875D827480068C005F5D5E0680128F6
:100A50000AD008B1052811D0286A20F001002862C8
:100A6000286A20F0040002E0286A40F001002862B1
:100A7000E068C8B3FFF7DAFC83460DE0286A40F06F
:100A800004002862F0E700BFFFF7D0FCA0EB0B01E9
:100A900041F2883081424BD897FAA7F0B0FA80F043
:100AA00040F04000B6EB501F01D128680BE097FAE8
:100AB000A7F0B0FA80F040F04000B7EB501F01D132
:100AC000286A00E0686A97FAA7F1B1FA81F101F0AB
:100AD0001F0106FA01F21042D6D035E000100240A4
:100AE000000042420070004000E034E0FFF79EFC4E
:100AF000834607E0FFF79AFCA0EB0B0141F2883038
:100B0000814215D897FAA7F0B0FA80F040F0400083
:100B1000B6EB501F01D128680CE097FAA7F0B0FAA5
:100B200080F040F04000B7EB501F02D1286A01E08E
:100B300083E0686A97FAA7F1B1FA81F101F01F0129
:100B400006FA01F21042D5D1B9F1000F03D0E869DD
:100B500020F08050E861E06980B36968C1F38101E9
:100B6000022977D04FF080714F00022809D091FA06
:100B7000A1F0B0FA80F048F820A0FFF757FC044637
:100B80005EE050468A4691FAA1F1B1FA81F1C14680
:100B900048F82100FFF74AFC804605E0FFF746FCD5
:100BA000A0EB0800022848D897FAA7F0B0FA80F026
:100BB00040F02000400902D0286801E056E0686A51
:100BC00097FAA7F1B1FA81F101F01F0106FA01F1DC
:100BD0000842E3D1D4E908100843696821F474118C
:100BE000084368609AFAAAF0B0FA80F049F82060E9
:100BF000FFF71CFC044604E0FFF718FC001B02286A
:100C00001BD897FAA7F0B0FA80F040F02000400916
:100C100001D0286800E0686A97FAA7F1B1FA81F17B
:100C200001F01F0106FA01F10842E5D01EE000BF05
:100C3000FFF7FCFB001B022802D90320BDE8F88F58
:100C400097FAA7F0B0FA80F040F02000400902D0F7
:100C5000286801E00CE0686A97FAA7F1B1FA81F11F
:100C600001F01F0106FA01F10842E1D10020E5E799
:100C70000120E3E72DE9F041040005D00025A5623D
:100C800094F85D0018B107E00120BDE8F08184F818
:100C90005C50204600F04AF8022384F85D3020685A
:100CA000016821F040010160E0684FF4E066B04265
:100CB00001D9002101E04FF48051B0F5706F02D0EE
:100CC000B04200D0A562276B012227B9B04201D9FA
:100CD000236300E02263D4E901031843D4E9043616
:100CE00033431843238B03F400731843E369184319
:100CF000236A1843A36A184323681860636B606A09
:100D0000A66918430427E36807EA164633431843E5
:100D10000843216848602068C16921F40061C1610D
:100D2000256684F85D200020AFE70000F0B587B0AD
:100D3000044614216846FFF754FA2E4A216800251C
:100D40002D48022403260527914236D1816941F4BA
:100D500080518161816901F480510591416941F4BB
:100D600000214161416901F400210591416941F48B
:100D700000314161416901F400310591416941F45B
:100D8000800141614069694600F48000059090153A
:100D90008DE8F1001948FFF77FFAE0028DE8710055
:100DA0000620049069464FF09040FFF775FA402006
:100DB0008DE8F1006946124818E0124A914217D1B5
:100DC000C16941F48041C161C16901F4804105916B
:100DD000416941F4802141614069694600F4802005
:100DE00005904FF444408DE8F1000748FFF754FAAE
:100DF00007B0F0BD0030014000100240000800487C
:100E00000014004800380040000400482DE9F84F65
:100E1000044690F85C000026984617460D460128C7
:100E20000DD04FF0010A84F85CA0FFF7FFFA83466B
:100E300094F85D00B146012804D002269BE0022010
:100E4000BDE8F88F002D73D0002F71D0032084F8F7
:100E50005D00C4F86090A563A787E787C4F8409059
:100E6000A4F84490A4F84690C4F85090C4F84C906C
:100E7000A068B0F5004F04D12068016841F48041BA
:100E8000016020680168490603D4016841F040010F
:100E90000160E068B0F5E06F606823D910B1E08FC1
:100EA00001281BD1216835F8020BC86006E02068D4
:100EB0008168890706D535F8021BC160E08F401EA6
:100EC000E0870BE0B8F1000F3FD0B8F1FF3F05D04D
:100ED000FFF7ACFAA0EB0B01414536D2E08F0028BA
:100EE000E5D137E010B1E08F012830D1E08F012843
:100EF00004D9216835F8020BC86010E0216815F8A4
:100F0000010B087311E0E08721E020688168890700
:100F10000FD5E18F012905D935F8021BC160E08F9B
:100F2000801EF0E715F8011B0173E08F401EEAE711
:100F300020E0B8F1000F08D0B8F1FF3F07D0FFF76D
:100F400075FAA0EB0B01414501D3032613E0E08FB6
:100F50000028DAD15A464146204600F064FB08B129
:100F600020202066A06818B92068C16880680090B9
:100F7000206E00B1012684F85DA084F85C903046B4
:100F80005EE700002DE9F05F044690F85C00002663
:100F90000A9F994692460D464FF0010801280ED04F
:100FA000012084F85C00FFF741FA834694F85D0065
:100FB000616801280CD0B1F5827F07D102E00220E0
:100FC000BDE8F09FA16809B9042801D00226F0E02D
:100FD000002D79D0BAF1000FFBD0B9F1000FF8D095
:100FE00094F85D00042802D0052084F85D000020FC
:100FF0002066C4F840A0A4F84690A4F84490A563E5
:10100000A4F83E90A4F83C90E0642065E0684FF4BA
:10101000E061884203D8B4F84600012804D920686A
:10102000426822F4805203E02068426842F4805211
:10103000426020680268520603D4026842F040020F
:101040000260E068884260683FD910B1E08F0128F3
:1010500032D1216835F8020BC860E08F401EE0876E
:101060002AE000BFB8F1000F0DD0E08F58B1206822
:101070008168890707D535F8021BC160E08F401EE3
:10108000E0874FF00008B4F8460068B12068816836
:10109000C90709D0C0682AF8020BB4F84600401E00
:1010A000A4F846004FF00108781C05D0FFF7BEF900
:1010B000A0EB0B00B84268D2E08F0028D2D1B4F880
:1010C00046000028CED169E072E010B1E08F01281F
:1010D0005DD1E08F012806D9216835F8020BC86080
:1010E000E08F801E05E0206815F8011B0173E08F7A
:1010F000401EE0874BE000BFB8F1000F16D0E08F34
:10110000A0B120688168890710D5E18F012905D930
:1011100035F8021BC160E08F801E04E015F8011B4A
:101120000173E08F401EE0874FF00008B4F84600DE
:1011300018B320688168C9071FD0B4F84610012988
:1011400011D9C0682AF8020BB4F84600801EA4F832
:101150004600B4F8460001280DD82068416841F4E3
:101160008051416007E0017B0AF8011BB4F846009A
:10117000401EA4F846004FF00108781C07D0FFF786
:1011800055F9A0EB0B00B84201D3032611E0E08F24
:101190000028B1D1B4F846000028ADD15A463946EE
:1011A000204600F040FA08B120202066206E00B1F1
:1011B0000126012084F85D00002084F85C003046A0
:1011C000FEE610B5401EB0F1807F01D3012010BDB6
:1011D0004FF0E02460610F21601700F013FA002047
:1011E000A06107202061002010BDFEE77FB500F060
:1011F00015F9714D4FF40044002221462846FFF7AF
:101200000FF90520FFF736F8012221462846FFF79F
:1012100007F9012000F010F94FF47A70FFF72AF86F
:10122000CB2000F009F965A1D1E90001CDE9000169
:101230000521684600F014F9CF2000F0FDF861A008
:10124000032100680090684600F00AF9E82000F0E9
:10125000F3F85DA0032100680090684600F000F9F3
:10126000EA2000F0E9F8002402216846009400F02A
:10127000F7F8ED2000F0E0F854A004210068009099
:10128000684600F0EDF8F72000F0D6F850A00121F4
:1012900000680090684600F0E3F8C02000F0CCF849
:1012A0004CA0012100680090684600F0D9F8C120E8
:1012B00000F0C2F848A0012100680090684600F0E4
:1012C000CFF8C52000F0B8F844A0022100680090D3
:1012D000684600F0C5F8C72000F0AEF840A0012134
:1012E00000680090684600F0BBF8362000F0A4F8D3
:1012F0003CA0012100680090684600F0B1F83A2057
:1013000000F09AF838A0012100680090684600F0CB
:10131000A7F8B12000F090F834A0022100680090F6
:10132000684600F09DF8B62000F086F830A0032152
:1013300000680090684600F093F8F22000F07CF816
:1013400001216846009400F08BF8262000F074F824
:1013500028A0012100680090684600F081F8E02094
:1013600000F06AF824A00FC88DE80F000F2168462E
:1013700000F076F8E12000F05FF823A10FC98DE8B6
:101380000F000F21684600F06BF8112000F054F8B0
:101390007820FEF76FFF292000F04EF8362000F08D
:1013A0004BF81DA0012100680090684600F058F835
:1013B000BDE87F4000F039B800100048392C0034F7
:1013C0000200000000C13000850078006403128133
:1013D0002000000023000000100000003E28000054
:1013E00086000000480000005500000000180000C2
:1013F00008822700010000000F312B0C0E084EF16F
:10140000370710030E090000000E1403110731C145
:1014100048080F0C31360F008800000000224FF4FE
:1014200000614FF09040FEF7FBBF0122D1024FF068
:101430009040FEF7F5BF000001B500224FF4804157
:101440000548FEF7EDFF4FF0FF33012269460348E0
:10145000FFF7DCFC08BD000000100048A4000020DD
:101460002DE9F0410C460646012291030C48FEF797
:10147000D7FF4FF400474FF0FF380DE0BC4201D9D1
:10148000384600E0204685B243462A4631460548A4
:10149000FFF7BCFC2E44641B002CEFD1BDE8F081AB
:1014A00000100048A40000202DE9F04387B014216B
:1014B0006846FEF796FE2F48416941F4800141617C
:1014C000416901F480010591416941F400114161D4
:1014D000416901F400110591416941F480214161A4
:1014E000416901F480210591416941F40021416184
:1014F000416901F400210591416941F400314161E4
:1015000040691D4F00F400304FF440440590002224
:1015100021463846FEF784FFDFF860800022402134
:101520004046FEF77DFF4FF400664FF090490022E1
:1015300031464846FEF774FF0125CDE900450024F9
:101540000294694638460394FEF7A6FE40200090B8
:10155000CDE90154694640460394FEF79DFE00968E
:10156000CDE90154694648460394FEF795FE07B05D
:10157000BDE8F08300100240001000480008004859
:101580000E480D494FF4E06201604FF482714160F2
:101590000021C0E902124FF400720161C0E9051296
:1015A0000822C0E9072107234162C0E90A13C0E904
:1015B0000C12FFF75FBB000000300140400000202C
:1015C0000E480D494FF4E06201604FF482714160B2
:1015D0000021C0E902124FF400720161C0E9051256
:1015E000C161016207224162C0E90A120163082158
:1015F0004163FFF73FBB000000380040A40000201B
:10160000FEE770470907090E002806DA00F00F0010
:1016100000F1E02080F8141D704700F1E02080F810
:10162000001470477047F8B515460E460B460092F9
:10163000044600224FF4C05100F019F888B933462F
:10164000002280212046009500F060F848B933461A
:1016500000224FF4C0612046009500F008F80028F1
:1016600004D0206E40F0200020660320F8BD2DE954
:10167000F8431D4617460E4604464FF4C068DDF891
:1016800020903CE0464505D127B9007B8DF800004D
:101690009DF80000681C32D02DB1FEF7C7FEA0EB0C
:1016A0000900A8422BD32068416821F0E001416085
:1016B0006068B0F5827F0BD1A068B0F5004F02D012
:1016C000B0F5806F04D12068016821F0400101600D
:1016D000A06AB0F5005F09D12068016821F40051CB
:1016E00001602068016841F400510160012084F824
:1016F0005D00002084F85C000320BDE8F8832068CA
:1017000081683140B942BDD10020F6E72DE9F041B2
:101710001D4617460E460446DDF8188034E0681C66
:1017200032D02DB1FEF782FEA0EB0800A8422BD3E9
:101730002068416821F0E00141606068B0F5827F77
:101740000BD1A068B0F5004F02D0B0F5806F04D186
:101750002068016821F040010160A06AB0F5005FD7
:1017600009D12068016821F40051016020680168F6
:1017700041F400510160012084F85D00002084F8EC
:101780005C000320BDE8F0812068806836EA000034
:1017900004D00020B842C2D10020F3E70120F9E7CD
:1017A0007047FEF749BE30B58FB028216846FEF776
:1017B00018FD14210AA8FEF714FD01210804CDE943
:1017C00000100024029402250491CDE907504FF443
:1017D000E01009906846FEF785FF0F20CDE90A0565
:1017E0006802CDE90C4002210AA80E94FEF7A6FE7D
:1017F0000FB030BD1448016841F470010160134816
:10180000016841F0010101604168114A11404160E5
:101810000168104A11400160016821F480210160D3
:10182000416821F4FE014160C16A21F00F01C162EB
:10183000016B094A11400163002181600249C00324
:10184000803908607047000088ED00E00010024019
:101850000CC07FF8FFFFF6FECCFC00FFFEE70000A7
:1018600070B5124C02E000BFFEF704FD94F82700AB
:1018700001284FF00100F7D004F8270F00F054F9C9
:101880000B4D002240212846FEF7CAFDC72000F07C
:1018900015F9012240212846FEF7C2FD00F01EF98D
:1018A0000A20FEF7E7FC0020207070BD1800002021
:1018B000000800482DE9F0413D4C012684F82760DE
:1018C00002E00120FEF7D6FCFEF7B0FD6428F8D355
:1018D00000F072F8374987B244F216030860082115
:1018E000FA1A002548019F4230D00EDCA7F5804748
:1018F000A7F111074FF004024FF00203052F0ED29B
:10190000DFE807F035322F2C2800032A11D0042AF3
:101910000AD06FF44053D21814D0012A0FD084F8A3
:1019200027500020BDE8F0810A2121704FF480612A
:1019300003E0092121704FF40071E16119E0217089
:10194000E06116E0072121708021F6E70621217071
:101950004021F2E7052121702021EEE722701021BD
:10196000EBE703222270E8E72370E26101E02670D2
:10197000E36160814FF480512161E1690901616196
:101980000903B1FBF0F0E0604FF48030A061880AF9
:10199000206200F06BF8012000F032F8022000F025
:1019A0002FF8032000F02CF884F827500120B9E725
:1019B00018000020000000202DE9F0410F4E002209
:1019C00040213046FEF72CFD9F2000F077F8A5203F
:1019D00000F074F80546A52000F070F80446A52034
:1019E00000F06CF80746012240213046FEF718FD52
:1019F000280440EA04203843BDE8F081000800488C
:101A000070B5184E0446002240213046FEF708FD0E
:101A1000154D012C11D0022C19D0152000F04EF8D4
:101A2000A52000F04BF8044685F82600012240214D
:101A30003046FEF7F5FC204670BD052000F03EF86C
:101A4000A52000F03BF8044685F82400EEE7352099
:101A500000F034F8A52000F031F8044685F82500A0
:101A6000E4E70000000800481800002070B5114DA0
:101A7000002240212846FEF7D3FC4B2000F01EF840
:101A80000024A52000F01AF8641CE4B2042CF8D35A
:101A9000094E0024A52000F011F83119641CE4B2AD
:101AA0004870082CF6D32846BDE87040012240213A
:101AB000FEF7B6BC000800481800002001B582B04F
:101AC0000A200090012301AA02A90348FFF75AFA4D
:101AD0009DF804000EBD00004000002070B50120FC
:101AE000FEF7C8FB0E4D002240212846FEF798FC69
:101AF0000520FFF7E3FF0B4CA520FFF7DFFF84F87D
:101B000024000120FEF7B6FB94F82400C007F3D1AF
:101B10002846BDE8704001224021FEF781BC00004C
:101B2000000800481800002010B5094C0022402190
:101B30002046FEF775FC0620FFF7C0FF012240217A
:101B40002046FEF76DFCBDE810400120FEF792BB79
:101B50000008004802E008C8121F08C1002AFAD194
:101B600070477047002001E001C1121F002AFBD11D
:101B700070477CB5054661B10A226846FEF720FB36
:101B8000DDE900142846FFF7F4FF30342C54401CE4
:101B90007CBD00207CBD00000EB50E4850210170B8
:101BA000512141706FF0FD01684600F015F8FEF715
:101BB0004BFCFFF7F8FDFFF777FCFFF701FDFFF7A0
:101BC000DFFCFFF777FEFFF730FCFFF70FFBFFF7B7
:101BD00047FEFEE70400002070B5054604460029D4
:101BE00006DA4FF02D0004F8010BC1F1000104E00A
:101BF00003D14FF0300004F8010B2046FFF7B9FF86
:101C000000212154284670BD020304050607080977
:101C10000A0B0C0D0E0F1010010203040506070835
:101C2000090A0B0C0D0E0F10000000000000000050
:101C30000102030406070809581C000800000020E0
:101C400018000000541B0008701C00081800002039
:101C5000F0040000641B0008000000000000000009
:101C600001000000100000000000000000127A00D7
:040000050800018965
:00000001FF
